:100000000C9464000C948C000C948C000C948C0068
:100010000C948C000C948C000C948C000C948C0030
:100020000C948C000C948C000C948C000C948C0020
:100030000C948C000C948C000C948C000C948C0010
:100040000C9468010C948C000C9493020C94E102C3
:100050000C948C000C948C000C948C000C948C00F0
:100060000C948C000C948C000000000024002700ED
:100070002A0000000000250028002B0000000000DE
:1000800023002600290004040404040404040202DA
:100090000202020203030303030301020408102007
:1000A0004080010204081020010204081020000012
:1000B0000007000201000003040600000000000029
:1000C0000000F8004D04F10011241FBECFEFD8E06E
:1000D000DEBFCDBF11E0A0E0B1E0EEECF1E102C087
:1000E00005900D92AE34B107D9F712E0AEE4B1E05D
:1000F00001C01D92AC30B107E1F710E0C6ECD0E0D2
:1001000004C02297FE010E94D608C23CD107C9F75D
:100110000E9483020C94DA080C9400001F93FC01E7
:1001200099278827BC01E89411911032E9F319301E
:1001300010F01E30C8F31B3251F01D3249F46894A0
:1001400006C00E94C500610F711D811D911D119196
:1001500010531A30B0F33EF49095809570956195E8
:100160007F4F8F4F9F4F1F910895FB01DC0102C00D
:1001700001900D9241505040D8F70895FB01DC01E9
:1001800001900D920020E1F70895592F482F372F45
:10019000262F660F771F881F991F660F771F881FEE
:1001A000991F620F731F841F951F660F771F881F8B
:1001B000991F08958130910551F46F5F7F4F81F44D
:1001C0008EE491E060E071E00E945D060895892B65
:1001D00039F46F5F7F4F21F48EE491E00E9477063F
:1001E000089580E090E06FEF7FEF0E94DA000895BD
:1001F00081E090E06FEF7FEF0E94DA000895EF92C8
:10020000FF920F931F9310E086EE91E00E94A303EC
:10021000892B79F0112399F486EE91E00E94D403A2
:10022000682F8D3009F411E08EE491E00E941706EA
:10023000EBCF113021F0EE24FF2487011AC08EE4A9
:1002400091E00E94A305AC01CB01DA017C018D0194
:100250006AE070E080E090E00E94B001B7016F5F5B
:100260007E4F86EE91E00E94900586EE91E00E941E
:10027000FD03B701C8011F910F91FF90EF90089502
:100280000E94FF00AB01BC0186EE91E02AE030E065
:100290000E947C0568EE73E080E090E00E94B0016F
:1002A00008950F931F9306EE11E0C80140E855E250
:1002B00060E070E00E941C038DE061E00E94440257
:1002C000C8016BE071E00E9490051F910F910895A5
:1002D0001F920F920FB60F9211242F933F938F937B
:1002E0009F93AF93BF938091590190915A01A09130
:1002F0005B01B0915C0130915D010196A11DB11DC2
:10030000232F2D5F2D3720F02D570196A11DB11DF4
:1003100020935D018093590190935A01A0935B0152
:10032000B0935C018091550190915601A0915701C5
:10033000B09158010196A11DB11D80935501909374
:100340005601A0935701B0935801BF91AF919F916F
:100350008F913F912F910F900FBE0F901F90189586
:100360009B01AC017FB7F8948091550190915601A3
:10037000A0915701B091580166B5A89B05C06F3F89
:1003800019F00196A11DB11D7FBFBA2FA92F982F7B
:100390008827860F911DA11DB11D62E0880F991F4E
:1003A000AA1FBB1F6A95D1F7BC012DC0FFB7F894F7
:1003B0008091550190915601A0915701B09158013B
:1003C000E6B5A89B05C0EF3F19F00196A11DB11D30
:1003D000FFBFBA2FA92F982F88278E0F911DA11D1F
:1003E000B11DE2E0880F991FAA1FBB1FEA95D1F744
:1003F000861B970B885E9340C8F2215030404040E6
:10040000504068517C4F211531054105510571F669
:100410000895789484B5826084BD84B5816084BD7C
:1004200085B5826085BD85B5816085BDEEE6F0E06D
:10043000808181608083E1E8F0E0108280818260C9
:100440008083808181608083E0E8F0E0808181604A
:100450008083E1EBF0E0808184608083E0EBF0E07A
:10046000808181608083EAE7F0E08081846080831E
:1004700080818260808380818160808380818068C8
:1004800080831092C1000895CF93DF93482F50E0EE
:10049000CA0186569F4FFC0134914A575F4FFA01BB
:1004A0008491882369F190E0880F991FFC01E85935
:1004B000FF4FA591B491FC01EE58FF4FC591D49127
:1004C000662351F42FB7F8948C91932F909589233C
:1004D0008C93888189230BC0623061F42FB7F89424
:1004E0008C91932F909589238C938881832B88837B
:1004F0002FBF06C09FB7F8948C91832B8C939FBF1E
:10050000DF91CF910895CF93DF930E9409020E945B
:100510005101CEECD2E00E9440012097E1F30E940D
:10052000CE02F9CF08951F920F920FB60F921124A9
:100530002F933F934F938F939F93EF93FF938091CC
:10054000C00082FD1DC04091C60020919E013091E7
:100550009F012F5F3F4F2F7330708091A0019091CA
:10056000A1012817390771F0E0919E01F0919F01D8
:10057000E25AFE4F408330939F0120939E0102C0B8
:100580008091C600FF91EF919F918F914F913F9184
:100590002F910F900FBE0F901F901895E091F201D0
:1005A000F091F301E05CFF4F8191919120813181C5
:1005B000821B930B8F739070892B11F00E94920213
:1005C00008951F920F920FB60F9211242F933F930D
:1005D0008F939F93EF93FF932091E2013091E3017A
:1005E0008091E4019091E5012817390731F4809159
:1005F000C1008F7D8093C10014C0E091E401F091AF
:10060000E501EE55FE4F20818091E4019091E501D6
:1006100001968F7390709093E5018093E40120938D
:10062000C600FF91EF919F918F913F912F910F9075
:100630000FBE0F901F901895AF92BF92DF92EF926E
:10064000FF920F931F93CF93DF93EC017A018B01FD
:10065000DD24403081EE580780E0680780E07807AD
:1006600011F0DD24D39491E0A92EB12CEC89FD8901
:10067000DD2069F0C50108A002C0880F991F0A9407
:10068000E2F7808360E079E08DE390E005C01082BE
:1006900060E874E88EE190E0A80197010E94B2083A
:1006A000215030404040504056954795379527950A
:1006B00080E12030380720F0DD2011F0DD24D6CF96
:1006C000E889F9893083EA89FB89208319A2EE89B8
:1006D000FF89408121E030E0C9010C8C02C0880F05
:1006E000991F0A94E2F7482B4083EE89FF894081E5
:1006F000C9010D8C02C0880F991F0A94E2F7482B9C
:100700004083EE89FF894081C9010E8C02C0880FA9
:10071000991F0A94E2F7482B4083EE89FF89808174
:100720000F8C02C0220F331F0A94E2F72095282372
:100730002083DF91CF911F910F91FF90EF90DF9079
:10074000BF90AF900895DC011C96ED91FC911D9730
:10075000E05CFF4F2191319180819181281B390B01
:100760002F733070C9010895DC011C96ED91FC9146
:100770001D97E05CFF4F20813181E054F040DF01A4
:10078000AE5BBF4F8D919C9111972817390719F4D3
:100790002FEF3FEF07C08D919C91E80FF91F8081EB
:1007A000282F30E0C9010895DC011C96ED91FC91E1
:1007B0001D97E05CFF4F20813181E054F040DF0164
:1007C000AE5BBF4F8D919C9111972817390719F493
:1007D0002FEF3FEF10C08D919C911197E80FF91FFB
:1007E00020818D919C91119701968F739070119635
:1007F0009C938E9330E0C9010895DC0191968C9111
:100800009197882339F05496ED91FC91559780810A
:1008100086FFF9CF91961C920895CF93DF93EC0158
:10082000EE85FF85E05CFF4F20813181E054F04090
:100830002F5F3F4F2F733070DF01AE5BBF4F8D9145
:100840009C91119728173907D1F3E05CFF4F808105
:100850009181E054F040E80FF91F6083EE85FF8539
:10086000E05CFF4F31832083EE89FF89208181E0A6
:1008700090E00F8C02C0880F991F0A94E2F7282B92
:10088000208381E089A3EC89FD8980818064808355
:1008900081E090E0DF91CF9108951092E9011092EC
:1008A000E80188EE93E0A0E0B0E08093EA01909345
:1008B000EB01A093EC01B093ED0182E491E0909301
:1008C000E7018093E6018EE591E09093F301809338
:1008D000F20182EA91E09093F5018093F40185ECB6
:1008E00090E09093F7018093F60184EC90E0909370
:1008F000F9018093F80180EC90E09093FB018093E4
:10090000FA0181EC90E09093FD018093FC0182EC70
:1009100090E09093FF018093FE0186EC90E090932D
:1009200001028093000284E08093020283E08093BE
:10093000030287E08093040285E08093050281E052
:10094000809306020895CF92DF92EF92FF920F9369
:100950001F93CF93DF937C016B018A01C0E0D0E04D
:100960000FC0D6016D916D01D701ED91FC91019001
:10097000F081E02DC7010995C80FD91F0150104023
:100980000115110571F7CE01DF91CF911F910F91E4
:10099000FF90EF90DF90CF900895EF92FF920F932A
:1009A0001F938C01DC01ED91FC910190F081E02D11
:1009B0006DE009957C01D801ED91FC910190F081E9
:1009C000E02DC8016AE009959C012E0D3F1DC9016B
:1009D0001F910F91FF90EF900895CF93DF93EC015B
:1009E0006115710519F420E030E00FC0DB010D90B6
:1009F0000020E9F71197A61BB70BE881F981028067
:100A0000F381E02DAD0109959C01C901DF91CF91E2
:100A100008954F925F927F928F929F92AF92BF9272
:100A2000CF92DF92EF92FF920F931F93DF93CF93BA
:100A3000CDB7DEB7A1970FB6F894DEBF0FBECDBF1E
:100A40002C01742ECB01223008F42AE019A231E2E5
:100A5000C32ED12CCC0EDD1E822E9924AA24BB24B9
:100A6000672D752FA50194010E94B20879018A01B2
:100A7000C801B701A50194010E949308472D461BA8
:100A80000894C108D1084A3014F4405D01C0495CA3
:100A9000F6014083E114F1040105110521F07E2CDB
:100AA0005F2DC801DDCFC201B6010E94ED04A19601
:100AB0000FB6F894DEBF0FBECDBFCF91DF911F916F
:100AC0000F91FF90EF90DF90CF90BF90AF909F90ED
:100AD0008F907F905F904F900895DC012115310534
:100AE00041F4ED91FC910190F081E02D642F099586
:100AF00008950E9409050895EF92FF920F931F93A6
:100B00007C010E946D058C01C7010E94CD049C01EF
:100B1000200F311FC9011F910F91FF90EF90089591
:100B2000EF92FF920F931F937C010E94ED048C01C2
:100B3000C7010E94CD04080F191FC8011F910F9112
:100B4000FF90EF900895FC0180819181009729F436
:100B500020E030E040E050E004C00E948E009B01A5
:100B6000AC01B901CA0108950F931F93CF93DF938E
:100B7000EC018B016F5F7F4F888199810E94B207E2
:100B8000009711F480E005C0998388831B830A8352
:100B900081E0DF91CF911F910F910895CF93DF9363
:100BA000EC0188819981892B29F08A819B818617A4
:100BB000970760F4CE010E94B405882341F08C8130
:100BC0009D81892B19F4E881F981108281E0DF9100
:100BD000CF910895EF92FF920F931F93CF93DF93DE
:100BE000EC017B016C817D81E114F104C1F04115C0
:100BF000510599F08A01060F171FB8010E94CE0512
:100C0000882369F0888199812C813D81820F931F0F
:100C1000B7010E94BE001D830C8381E001C080E00B
:100C2000DF91CF911F910F91FF90EF900895DF9387
:100C3000CF9300D0CDB7DEB769831A82BE016F5F54
:100C40007F4F41E050E00E94EA050F900F90CF9156
:100C5000DF910895CF93DF93EC018881998100970C
:100C600011F00E941A07198218821D821C821B82B1
:100C70001A82DF91CF910895EF92FF920F931F9305
:100C8000CF93DF93EC017B018A01BA010E94CE056C
:100C9000882321F4CE010E942A0607C01D830C83FD
:100CA00088819981B7010E94BE00CE01DF91CF916A
:100CB0001F910F91FF90EF900895CF93DF93EC0178
:100CC000198218821B821A821D821C821E82611563
:100CD000710551F0DB010D900020E9F71197A61B7B
:100CE000B70BAD010E943C06DF91CF910895FC0146
:100CF000808191810E941A0708950F931F93CF93CB
:100D0000DF93BC018230910510F462E070E0E09165
:100D10000A02F0910B02A0E0B0E040E050E024C0F5
:100D20008081918186179707D0F08617970771F415
:100D300082819381109729F013969C938E9312973A
:100D40002CC090930B0280930A0227C041155105D5
:100D500019F08417950718F4EF018D01AC01DF013C
:100D6000828193819C01F9013097D1F6411551059B
:100D7000F9F0CA01861B970B8430910580F48A81B3
:100D80009B810115110521F0F8019383828304C032
:100D900090930B0280930A02FE01329645C0FE0139
:100DA000E80FF91F619371930297998388833CC080
:100DB0008091080290910902892B41F480913A01B7
:100DC00090913B01909309028093080240913C016D
:100DD00050913D014115510541F44DB75EB78091E9
:100DE000380190913901481B590B2091080230912C
:100DF000090224173507B0F4CA01821B930B86172A
:100E0000970780F0AB014E5F5F4F8417950750F056
:100E1000420F531F5093090240930802F901619356
:100E2000719302C0E0E0F0E0CF01DF91CF911F911C
:100E30000F910895CF93DF939C01009709F48FC021
:100E4000EC0122971B821A8260910A0270910B02B8
:100E50006115710581F488819981820F931F20911A
:100E60000802309109022817390739F5D093090291
:100E7000C093080274C0DB0140E050E0AC17BD072E
:100E800008F1BB83AA83FE0121913191E20FF31F88
:100E9000AE17BF0779F48D919C911197280F391FD8
:100EA0002E5F3F4F3983288312968D919C91139723
:100EB0009B838A834115510571F4D0930B02C09333
:100EC0000A024DC012968D919C911397AD01009727
:100ED00011F0DC01D3CFDA011396DC93CE93129795
:100EE000FA0121913191E20FF31FCE17DF0769F468
:100EF00088819981280F391F2E5F3F4FFA01318376
:100F000020838A819B8193838283E0E0F0E0DB0190
:100F100012968D919C911397009719F0BC01FD01D9
:100F2000F6CFAB014E5F5F4FDB018D919C91840F3B
:100F3000951F20910802309109022817390779F48A
:100F4000309729F410920B0210920A0202C0138209
:100F50001282425050405093090240930802DF91A0
:100F6000CF9108956F927F928F929F92AF92BF928E
:100F7000CF92DF92EF92FF920F931F93CF93DF9365
:100F80008C01009729F4CB010E947D068C01BBC027
:100F90008EEFE82E8FEFF82EE00EF11E4801860E40
:100FA000971E8E149F0408F4ACC0D7014D915C913C
:100FB000119746175707B8F04530510508F4A3C0FC
:100FC000CA0104978617970708F49DC04250504005
:100FD000461B570BF401419351936D937C93CF01C2
:100FE0000E941A0790C05B01A41AB50A3801640E6A
:100FF000751EA0910A02B0910B02CC24DD24E0E022
:10100000F0E047C0A615B705A9F5CD91DC91119781
:10101000CE0102968A159B0568F1CE018A199B09BB
:10102000029612962C91129713963C91059758F0C0
:10103000F40122833383CA19DB09D183C083D7012A
:101040006D937C9309C04E5F5F4F4C0F5D1FF7019E
:1010500051834083C901FC01C114D10431F0D60190
:101060001396FC93EE9312974EC0F0930B02E0930D
:101070000A0249C08D919C911197E817F90708F46D
:10108000FC016D0112968C91129713969C919C0114
:10109000D901109709F0B6CF80910802909109020A
:1010A00086159705E9F4E617F707D0F420913C017F
:1010B00030913D012115310541F42DB73EB78091A6
:1010C000380190913901281B390B82169306C8F418
:1010D0009092090280920802F7017183608313C025
:1010E000CB010E947D06EC01009759F0D7014D918C
:1010F0005C91B8010E94B500C8010E941A078E01D8
:1011000002C000E010E0C801DF91CF911F910F9164
:10111000FF90EF90DF90CF90BF90AF909F908F9017
:101120007F906F900895629FD001739FF001829F1E
:10113000E00DF11D649FE00DF11D929FF00D839F66
:10114000F00D749FF00D659FF00D9927729FB00D03
:10115000E11DF91F639FB00DE11DF91FBD01CF0116
:1011600011240895A1E21A2EAA1BBB1BFD010DC07C
:10117000AA1FBB1FEE1FFF1FA217B307E407F50747
:1011800020F0A21BB30BE40BF50B661F771F881F23
:10119000991F1A9469F760957095809590959B01B9
:1011A000AC01BD01CF010895EE0FFF1F0590F49132
:1011B000E02D099410E0C6ECD0E004C0FE010E94CE
:0E11C000D6082296C83CD107C9F7F894FFCF95
:1011CE0000506572696F6420697300456E746572B4
:1011DE002074696D6520696E206D696C6C6973652C
:1011EE00636F6E64732C20616E6420686974205284
:1011FE00657475726E3A200080000C0200000000CB
:0E120E0000000D04A304A303D403B403FD03E6
:00000001FF
