:100000000C9471000C9499000C9499000C94990034
:100010000C9499000C9499000C9499000C94FC0099
:100020000C9499000C9499000C9499000C949900EC
:100030000C9499000C9499000C9499000C949900DC
:100040000C9463050C9499000C94FF020C944D03DE
:100050000C9499000C9499000C9499000C949900BC
:100060000C9499000C94990005A84CCDB2D44EB9CB
:100070003836A9020C50B9918688083CA6AAAA2A4B
:10008000BE000000803F00000000240027002A007E
:1000900000000000250028002B00000000002300C5
:1000A00026002900040404040404040402020202D9
:1000B000020203030303030301020408102040802B
:1000C00001020408102001020408102000000007AB
:1000D0000002010000030406000000000000000010
:1000E000B90411241FBECFEFD8E0DEBFCDBF11E0B1
:1000F000A0E0B1E0E2E2F1E102C005900D92A6318C
:10010000B107D9F712E0A6E1B1E001C01D92AA3C07
:10011000B107E1F710E0C2EED0E004C02297FE0183
:100120000E945408C03ED107C9F70E94EF020C9408
:100130008F080C940000A0E0B0E0E1EAF0E00C943D
:100140006008EC01A880B980CA80DB80A114B104EA
:10015000C104D10441F484E2A82E89EDB82E8BE5C8
:10016000C82E87E0D82EC601B5012DE133EF41E05E
:1001700050E00E94370827EA31E440E050E00E9456
:10018000F6077B018C01C601B5012DE133EF41E09B
:1001900050E00E943708CA01B9012CEE34EF4FEF4E
:1001A0005FEF0E94F6076E0D7F1D801F911F97FF66
:1001B00004C06150704080409048688379838A838E
:1001C0009B839B01AC015F77B901CA01CDB7DEB754
:1001D000EAE00C947C080E949B00089580E091E086
:1001E0000E949B0008956093000170930101809329
:1001F00002019093030108951F920F920FB60F9280
:1002000011248F939F93EF93FF9380911602E6E161
:10021000F1E0E80FF11D90818F5F809316029093BB
:100220008800000086E08093B200FF91EF919F91DB
:100230008F910F900FBE0F901F9018950F931F93E3
:10024000CF93DF93823009F443C0833030F48823A6
:1002500059F0813009F06CC02FC0833009F44EC0D2
:10026000843009F065C053C0C0E0D0E0BE0180E03A
:1002700090E00E9477062AED3FE049EC5CE30E94A3
:1002800005070E9468078E010A5E1E4F20E030E0DD
:100290004EEF52E40E94050720E030E040E053E4D6
:1002A0000E94E7050E944B06F80160832196F1E069
:1002B000C030DF07D9F63CC080E090E0FC01EA5E88
:1002C000FE4F8083019621E080309207B9F730C05D
:1002D000E6E1F1E020E030E09FEF2038310524F442
:1002E000822F880F808301C090832F5F3F4F31960C
:1002F000925081E02030380781F71AC0E6E1F1E042
:100300008FEF819391E0E639F907D9F711C082E0C8
:1003100090E00E945B05C6E1D1E060E071E080E022
:1003200090E00E9439056993E2E0C631DE07A9F743
:10033000DF91CF911F910F91089580E00E941E01DF
:10034000809104018093B30008954F925F926F9261
:100350007F928F929F92AF92BF92CF92DF92EF9255
:10036000FF920F931F93CF93DF938FE992E040E8C2
:1003700055E260E070E00E948803C0E0D0E04424D1
:1003800055246624772488249924BE01882777FD84
:100390008095982F0E9479062AED3FE049EC5CE3B6
:1003A0000E9405070E9468077B018C01B201882723
:1003B00077FD8095982F0E9479062AED3FE049EC61
:1003C0005CE30E9405070E9468075B016C01C8019D
:1003D000B70120E030E04EEF52E40E9405070E9492
:1003E0004B0670E0882777FD8095982F0E9479064C
:1003F0007B018C01C601B50120E030E048EF51E4FB
:100400000E9405079B01AC01C801B7010E94E705E6
:100410007B018C01B301882777FD8095982F0E947E
:1004200079062AED3FE049EC5CE30E9405070E9453
:1004300068075B016C01C801B7010E944B0670E0C0
:10044000882777FD8095982F0E9479067B018C0183
:10045000C601B50120E030E048EF51E40E940507F5
:100460009B01AC01C801B7010E94E7057B018C012B
:10047000B401882777FD8095982F0E9479062AED90
:100480003FE049EC5CE30E9405070E9468075B01BE
:100490006C01C801B7010E944B0670E0882777FD08
:1004A0008095982F0E9479067B018C01C601B501C9
:1004B00020E030E048EF51E40E9405079B01AC01C9
:1004C000C801B7010E94E7058E010A5E1E4F0E9417
:1004D0004B066058F801608382E00E941E0121965D
:1004E00083E090E0480E591EE5E0F0E06E0E7F1EBE
:1004F00087E090E0880E991E91E0C030D90709F09E
:1005000044CF89E061E00E94B00281E080938100E5
:10051000809180008068809380008091800081605D
:100520008093800080918100886080938100109288
:10053000B00082E08093B100809370007894DF91E6
:10054000CF911F910F91FF90EF90DF90CF90BF90D0
:10055000AF909F908F907F906F905F904F90089595
:10056000CF93DF93482F50E0CA0188549F4FFC017E
:1005700034914C555F4FFA018491882369F190E0E2
:10058000880F991FFC01EA57FF4FA591B491FC0118
:10059000E057FF4FC591D491662351F42FB7F894DB
:1005A0008C91932F909589238C93888189230BC0FC
:1005B000623061F42FB7F8948C91932F9095892332
:1005C0008C938881832B88832FBF06C09FB7F894B4
:1005D0008C91832B8C939FBFDF91CF910895CF9304
:1005E000DF930E94AB050E94A501CAE3D3E00E94FD
:1005F0009D012097E1F30E943A03F9CF08951F92DD
:100600000F920FB60F9211242F933F934F938F9316
:100610009F93EF93FF938091C00082FD1DC0409196
:10062000C60020915702309158022F5F3F4F2F7321
:1006300030708091590290915A022817390771F051
:10064000E0915702F0915802E95EFD4F40833093EC
:1006500058022093570202C08091C600FF91EF918B
:100660009F918F914F913F912F910F900FBE0F90BF
:100670001F901895E091AB02F091AC02E05CFF4F47
:100680008191919120813181821B930B8F739070A6
:10069000892B11F00E94FE0208951F920F920FB64F
:1006A0000F9211242F933F938F939F93EF93FF9378
:1006B00020919B0230919C0280919D0290919E021C
:1006C0002817390731F48091C1008F7D8093C100D4
:1006D00014C0E0919D02F0919E02E55AFD4F2081E9
:1006E00080919D0290919E0201968F7390709093DD
:1006F0009E0280939D022093C600FF91EF919F91EF
:100700008F913F912F910F900FBE0F901F901895D2
:10071000AF92BF92DF92EF92FF920F931F93CF930E
:10072000DF93EC017A018B01DD24403081EE580724
:1007300080E0680780E0780711F0DD24D39491E031
:10074000A92EB12CEC89FD89DD2069F0C50108A036
:1007500002C0880F991F0A94E2F7808360E079E075
:100760008DE390E005C0108260E874E88EE190E0CF
:10077000A80197010E941508215030404040504088
:10078000569547953795279580E12030380720F01A
:10079000DD2011F0DD24D6CFE889F9893083EA899C
:1007A000FB89208319A2EE89FF89408121E030E096
:1007B000C9010C8C02C0880F991F0A94E2F7482BDC
:1007C0004083EE89FF894081C9010D8C02C0880FEA
:1007D000991F0A94E2F7482B4083EE89FF894081F4
:1007E000C9010E8C02C0880F991F0A94E2F7482BAA
:1007F0004083EE89FF8980810F8C02C0220F331F56
:100800000A94E2F7209528232083DF91CF911F914E
:100810000F91FF90EF90DF90BF90AF900895DC01B3
:100820001C96ED91FC911D97E05CFF4F2191319159
:1008300080819181281B390B2F733070C901089575
:10084000DC011C96ED91FC911D97E05CFF4F20812F
:100850003181E054F040DF01AE5BBF4F8D919C9140
:1008600011972817390719F42FEF3FEF07C08D9123
:100870009C91E80FF91F8081282F30E0C90108956D
:10088000DC011C96ED91FC911D97E05CFF4F2081EF
:100890003181E054F040DF01AE5BBF4F8D919C9100
:1008A00011972817390719F42FEF3FEF10C08D91DA
:1008B0009C911197E80FF91F20818D919C911197C0
:1008C00001968F73907011969C938E9330E0C901BE
:1008D0000895DC0191968C919197882339F0549674
:1008E000ED91FC915597808186FFF9CF91961C92EE
:1008F0000895CF93DF93EC01EE85FF85E05CFF4F19
:1009000020813181E054F0402F5F3F4F2F733070D2
:10091000DF01AE5BBF4F8D919C911197281739076E
:10092000D1F3E05CFF4F80819181E054F040E80F0B
:10093000F91F6083EE85FF85E05CFF4F31832083E4
:10094000EE89FF89208181E090E00F8C02C0880F42
:10095000991F0A94E2F7282B208381E089A3EC8970
:10096000FD8980818064808381E090E0DF91CF9178
:1009700008951092A2021092A10288EE93E0A0E0E6
:10098000B0E08093A3029093A402A093A502B09339
:10099000A60289E091E09093A00280939F0287E1F4
:1009A00092E09093AC028093AB028BE592E090933F
:1009B000AE028093AD0285EC90E09093B0028093FC
:1009C000AF0284EC90E09093B2028093B10280EC8D
:1009D00090E09093B4028093B30281EC90E0909306
:1009E000B6028093B50282EC90E09093B8028093B7
:1009F000B70286EC90E09093BA028093B90284E04B
:100A00008093BB0283E08093BC0287E08093BD02A9
:100A100085E08093BE0281E08093BF020895CF926B
:100A2000DF92EF92FF920F931F93CF93DF937C019E
:100A30006B018A01C0E0D0E00FC0D6016D916D015D
:100A4000D701ED91FC910190F081E02DC70109954E
:100A5000C80FD91F015010400115110571F7CE01C3
:100A6000DF91CF911F910F91FF90EF90DF90CF908A
:100A70000895EF92FF920F931F937B018C016115F4
:100A800071058105910529F420E030E040E050E057
:100A90000BC00E94EE00A80197010E943708AC012C
:100AA000CB01DA019C01AD01B901CA011F910F917F
:100AB000FF90EF900895009729F0BC0180E090E04E
:100AC0000E94F30008951F920F920FB60F92112407
:100AD0002F933F938F939F93AF93BF938091C502C2
:100AE0009091C602A091C702B091C8023091C9028C
:100AF0000196A11DB11D232F2D5F2D3720F02D57FD
:100B00000196A11DB11D2093C9028093C502909347
:100B1000C602A093C702B093C8028091C10290910F
:100B2000C202A091C302B091C4020196A11DB11DE1
:100B30008093C1029093C202A093C302B093C402F7
:100B4000BF91AF919F918F913F912F910F900FBEC9
:100B50000F901F901895789484B5826084BD84B5F9
:100B6000816084BD85B5826085BD85B5816085BDA8
:100B7000EEE6F0E0808181608083E1E8F0E01082C1
:100B8000808182608083808181608083E0E8F0E002
:100B9000808181608083E1EBF0E0808184608083EC
:100BA000E0EBF0E0808181608083EAE7F0E0808123
:100BB0008460808380818260808380818160808383
:100BC0008081806880831092C10008955058BB27AF
:100BD000AA270ED0E0C0D1D030F0D6D020F031F42A
:100BE0009F3F11F41EF4C6C00EF4E095E7FBBCC0B5
:100BF000E92FE2D080F3BA176207730784079507DD
:100C000018F071F49EF5FAC00EF4E0950B2EBA2F91
:100C1000A02D0B01B90190010C01CA01A001112402
:100C2000FF27591B99F0593F50F4503E68F11A16AE
:100C3000F040A22F232F342F4427585FF3CF46953F
:100C400037952795A795F0405395C9F77EF41F1661
:100C5000BA0B620B730B840BBAF09150A1F0FF0F2B
:100C6000BB1F661F771F881FC2F70EC0BA0F621F17
:100C7000731F841F48F4879577956795B795F79507
:100C80009E3F08F0B3CF9395880F08F09927EE0F99
:100C900097958795089598D088F09F5790F0B92F31
:100CA0009927B751A0F0D1F0660F771F881F991FC1
:100CB0001AF0BA95C9F712C0B13081F09FD0B1E0F7
:100CC00008959CC0672F782F8827B85F39F0B93F07
:100CD000CCF3869577956795B395D9F73EF49095C3
:100CE0008095709561957F4F8F4F9F4F0895E89441
:100CF00009C097FB3EF490958095709561957F4F64
:100D00008F4F9F4F9923A9F0F92F96E9BB27939511
:100D1000F695879577956795B795F111F8CFFAF421
:100D2000BB0F11F460FF1BC06F5F7F4F8F4F9F4F52
:100D300016C0882311F096E911C0772321F09EE8B0
:100D4000872F762F05C0662371F096E8862F70E016
:100D500060E02AF09A95660F771F881FDAF7880FF0
:100D60009695879597F9089597F99F6780E870E0C1
:100D700060E008959FEF80EC089500240A94161611
:100D8000170618060906089500240A941216130679
:100D9000140605060895092E0394000C11F4882307
:100DA00052F0BB0F40F4BF2B11F460FF04C06F5F23
:100DB0007F4F8F4F9F4F089557FD9058440F551FF9
:100DC00059F05F3F71F04795880F97FB991F61F0CD
:100DD0009F3F79F087950895121613061406551F44
:100DE000F2CF4695F1DF08C0161617061806991FB0
:100DF000F1CF86957105610508940895E894BB27A5
:100E000066277727CB0197F908950BD0C4CFB5DFBC
:100E100028F0BADF18F0952309F0A6CFABCF112444
:100E2000EECFCADFA0F3959FD1F3950F50E0551F89
:100E3000629FF001729FBB27F00DB11D639FAA272F
:100E4000F00DB11DAA1F649F6627B00DA11D661F7E
:100E5000829F2227B00DA11D621F739FB00DA11D9F
:100E6000621F839FA00D611D221F749F3327A00D59
:100E7000611D231F849F600D211D822F762F6A2FF5
:100E800011249F5750408AF0E1F088234AF0EE0F7A
:100E9000FF1FBB1F661F771F881F91505040A9F787
:100EA0009E3F510570F060CFAACF5F3FECF3983EB4
:100EB000DCF3869577956795B795F795E7959F5FEE
:100EC000C1F7FE2B880F911D9695879597F9089588
:100ED0009F9305D00F9007FCEE5F31C04BCF74DFBE
:100EE000E8F3E894EFEFBB273FE048EC5FE76B3DAA
:100EF00073078407950708F1FF279F57B25A6A4D79
:100F00007F40894CF04032F4BE556542704F8643B5
:100F1000FF4F0894EE1F915030F0BB0F661F771FF4
:100F2000881FFF1FEBCF9EE7882332F0BB0F661FA1
:100F3000771F881F9A95C1F79395E09511C0EF939D
:100F4000E0FF06C0A2EA2AED3FE049EC5FEB50DE8D
:100F500022DF0F90039401FC9058E8E6F0E010C007
:100F60009F3F49F0915028F4869577956795B795FE
:100F70009F5F80389F4F880F9695879597F90895C2
:100F80009F938F937F936F93FF93EF939B01AC019C
:100F90003CDFEF91FF9105D02F913F914F915F91F1
:100FA00034CFDF93CF931F930F93FF92EF92DF9293
:100FB0007B018C01689405C0DA2EEF0132DFFE015F
:100FC000E894A5912591359145915591AEF3EF01A6
:100FD0000FDEFE019701A801DA9479F7DF90EF9018
:100FE000FF900F911F91CF91DF910895629FD001E3
:100FF000739FF001829FE00DF11D649FE00DF11DD4
:10100000929FF00D839FF00D749FF00D659FF00D82
:101010009927729FB00DE11DF91F639FB00DE11D6F
:10102000F91FBD01CF0111240895A1E21A2EAA1BB8
:10103000BB1BFD010DC0AA1FBB1FEE1FFF1FA21788
:10104000B307E407F50720F0A21BB30BE40BF50B85
:10105000661F771F881F991F1A9469F7609570950E
:10106000809590959B01AC01BD01CF01089597FB40
:10107000092E05260ED057FD04D0D7DF0AD0001C5C
:1010800038F450954095309521953F4F4F4F5F4F25
:101090000895F6F790958095709561957F4F8F4FE5
:1010A0009F4F0895EE0FFF1F0590F491E02D0994D6
:1010B0002F923F924F925F926F927F928F929F9268
:1010C000AF92BF92CF92DF92EF92FF920F931F9356
:1010D000CF93DF93CDB7DEB7CA1BDB0B0FB6F89407
:1010E000DEBF0FBECDBF09942A88398848885F8447
:1010F0006E847D848C849B84AA84B984C884DF80B8
:10110000EE80FD800C811B81AA81B981CE0FD11D9B
:101110000FB6F894DEBF0FBECDBFED010895F89471
:02112000FFCFFF
:1011220001000000400000000079040F050F044098
:0611320004200469040022
:00000001FF
