:100000000C9435000C945D000C945D000C945D0024
:100010000C945D000C945D000C945D000C945D00EC
:100020000C945D000C945D000C945D000C94F60043
:100030000C945D000C945D000C945D000C945D00CC
:100040000C94D0010C945D000C94BC020C940A0337
:100050000C945D000C945D000C945D000C945D00AC
:100060000C945D000C945D00760411241FBECFEF4C
:10007000D8E0DEBFCDBF11E0A0E0B1E0E6EBFFE0ED
:1000800002C005900D92AE32B107D9F711E0AEE291
:10009000B1E001C01D92A13EB107E1F710E0CAE650
:1000A000D0E004C02297FE010E94D507C836D107D0
:1000B000C9F70E94AC020C94D9070C940000FC0113
:1000C00088279927E89421912032E9F3293010F00C
:1000D0002E30C8F32B3241F02D3239F4689404C02D
:1000E0000E947D00820F911D219120532A30C0F380
:1000F0001EF4909581959F4F08957AE0979F902DDB
:10010000879F802D910D112408956F927F928F9279
:100110009F92AF92BF92CF92DF92EF92FF920F9396
:100120001F9349015A012FB72F772FBF40E8E42EC4
:10013000F12CF701108201E810E0F801108236E896
:10014000C32ED12CF6011182108228E8622E712C68
:10015000F3011182108220E030E040E851E40E9477
:100160002F079B01AC0160E074E284E79BE40E94EE
:1001700008060E947006F60171836083C501B40110
:1001800020E030E048EC52E40E9408060E9470062D
:10019000882777FD8095982F2FEF3FEF40E050E0C4
:1001A0000E949207F30171836083F801808180616E
:1001B0008083F701808180688083EFE6F0E08081B2
:1001C00082608083F8018081836080838FB780683C
:1001D0008FBF1F910F91FF90EF90DF90CF90BF9056
:1001E000AF909F908F907F906F9008951F920F9285
:1001F0000FB60F9211248F939F9385B190E28927B8
:1002000085B99F918F910F900FBE0F901F901895F9
:10021000DF92EF92FF920F931F93DF93CF93CDB7AF
:10022000DEB764970FB6F894DEBF0FBECDBF8FEB7D
:1002300091E00E9426048FEB91E00E94FD03D82EEE
:100240008FEB91E00E94CC0318161906CCF764E6F8
:1002500070E080E090E00E94180200E010E07E0173
:100260000894E11CF11C12C08DE0D81629F4F701A6
:10027000E00FF11F10820AC08FEB91E00E94FD0396
:10028000F701E00FF11F80830F5F1F4F8FEB91E0AD
:100290000E94CC03181619063CF3CE010196080FF4
:1002A000191FF80110820E945F0064960FB6F8943F
:1002B000DEBF0FBECDBFCF91DF911F910F91FF9099
:1002C000EF90DF9008956CED75E080E090E00E9483
:1002D00018028FEB91E060E071E00E94F5056AE0A2
:1002E00070E080E090E00E9418020E940801909364
:1002F0001D0180931C0160911C0170911D018FEB09
:1003000091E04AE050E00E94D60560911C01709196
:100310001D01882777FD8095982F0E94A3069B01D9
:10032000AC0160E070E080EA91E40E948500FFCFBC
:10033000AF92BF92CF92DF92EF92FF920F931F93F3
:100340008FEB91E040E855E260E070E00E944503E9
:10035000259A60911A0170911B01E0901C01F090A8
:100360001D01882777FD8095982F0E94A3065B01C9
:100370006C010027F7FC0095102FC801B7010E94FF
:10038000A3069B01AC01C601B5010E9485001F9127
:100390000F91FF90EF90DF90CF90BF90AF900895B6
:1003A0001F920F920FB60F9211242F933F938F93AA
:1003B0009F93AF93BF938091320190913301A091AD
:1003C0003401B0913501309136010196A11DB11D66
:1003D000232F2D5F2D3720F02D570196A11DB11D24
:1003E000209336018093320190933301A09334011E
:1003F000B093350180912E0190912F01A091300191
:10040000B09131010196A11DB11D80932E019093F1
:100410002F01A0933001B0933101BF91AF919F9113
:100420008F913F912F910F900FBE0F901F901895B5
:100430009B01AC017FB7F89480912E0190912F0120
:10044000A0913001B091310166B5A89B05C06F3F06
:1004500019F00196A11DB11D7FBFBA2FA92F982FAA
:100460008827860F911DA11DB11D62E0880F991F7D
:10047000AA1FBB1F6A95D1F7BC012DC0FFB7F89426
:1004800080912E0190912F01A0913001B091310106
:10049000E6B5A89B05C0EF3F19F00196A11DB11D5F
:1004A000FFBFBA2FA92F982F88278E0F911DA11D4E
:1004B000B11DE2E0880F991FAA1FBB1FEA95D1F773
:1004C000861B970B885E9340C8F221503040404015
:1004D000504068517C4F211531054105510571F699
:1004E0000895789484B5826084BD84B5816084BDAC
:1004F00085B5826085BD85B5816085BDEEE6F0E09D
:10050000808181608083E1E8F0E0108280818260F8
:100510008083808181608083E0E8F0E08081816079
:100520008083E1EBF0E0808184608083E0EBF0E0A9
:10053000808181608083EAE7F0E08081846080834D
:1005400080818260808380818160808380818068F7
:1005500080831092C1000895CF93DF930E947102AF
:100560000E949801C7EFD2E00E9463012097E1F357
:100570000E94F702F9CF08951F920F920FB60F92C3
:1005800011242F933F934F938F939F93EF93FF9358
:100590008091C00082FD1DC04091C600209177016E
:1005A000309178012F5F3F4F2F7330708091790128
:1005B00090917A012817390771F0E0917701F09155
:1005C0007801E95CFE4F40833093780120937701F6
:1005D00002C08091C600FF91EF919F918F914F9142
:1005E0003F912F910F900FBE0F901F901895E091A3
:1005F000CB01F091CC01E05CFF4F81919191208182
:100600003181821B930B8F739070892B11F00E94A4
:10061000BB0208951F920F920FB60F9211242F93D1
:100620003F938F939F93EF93FF932091BB01309162
:10063000BC018091BD019091BE012817390731F4AA
:100640008091C1008F7D8093C10014C0E091BD01F5
:10065000F091BE01E558FE4F20818091BD0190913F
:10066000BE0101968F7390709093BE018093BD017F
:100670002093C600FF91EF919F918F913F912F9111
:100680000F900FBE0F901F901895AF92BF92DF9200
:10069000EF92FF920F931F93CF93DF93EC017A01B8
:1006A0008B01DD24403081EE580780E0680780E050
:1006B000780711F0DD24D39491E0A92EB12CEC89B8
:1006C000FD89DD2069F0C50108A002C0880F991FCF
:1006D0000A94E2F7808360E079E08DE390E005C062
:1006E000108260E874E88EE190E0A80197010E9412
:1006F000B1072150304040405040569547953795BE
:10070000279580E12030380720F0DD2011F0DD242E
:10071000D6CFE889F9893083EA89FB89208319A239
:10072000EE89FF89408121E030E0C9010C8C02C0D4
:10073000880F991F0A94E2F7482B4083EE89FF89BE
:100740004081C9010D8C02C0880F991F0A94E2F7FD
:10075000482B4083EE89FF894081C9010E8C02C07D
:10076000880F991F0A94E2F7482B4083EE89FF898E
:1007700080810F8C02C0220F331F0A94E2F720956C
:1007800028232083DF91CF911F910F91FF90EF904D
:10079000DF90BF90AF900895DC011C96ED91FC9125
:1007A0001D97E05CFF4F2191319180819181281B41
:1007B000390B2F733070C9010895DC011C96ED913F
:1007C000FC911D97E05CFF4F20813181E054F040A7
:1007D000DF01AE5BBF4F8D919C91119728173907B0
:1007E00019F42FEF3FEF07C08D919C91E80FF91F8F
:1007F0008081282F30E0C9010895DC011C96ED911D
:10080000FC911D97E05CFF4F20813181E054F04066
:10081000DF01AE5BBF4F8D919C911197281739076F
:1008200019F42FEF3FEF10C08D919C911197E80FB5
:10083000F91F20818D919C91119701968F73907073
:1008400011969C938E9330E0C9010895DC01919636
:100850008C919197882339F05496ED91FC9155979E
:10086000808186FFF9CF91961C920895CF93DF93F4
:10087000EC01EE85FF85E05CFF4F20813181E05483
:10088000F0402F5F3F4F2F733070DF01AE5BBF4FE3
:100890008D919C91119728173907D1F3E05CFF4F98
:1008A00080819181E054F040E80FF91F6083EE856C
:1008B000FF85E05CFF4F31832083EE89FF89208133
:1008C00081E090E00F8C02C0880F991F0A94E2F734
:1008D000282B208381E089A3EC89FD8980818064B5
:1008E000808381E090E0DF91CF9108951092C20162
:1008F0001092C10188EE93E0A0E0B0E08093C301C4
:100900009093C401A093C501B093C60182E291E027
:100910009093C0018093BF0187E391E09093CC0155
:100920008093CB018BE791E09093CE018093CD0132
:1009300085EC90E09093D0018093CF0184EC90E01F
:100940009093D2018093D10180EC90E09093D401F8
:100950008093D30181EC90E09093D6018093D501F0
:1009600082EC90E09093D8018093D70186EC90E0E0
:100970009093DA018093D90184E08093DB0183E0D6
:100980008093DC0187E08093DD0185E08093DE01C8
:1009900081E08093DF010895CF92DF92EF92FF9282
:1009A0000F931F93CF93DF937C016B018A01C0E00B
:1009B000D0E00FC0D6016D916D01D701ED91FC9192
:1009C0000190F081E02DC7010995C80FD91F015092
:1009D00010400115110571F7CE01DF91CF911F91E4
:1009E0000F91FF90EF90DF90CF900895EF92FF92DC
:1009F0000F931F938C01DC01ED91FC910190F0812C
:100A0000E02D6DE009957C01D801ED91FC910190FC
:100A1000F081E02DC8016AE009959C012E0D3F1D73
:100A2000C9011F910F91FF90EF900895CF93DF932D
:100A3000EC016115710519F420E030E00FC0DB0115
:100A40000D900020E9F71197A61BB70BE881F981FB
:100A50000280F381E02DAD0109959C01C901DF9170
:100A6000CF9108954F925F927F928F929F92AF9213
:100A7000BF92CF92DF92EF92FF920F931F93DF937B
:100A8000CF93CDB7DEB7A1970FB6F894DEBF0FBEF8
:100A9000CDBF2C01742ECB01223008F42AE019A21C
:100AA00031E2C32ED12CCC0EDD1E822E9924AA2435
:100AB000BB24672D752FA50194010E94B107790110
:100AC0008A01C801B701A50194010E949207472D30
:100AD000461B0894C108D1084A3014F4405D01C097
:100AE000495CF6014083E114F1040105110521F090
:100AF0007E2C5F2DC801DDCFC201B6010E94160514
:100B0000A1960FB6F894DEBF0FBECDBFCF91DF9197
:100B10001F910F91FF90EF90DF90CF90BF90AF901B
:100B20009F908F907F905F904F900895CF92DF922B
:100B3000EF92FF920F931F93CF93DF93EC016A0123
:100B40007B012115310541F4E881F9810190F081A3
:100B5000E02D642F09951FC02A303105D1F477FFAD
:100B600017C0E881F9810190F081E02D6DE20995CF
:100B70008C0144275527BA014C195D096E097F097C
:100B8000CE012AE00E9432059801280F391F04C0C7
:100B90002AE00E9432059C01C901DF91CF911F918B
:100BA0000F91FF90EF90DF90CF900895CF92DF925A
:100BB000EF92FF920F931F936C017B019A01002724
:100BC000F7FC0095102FB801A7010E9496058C0133
:100BD000C6010E94F604080F191FC8011F910F914A
:100BE000FF90EF90DF90CF900895EF92FF920F93D8
:100BF0001F937C010E9416058C01C7010E94F60418
:100C0000080F191FC8011F910F91FF90EF900895D1
:100C10000CD0EBC0E3D040F0DAD030F021F45F3FED
:100C200019F0CCC0511115C1CFC0F0D098F3992361
:100C3000C9F35523B1F3951B550BBB27AA276217A0
:100C40007307840738F09F5F5F4F220F331F441FE5
:100C5000AA1FA9F333D00E2E3AF0E0E830D091501D
:100C60005040E695001CCAF729D0FE2F27D0660F0A
:100C7000771F881FBB1F261737074807AB07B0E849
:100C800009F0BB0B802DBF01FF2793585F4F2AF05F
:100C90009E3F510568F092C0DCC05F3FECF3983E88
:100CA000DCF3869577956795B795F7959F5FC9F7BC
:100CB000880F911D9695879597F90895E1E0660F45
:100CC000771F881FBB1F621773078407BA0720F0BE
:100CD000621B730B840BBA0BEE1F88F7E095089527
:100CE00004D06894B111B5C0089598D088F09F578A
:100CF00090F0B92F9927B751A0F0D1F0660F771F68
:100D0000881F991F1AF0BA95C9F712C0B13081F047
:100D10009FD0B1E008959CC0672F782F8827B85FD7
:100D200039F0B93FCCF3869577956795B395D9F7A8
:100D30003EF490958095709561957F4F8F4F9F4FB2
:100D40000895E89409C097FB3EF4909580957095BE
:100D500061957F4F8F4F9F4F9923A9F0F92F96E907
:100D6000BB279395F695879577956795B795F1117C
:100D7000F8CFFAF4BB0F11F460FF1BC06F5F7F4F19
:100D80008F4F9F4F16C0882311F096E911C077232B
:100D900021F09EE8872F762F05C0662371F096E834
:100DA000862F70E060E02AF09A95660F771F881F03
:100DB000DAF7880F9695879597F9089597F99F67C1
:100DC00080E870E060E008959FEF80EC08950024D3
:100DD0000A941616170618060906089500240A94A0
:100DE00012161306140605060895092E0394000C26
:100DF00011F4882352F0BB0F40F4BF2B11F460FFB5
:100E000004C06F5F7F4F8F4F9F4F089557FD9058DD
:100E1000440F551F59F05F3F71F04795880F97FBBE
:100E2000991F61F09F3F79F0879508951216130678
:100E30001406551FF2CF4695F1DF08C016161706A7
:100E40001806991FF1CF86957105610508940895DC
:100E5000E894BB2766277727CB0197F908950BD035
:100E6000C4CFB5DF28F0BADF18F0952309F0A6CF7C
:100E7000ABCF1124EECFCADFA0F3959FD1F3950F2E
:100E800050E0551F629FF001729FBB27F00DB11D0E
:100E9000639FAA27F00DB11DAA1F649F6627B00D9E
:100EA000A11D661F829F2227B00DA11D621F739F87
:100EB000B00DA11D621F839FA00D611D221F749F95
:100EC0003327A00D611D231F849F600D211D822FDC
:100ED000762F6A2F11249F5750408AF0E1F0882323
:100EE0004AF0EE0FFF1FBB1F661F771F881F915030
:100EF0005040A9F79E3F510570F060CFAACF5F3FE9
:100F0000ECF3983EDCF3869577956795B795F79562
:100F1000E7959F5FC1F7FE2B880F911D96958795EA
:100F200097F90895629FD001739FF001829FE00DB1
:100F3000F11D649FE00DF11D929FF00D839FF00D58
:100F4000749FF00D659FF00D9927729FB00DE11D04
:100F5000F91F639FB00DE11DF91FBD01CF011124E1
:100F60000895A1E21A2EAA1BBB1BFD010DC0AA1FEA
:100F7000BB1FEE1FFF1FA217B307E407F50720F002
:100F8000A21BB30BE40BF50B661F771F881F991F7D
:100F90001A9469F760957095809590959B01AC01C6
:100FA000BD01CF010895EE0FFF1F0590F491E02DD4
:060FB0000994F894FFCF44
:100FB600456E7465722044757479204379636C6557
:100FC6002028302D3130302529001400460000003D
:0E0FD60000003604CC04CC03FD03DD0326042A
:00000001FF
