:100000000C9435000C945D000C945D000C945D0024
:100010000C945D000C945D000C945D000C945D00EC
:100020000C945D000C945D000C945D000C945F00DA
:100030000C945D000C945D000C945D000C945D00CC
:100040000C947D030C945D000C9443010C9491017D
:100050000C945D000C945D000C945D000C945D00AC
:100060000C945D000C945D00FD0211241FBECFEFC7
:10007000D8E0DEBFCDBF12E0A0E0B1E0EAE8F8E0F2
:1000800002C005900D92A631B107D9F712E0A6E1A2
:10009000B2E001C01D92AD3CB107E1F710E0CAE645
:1000A000D0E004C02297FE010E943F04C836D10769
:1000B000C9F70E9433010C9443040C9400001F9272
:1000C0000F920FB60F9211248F939F93EF93FF938C
:1000D00080910101803410F01092010180910101A2
:1000E00090E0880F991FE0911802F0911902E80F33
:1000F000F91F0190F081E02D80818093160280919C
:10010000020190910301909389008093880080916F
:100110001602880F880F80931602809100018AB919
:10012000809116028BB9809101018F5F809301014C
:10013000FF91EF919F918F910F900FBE0F901F90A5
:10014000189580E00E941101892F990F990B8093D7
:10015000170280911702882341F4E0911802F09170
:10016000190284E091E091838083809117028130AD
:1001700041F4E0911802F091190284E491E0918336
:10018000808380911702823041F4E0911802F0914F
:10019000190284E891E09183808380911702833073
:1001A00041F4E0911802F091190284EC91E09183FE
:1001B000808308958FB78F778FBF10928000E1E81A
:1001C000F0E0108281E0808310928500109284001C
:1001D00080818860808382E080936F00209102019B
:1001E0003091030140E050E060E970ED83E090E081
:1001F0000E94220430938900209388008FB7806882
:100200008FBF8CEF8AB98BB183708BB9249A2C98ED
:1002100082EA92E040E855E260E070E00E94CC01A2
:100220000895982F8E3008F09E50977080910402A8
:100230008295880F880F807C892B80937C00809129
:100240007A00806480937A0080917A0086FDFCCFEA
:100250002091780040917900942F80E030E0282BA5
:10026000392BC9010895CF93DF930E94C5030E94E3
:10027000DA00CEE7D1E00E94A1002097E1F30E94CE
:100280007E01F9CF08951F920F920FB60F9211249D
:100290002F933F934F938F939F93EF93FF9380916F
:1002A000C00082FD1DC04091C60020915A023091CD
:1002B0005B022F5F3F4F2F73307080915C029091F3
:1002C0005D022817390771F0E0915A02F0915B0244
:1002D000E65EFD4F408330935B0220935A0202C0DA
:1002E0008091C600FF91EF919F918F914F913F9127
:1002F0002F910F900FBE0F901F901895E091AE02B6
:10030000F091AF02E05CFF4F8191919120813181AA
:10031000821B930B8F739070892B11F00E94420106
:1003200008951F920F920FB60F9211242F933F93AF
:100330008F939F93EF93FF9320919E0230919F02A2
:100340008091A0029091A1022817390731F4809181
:10035000C1008F7D8093C10014C0E091A002F09194
:10036000A102E25AFD4F20818091A0029091A1024A
:1003700001968F7390709093A1028093A0022093B6
:10038000C600FF91EF919F918F913F912F910F9018
:100390000FBE0F901F901895AF92BF92DF92EF9211
:1003A000FF920F931F93CF93DF93EC017A018B01A0
:1003B000DD24403081EE580780E0680780E0780750
:1003C00011F0DD24D39491E0A92EB12CEC89FD89A4
:1003D000DD2069F0C50108A002C0880F991F0A94AA
:1003E000E2F7808360E079E08DE390E005C0108261
:1003F00060E874E88EE190E0A80197010E94000493
:1004000021503040404050405695479537952795AC
:1004100080E12030380720F0DD2011F0DD24D6CF38
:10042000E889F9893083EA89FB89208319A2EE895A
:10043000FF89408121E030E0C9010C8C02C0880FA7
:10044000991F0A94E2F7482B4083EE89FF89408187
:10045000C9010D8C02C0880F991F0A94E2F7482B3E
:100460004083EE89FF894081C9010E8C02C0880F4C
:10047000991F0A94E2F7482B4083EE89FF89808117
:100480000F8C02C0220F331F0A94E2F72095282315
:100490002083DF91CF911F910F91FF90EF90DF901C
:1004A000BF90AF900895DC011C96ED91FC911D97D3
:1004B000E05CFF4F2191319180819181281B390BA4
:1004C0002F733070C9010895DC011C96ED91FC91E9
:1004D0001D97E05CFF4F20813181E054F040DF0147
:1004E000AE5BBF4F8D919C9111972817390719F476
:1004F0002FEF3FEF07C08D919C91E80FF91F80818E
:10050000282F30E0C9010895DC011C96ED91FC9183
:100510001D97E05CFF4F20813181E054F040DF0106
:10052000AE5BBF4F8D919C9111972817390719F435
:100530002FEF3FEF10C08D919C911197E80FF91F9D
:1005400020818D919C91119701968F7390701196D7
:100550009C938E9330E0C9010895DC0191968C91B3
:100560009197882339F05496ED91FC9155978081AD
:1005700086FFF9CF91961C920895CF93DF93EC01FB
:10058000EE85FF85E05CFF4F20813181E054F04033
:100590002F5F3F4F2F733070DF01AE5BBF4F8D91E8
:1005A0009C91119728173907D1F3E05CFF4F8081A8
:1005B0009181E054F040E80FF91F6083EE85FF85DC
:1005C000E05CFF4F31832083EE89FF89208181E049
:1005D00090E00F8C02C0880F991F0A94E2F7282B35
:1005E000208381E089A3EC89FD89808180648083F8
:1005F00081E090E0DF91CF9108951092A5021092D2
:10060000A40288EE93E0A0E0B0E08093A60290936D
:10061000A702A093A802B093A90289E092E0909368
:10062000A3028093A2028AE192E09093AF028093AA
:10063000AE028EE592E09093B1028093B00285EC19
:1006400090E09093B3028093B20284EC90E0909398
:10065000B5028093B40280EC90E09093B70280934F
:10066000B60281EC90E09093B9028093B80282ECDC
:1006700090E09093BB028093BA0286EC90E0909356
:10068000BD028093BC0284E08093BE0283E080932D
:10069000BF0287E08093C00285E08093C10281E0C1
:1006A0008093C2020895CF92DF92EF92FF920F9350
:1006B0001F93CF93DF937C016B018A01C0E0D0E0F0
:1006C0000FC0D6016D916D01D701ED91FC910190A4
:1006D000F081E02DC7010995C80FD91F01501040C6
:1006E0000115110571F7CE01DF91CF911F910F9187
:1006F000FF90EF90DF90CF9008951F920F920FB66A
:100700000F9211242F933F938F939F93AF93BF9397
:100710008091C8029091C902A091CA02B091CB0207
:100720003091CC020196A11DB11D232F2D5F2D37D5
:1007300020F02D570196A11DB11D2093CC0280936E
:10074000C8029093C902A093CA02B093CB028091D1
:10075000C4029091C502A091C602B091C702019651
:10076000A11DB11D8093C4029093C502A093C6023F
:10077000B093C702BF91AF919F918F913F912F91FD
:100780000F900FBE0F901F901895789484B58260DB
:1007900084BD84B5816084BD85B5826085BD85B525
:1007A000816085BDEEE6F0E0808181608083E1E8D4
:1007B000F0E010828081826080838081816080830C
:1007C000E0E8F0E0808181608083E1EBF0E080810F
:1007D00084608083E0EBF0E0808181608083EAE7E1
:1007E000F0E080818460808380818260808380816A
:1007F000816080838081806880831092C100089529
:10080000A1E21A2EAA1BBB1BFD010DC0AA1FBB1F14
:10081000EE1FFF1FA217B307E407F50720F0A21B86
:10082000B30BE40BF50B661F771F881F991F1A94F3
:1008300069F760957095809590959B01AC01BD011D
:10084000CF01089597FB092E05260ED057FD04D041
:10085000D7DF0AD0001C38F450954095309521958B
:100860003F4F4F4F5F4F0895F6F7909580957095E5
:1008700061957F4F8F4F9F4F0895EE0FFF1F05909B
:0A088000F491E02D0994F894FFCFE5
:10088A004001BA03202326292C2F313436383A3C2A
:10089A003D3E3F3F3F3F3F3E3D3C3A383634312FA5
:1008AA002C292623201D1A1714110F0C0A080604D6
:1008BA000302010100010102030406080A0C0F11D8
:1008CA0014171A1D000000000000000000000000BC
:1008DA00000000000000000000000000000000000E
:1008EA00000000003F3F3F3F3F3F3F3F3F3F3F3F0A
:1008FA003F3F3F3F3F3F3F3F3F3F3F3F3F3F3F3FFE
:10090A003F3F3F0000020406080A0C0E101214169C
:10091A00181A1C1E20222426282A2C2E303234365D
:10092A00383A3C3E3E3C3A38363432302E2C2A286D
:10093A00262422201E1C1A18161412100E0C0A083D
:10094A0006040200000102030405060708090A0B4F
:10095A000C0D0E0F101112131415161718191A1B55
:10096A001C1D1E1F202122232425262728292A2B45
:10097A002C2D2E2F303132333435363738393A3B35
:10098A003C3D3E3F0100000000BD02530353028478
:06099A00026402AD020040
:00000001FF
