:100000000C9435000C945D000C945D000C945D0024
:100010000C945D000C945D000C945D000C945D00EC
:100020000C945D000C945D000C945D000C945D00DC
:100030000C945D000C945D000C945D000C945D00CC
:100040000C9447040C945D000C94C1000C940F01B7
:100050000C945D000C945D000C945D000C945D00AC
:100060000C945D000C945D007B0211241FBECFEF49
:10007000D8E0DEBFCDBF11E0A0E0B1E0E6E2FAE0FB
:1000800002C005900D92A037B107D9F712E0A0E7A2
:10009000B1E001C01D92A332B107E1F710E0CAE65A
:1000A000D0E004C02297FE010E940D05C836D1079A
:1000B000C9F70E94B1000C9411050C9400000F9335
:1000C0001F93DF93CF9300D0CDB7DEB78BEA9CEFC1
:1000D0009A838983198288EF91E060E071E00E9441
:1000E000440488EF91E08E010F5F1F4FB80140E19B
:1000F00050E00E94250488EF91E069E171E00E94E0
:10010000440488EF91E0B80140E150E00E942504EA
:1001100088EF91E00E94FB0288EF91E062E371E0DA
:100120000E94440469817A8188EF91E040E150E0C7
:100130000E94AA0388EF91E069E471E00E94440400
:1001400088EF91E0698140E150E00E94C703FFCF52
:1001500088EF91E040E855E260E070E00E944A01DB
:100160000895CF93DF930E948F040E94A800CCEFE4
:10017000D0E00E945F002097E1F30E94FC00F9CFDD
:1001800008951F920F920FB60F9211242F933F9351
:100190004F938F939F93EF93FF938091C00082FDC5
:1001A0001DC04091C6002091B0013091B1012F5F78
:1001B0003F4F2F7330708091B2019091B301281797
:1001C000390771F0E091B001F091B101E059FE4FB3
:1001D00040833093B1012093B00102C08091C600EA
:1001E000FF91EF919F918F914F913F912F910F90A0
:1001F0000FBE0F901F901895E0910402F091050238
:10020000E05CFF4F8191919120813181821B930BA2
:100210008F739070892B11F00E94C00008951F9277
:100220000F920FB60F9211242F933F938F939F93AA
:10023000EF93FF932091F4013091F5018091F60145
:100240009091F7012817390731F48091C1008F7D13
:100250008093C10014C0E091F601F091F701EC54D5
:10026000FE4F20818091F6019091F70101968F73E6
:1002700090709093F7018093F6012093C600FF9150
:10028000EF919F918F913F912F910F900FBE0F9003
:100290001F901895AF92BF92DF92EF92FF920F934B
:1002A0001F93CF93DF93EC017A018B01DD24403063
:1002B00081EE580780E0680780E0780711F0DD24C0
:1002C000D39491E0A92EB12CEC89FD89DD2069F051
:1002D000C50108A002C0880F991F0A94E2F7808325
:1002E00060E079E08DE390E005C0108260E874E89A
:1002F0008EE190E0A80197010E94E904215030406E
:1003000040405040569547953795279580E12030DD
:10031000380720F0DD2011F0DD24D6CFE889F989F7
:100320003083EA89FB89208319A2EE89FF89408105
:1003300021E030E0C9010C8C02C0880F991F0A949B
:10034000E2F7482B4083EE89FF894081C9010D8C7B
:1003500002C0880F991F0A94E2F7482B4083EE8968
:10036000FF894081C9010E8C02C0880F991F0A9431
:10037000E2F7482B4083EE89FF8980810F8C02C011
:10038000220F331F0A94E2F7209528232083DF9160
:10039000CF911F910F91FF90EF90DF90BF90AF90A2
:1003A0000895DC011C96ED91FC911D97E05CFF4FD8
:1003B0002191319180819181281B390B2F733070ED
:1003C000C9010895DC011C96ED91FC911D97E05C3C
:1003D000FF4F20813181E054F040DF01AE5BBF4F21
:1003E0008D919C9111972817390719F42FEF3FEF42
:1003F00007C08D919C91E80FF91F8081282F30E074
:10040000C9010895DC011C96ED91FC911D97E05CFB
:10041000FF4F20813181E054F040DF01AE5BBF4FE0
:100420008D919C9111972817390719F42FEF3FEF01
:1004300010C08D919C911197E80FF91F20818D912B
:100440009C91119701968F73907011969C938E9347
:1004500030E0C9010895DC0191968C919197882331
:1004600039F05496ED91FC915597808186FFF9CF34
:1004700091961C920895CF93DF93EC01EE85FF8552
:10048000E05CFF4F20813181E054F0402F5F3F4F0F
:100490002F733070DF01AE5BBF4F8D919C91119730
:1004A00028173907D1F3E05CFF4F80819181E05438
:1004B000F040E80FF91F6083EE85FF85E05CFF4F99
:1004C00031832083EE89FF89208181E090E00F8CC9
:1004D00002C0880F991F0A94E2F7282B208381E03D
:1004E00089A3EC89FD8980818064808381E090E02C
:1004F000DF91CF9108951092FB011092FA0188EEDE
:1005000093E0A0E0B0E08093FC019093FD01A09304
:10051000FE01B093FF0184E691E09093F90180938E
:10052000F80180E791E0909305028093040284EB48
:1005300091E0909307028093060285EC90E09093FF
:1005400009028093080284EC90E090930B02809360
:100550000A0280EC90E090930D0280930C0281ECF3
:1005600090E090930F0280930E0282EC90E09093C3
:1005700011028093100286EC90E090931302809316
:10058000120284E08093140283E08093150287E0D6
:100590008093160285E08093170281E08093180211
:1005A0000895CF92DF92EF92FF920F931F93CF9314
:1005B000DF937C016B018A01C0E0D0E00FC0D6015F
:1005C0006D916D01D701ED91FC910190F081E02DCD
:1005D000C7010995C80FD91F015010400115110519
:1005E00071F7CE01DF91CF911F910F91FF90EF90A6
:1005F000DF90CF900895EF92FF920F931F938C019D
:10060000DC01ED91FC910190F081E02D6DE0099508
:100610007C01D801ED91FC910190F081E02DC801A1
:100620006AE009959C012E0D3F1DC9011F910F9194
:10063000FF90EF900895CF93DF93EC016115710562
:1006400019F420E030E00FC0DB010D900020E9F745
:100650001197A61BB70BE881F9810280F381E02D89
:10066000AD0109959C01C901DF91CF9108954F9289
:100670005F927F928F929F92AF92BF92CF92DF92C2
:10068000EF92FF920F931F93DF93CF93CDB7DEB717
:10069000A1970FB6F894DEBF0FBECDBF2C01742E0C
:1006A000CB01223008F42AE019A231E2C32ED12C6A
:1006B000CC0EDD1E822E9924AA24BB24672D752F13
:1006C000A50194010E94E90479018A01C801B701DA
:1006D000A50194010E94CA04472D461B0894C10835
:1006E000D1084A3014F4405D01C0495CF6014083F2
:1006F000E114F1040105110521F07E2C5F2DC801E4
:10070000DDCFC201B6010E941B03A1960FB6F8947B
:10071000DEBF0FBECDBFCF91DF911F910F91FF9034
:10072000EF90DF90CF90BF90AF909F908F907F9091
:100730005F904F900895DC012115310541F4ED9152
:10074000FC910190F081E02D642F099508950E949D
:1007500037030895CF92DF92EF92FF920F931F938A
:100760006C017B019A0100E010E0B801A7010E9432
:100770009B038C01C6010E94FB02080F191FC801D0
:100780001F910F91FF90EF90DF90CF900895CF923F
:10079000DF92EF92FF920F931F936C01E62E9A0166
:1007A000FF2400E010E0B801A7010E949B038C0128
:1007B000C6010E94FB02080F191FC8011F910F916B
:1007C000FF90EF90DF90CF900895CF92DF92EF925D
:1007D000FF920F931F93CF93DF93EC016A017B018C
:1007E0002115310541F4E881F9810190F081E02D76
:1007F000642F09951FC02A303105D1F477FF17C047
:10080000E881F9810190F081E02D6DE209958C017C
:1008100044275527BA014C195D096E097F09CE019D
:100820002AE00E9437039801280F391F04C02AE0EC
:100830000E9437039C01C901DF91CF911F910F9155
:10084000FF90EF90DF90CF900895CF92DF92EF92DC
:10085000FF920F931F936C017B019A010027F7FC15
:100860000095102FB801A7010E94E5038C01C60175
:100870000E94FB02080F191FC8011F910F91FF90E2
:10088000EF90DF90CF9008950E941B0308951F9270
:100890000F920FB60F9211242F933F938F939F9334
:1008A000AF93BF9380911E0290911F02A0912002EE
:1008B000B0912102309122020196A11DB11D232F7A
:1008C0002D5F2D3720F02D570196A11DB11D2093CE
:1008D000220280931E0290931F02A0932002B093E5
:1008E000210280911A0290911B02A0911C02B091EA
:1008F0001D020196A11DB11D80931A0290931B0247
:10090000A0931C02B0931D02BF91AF919F918F9154
:100910003F912F910F900FBE0F901F9018957894D4
:1009200084B5826084BD84B5816084BD85B58260F4
:1009300085BD85B5816085BDEEE6F0E08081816092
:100940008083E1E8F0E01082808182608083808192
:1009500081608083E0E8F0E0808181608083E1EB6A
:10096000F0E0808184608083E0EBF0E08081816052
:100970008083EAE7F0E08081846080838081826008
:1009800080838081816080838081806880831092F1
:10099000C1000895629FD001739FF001829FE00D16
:1009A000F11D649FE00DF11D929FF00D839FF00DEE
:1009B000749FF00D659FF00D9927729FB00DE11D9A
:1009C000F91F639FB00DE11DF91FBD01CF01112477
:1009D0000895A1E21A2EAA1BBB1BFD010DC0AA1F80
:1009E000BB1FEE1FFF1FA217B307E407F50720F098
:1009F000A21BB30BE40BF50B661F771F881F991F13
:100A00001A9469F760957095809590959B01AC015B
:100A1000BD01CF010895EE0FFF1F0590F491E02D69
:060A20000994F894FFCFD9
:100A260041646472657373206F66206D79446174E6
:100A3600612E74696D653A20004164647265737352
:100A4600206F66206D79446174612E74656D703A0D
:100A5600200056616C7565206F66206D794461745F
:100A6600612E74696D653A200056616C7565206F5C
:100A760066206D79446174612E74656D703A20004C
:100A8600000000003B02D102D1010202E2012B026A
:00000001FF
