:100000000C9435000C945D000C945D000C945D0024
:100010000C945D000C945D000C945D000C945D00EC
:100020000C945D000C945D000C945D000C945D00DC
:100030000C945D000C945D000C945D000C945D00CC
:100040000C94C4020C945D000C948A000C94D800AB
:100050000C945D000C945D000C945D000C945D00AC
:100060000C945D000C945D00440211241FBECFEF80
:10007000D8E0DEBFCDBF11E0A0E0B1E0E2EEF6E0F7
:1000800002C005900D92A031B107D9F711E0A0E1AF
:10009000B1E001C01D92A43CB107E1F710E0CAE64F
:1000A000D0E004C02297FE010E946B03C836D1073E
:1000B000C9F70E947A000C946F030C94000089E940
:1000C00091E00E949A01892B59F089E991E00E9400
:1000D000CB01682F8093100189E991E00E9404020E
:1000E000089589E991E040E855E260E070E00E94FF
:1000F00013010895CF93DF930E940C030E947100B7
:10010000C5ECD0E00E945F002097E1F30E94C5009B
:10011000F9CF08951F920F920FB60F9211242F93CB
:100120003F934F938F939F93EF93FF938091C000E2
:1001300082FD1DC04091C6002091510130915201B5
:100140002F5F3F4F2F733070809153019091540176
:100150002817390771F0E0915101F0915201EF5EDB
:10016000FE4F4083309352012093510102C0809191
:10017000C600FF91EF919F918F914F913F912F91E9
:100180000F900FBE0F901F901895E091A501F09170
:10019000A601E05CFF4F8191919120813181821B0A
:1001A000930B8F739070892B11F00E948900089532
:1001B0001F920F920FB60F9211242F933F938F939C
:1001C0009F93EF93FF932091950130919601809139
:1001D0009701909198012817390731F48091C10057
:1001E0008F7D8093C10014C0E0919701F091980138
:1001F000EB5AFE4F208180919701909198010196D2
:100200008F73907090939801809397012093C6000C
:10021000FF91EF919F918F913F912F910F900FBE82
:100220000F901F901895AF92BF92DF92EF92FF92BE
:100230000F931F93CF93DF93EC017A018B01DD24A1
:10024000403081EE580780E0680780E0780711F0C1
:10025000DD24D39491E0A92EB12CEC89FD89DD2019
:1002600069F0C50108A002C0880F991F0A94E2F73F
:10027000808360E079E08DE390E005C0108260E863
:1002800074E88EE190E0A80197010E944703215095
:10029000304040405040569547953795279580E12E
:1002A0002030380720F0DD2011F0DD24D6CFE8899A
:1002B000F9893083EA89FB89208319A2EE89FF89B5
:1002C000408121E030E0C9010C8C02C0880F991FE9
:1002D0000A94E2F7482B4083EE89FF894081C901E7
:1002E0000D8C02C0880F991F0A94E2F7482B4083B7
:1002F000EE89FF894081C9010E8C02C0880F991FC9
:100300000A94E2F7482B4083EE89FF8980810F8CA5
:1003100002C0220F331F0A94E2F72095282320837E
:10032000DF91CF911F910F91FF90EF90DF90BF90E1
:10033000AF900895DC011C96ED91FC911D97E05C57
:10034000FF4F2191319180819181281B390B2F73AF
:100350003070C9010895DC011C96ED91FC911D9748
:10036000E05CFF4F20813181E054F040DF01AE5B63
:10037000BF4F8D919C9111972817390719F42FEFD2
:100380003FEF07C08D919C91E80FF91F8081282FC6
:1003900030E0C9010895DC011C96ED91FC911D9798
:1003A000E05CFF4F20813181E054F040DF01AE5B23
:1003B000BF4F8D919C9111972817390719F42FEF92
:1003C0003FEF10C08D919C911197E80FF91F20818C
:1003D0008D919C91119701968F73907011969C93BB
:1003E0008E9330E0C9010895DC0191968C9191972C
:1003F000882339F05496ED91FC915597808186FFC2
:10040000F9CF91961C920895CF93DF93EC01EE857E
:10041000FF85E05CFF4F20813181E054F0402F5F89
:100420003F4F2F733070DF01AE5BBF4F8D919C91BA
:10043000119728173907D1F3E05CFF4F8081918134
:10044000E054F040E80FF91F6083EE85FF85E05C23
:10045000FF4F31832083EE89FF89208181E090E086
:100460000F8C02C0880F991F0A94E2F7282B208373
:1004700081E089A3EC89FD8980818064808381E0AB
:1004800090E0DF91CF91089510929C0110929B0112
:1004900088EE93E0A0E0B0E080939D0190939E01F0
:1004A000A0939F01B093A00184E091E090939A0102
:1004B0008093990181E191E09093A6018093A50139
:1004C00085E591E09093A8018093A70185EC90E0E9
:1004D0009093AA018093A90184EC90E09093AC01E1
:1004E0008093AB0180EC90E09093AE018093AD01DE
:1004F00081EC90E09093B0018093AF0182EC90E0AA
:100500009093B2018093B10186EC90E09093B40196
:100510008093B30184E08093B50183E08093B601BA
:1005200087E08093B70185E08093B80181E08093F4
:10053000B9010895CF92DF92EF92FF920F931F932C
:10054000CF93DF937C016B018A01C0E0D0E00FC044
:10055000D6016D916D01D701ED91FC910190F08173
:10056000E02DC7010995C80FD91F01501040011592
:10057000110571F7CE01DF91CF911F910F91FF907F
:10058000EF90DF90CF9008951F920F920FB60F92C9
:1005900011242F933F938F939F93AF93BF93809199
:1005A000BF019091C001A091C101B091C2013091F1
:1005B000C3010196A11DB11D232F2D5F2D3720F002
:1005C0002D570196A11DB11D2093C3018093BF013A
:1005D0009093C001A093C101B093C2018091BB016F
:1005E0009091BC01A091BD01B091BE010196A11DE9
:1005F000B11D8093BB019093BC01A093BD01B0934A
:10060000BE01BF91AF919F918F913F912F910F901C
:100610000FBE0F901F901895789484B5826084BDAA
:1006200084B5816084BD85B5826085BD85B58160F6
:1006300085BDEEE6F0E0808181608083E1E8F0E056
:100640001082808182608083808181608083E0E885
:10065000F0E0808181608083E1EBF0E08081846064
:100660008083E0EBF0E0808181608083EAE7F0E066
:1006700080818460808380818260808380818160CA
:1006800080838081806880831092C1000895A1E2F8
:100690001A2EAA1BBB1BFD010DC0AA1FBB1FEE1FFC
:1006A000FF1FA217B307E407F50720F0A21BB30B47
:1006B000E40BF50B661F771F881F991F1A9469F7C3
:1006C00060957095809590959B01AC01BD01CF011F
:1006D0000895EE0FFF1F0590F491E02D0994F89412
:0206E000FFCF4A
:1006E2000000000004029A029A01CB01AB01F4015E
:00000001FF
