:100000000C9435000C945D000C945D000C945D0024
:100010000C945D000C945D000C945D000C945D00EC
:100020000C945D000C945D000C945D000C945D00DC
:100030000C945D000C945D000C945D000C945D00CC
:100040000C94C8000C945D000C94B4010C94020252
:100050000C945D000C945D000C945D000C945D00AC
:100060000C945D000C945D006E0311241FBECFEF55
:10007000D8E0DEBFCDBF11E0A0E0B1E0EEE7F0E1F7
:1000800002C005900D92A432B107D9F711E0A4E2A5
:10009000B1E001C01D92AD3DB107E1F710E0CAE645
:1000A000D0E004C02297FE010E943908C836D1076B
:1000B000C9F70E94A4010C943D080C9400000F9312
:1000C0001F9383E10E94A600909325018093240151
:1000D0006091240170912501882777FD8095982FE4
:1000E0000E94DB062AE038E240EA5BE30E948F07C9
:1000F0006093260170932701809328019093290132
:1001000040912601509127016091280170912901A9
:100110000BEB11E0C80122E030E00E94C105C801EC
:1001200060E071E00E94C40560ED77E080E090E05F
:100130000E9410011F910F9108958BEB91E040E810
:1001400055E260E070E00E943D020895982F8E30E5
:1001500008F09E509770809112018295880F880F49
:10016000807C892B80937C0080917A0080648093CE
:100170007A0080917A0086FDFCCF20917800409132
:100180007900942F80E030E0282B392BC9010895A5
:100190001F920F920FB60F9211242F933F938F93BC
:1001A0009F93AF93BF9380912E0190912F01A091C7
:1001B0003001B0913101309132010196A11DB11D84
:1001C000232F2D5F2D3720F02D570196A11DB11D36
:1001D0002093320180932E0190932F01A093300140
:1001E000B093310180912A0190912B01A0912C01B3
:1001F000B0912D010196A11DB11D80932A0190930C
:100200002B01A0932C01B0932D01BF91AF919F9131
:100210008F913F912F910F900FBE0F901F901895C7
:100220009B01AC017FB7F89480912A0190912B013A
:10023000A0912C01B0912D0166B5A89B05C06F3F20
:1002400019F00196A11DB11D7FBFBA2FA92F982FBC
:100250008827860F911DA11DB11D62E0880F991F8F
:10026000AA1FBB1F6A95D1F7BC012DC0FFB7F89438
:1002700080912A0190912B01A0912C01B0912D0128
:10028000E6B5A89B05C0EF3F19F00196A11DB11D71
:10029000FFBFBA2FA92F982F88278E0F911DA11D60
:1002A000B11DE2E0880F991FAA1FBB1FEA95D1F785
:1002B000861B970B885E9340C8F221503040404027
:1002C000504068517C4F211531054105510571F6AB
:1002D0000895789484B5826084BD84B5816084BDBE
:1002E00085B5826085BD85B5816085BDEEE6F0E0AF
:1002F000808181608083E1E8F0E01082808182600B
:100300008083808181608083E0E8F0E0808181608B
:100310008083E1EBF0E0808184608083E0EBF0E0BB
:10032000808181608083EAE7F0E08081846080835F
:100330008081826080838081816080838081806809
:1003400080831092C1000895CF93DF930E946901CA
:100350000E949D00CFEED1E00E945F002097E1F364
:100360000E94EF01F9CF08951F920F920FB60F92DE
:1003700011242F933F934F938F939F93EF93FF936A
:100380008091C00082FD1DC04091C6002091730184
:10039000309174012F5F3F4F2F7330708091750142
:1003A000909176012817390771F0E0917301F0916F
:1003B0007401ED5CFE4F4083309374012093730110
:1003C00002C08091C600FF91EF919F918F914F9154
:1003D0003F912F910F900FBE0F901F901895E091B5
:1003E000C701F091C801E05CFF4F8191919120819C
:1003F0003181821B930B8F739070892B11F00E94B7
:10040000B30108951F920F920FB60F9211242F93EC
:100410003F938F939F93EF93FF932091B701309178
:10042000B8018091B9019091BA012817390731F4C8
:100430008091C1008F7D8093C10014C0E091B9010B
:10044000F091BA01E958FE4F20818091B901909155
:10045000BA0101968F7390709093BA018093B9019D
:100460002093C600FF91EF919F918F913F912F9123
:100470000F900FBE0F901F901895AF92BF92DF9212
:10048000EF92FF920F931F93CF93DF93EC017A01CA
:100490008B01DD24403081EE580780E0680780E062
:1004A000780711F0DD24D39491E0A92EB12CEC89CA
:1004B000FD89DD2069F0C50108A002C0880F991FE1
:1004C0000A94E2F7808360E079E08DE390E005C074
:1004D000108260E874E88EE190E0A80197010E9424
:1004E000150821503040404050405695479537956B
:1004F000279580E12030380720F0DD2011F0DD2441
:10050000D6CFE889F9893083EA89FB89208319A24B
:10051000EE89FF89408121E030E0C9010C8C02C0E6
:10052000880F991F0A94E2F7482B4083EE89FF89D0
:100530004081C9010D8C02C0880F991F0A94E2F70F
:10054000482B4083EE89FF894081C9010E8C02C08F
:10055000880F991F0A94E2F7482B4083EE89FF89A0
:1005600080810F8C02C0220F331F0A94E2F720957E
:1005700028232083DF91CF911F910F91FF90EF905F
:10058000DF90BF90AF900895DC011C96ED91FC9137
:100590001D97E05CFF4F2191319180819181281B53
:1005A000390B2F733070C9010895DC011C96ED9151
:1005B000FC911D97E05CFF4F20813181E054F040B9
:1005C000DF01AE5BBF4F8D919C91119728173907C2
:1005D00019F42FEF3FEF07C08D919C91E80FF91FA1
:1005E0008081282F30E0C9010895DC011C96ED912F
:1005F000FC911D97E05CFF4F20813181E054F04079
:10060000DF01AE5BBF4F8D919C9111972817390781
:1006100019F42FEF3FEF10C08D919C911197E80FC7
:10062000F91F20818D919C91119701968F73907085
:1006300011969C938E9330E0C9010895DC01919648
:100640008C919197882339F05496ED91FC915597B0
:10065000808186FFF9CF91961C920895CF93DF9306
:10066000EC01EE85FF85E05CFF4F20813181E05495
:10067000F0402F5F3F4F2F733070DF01AE5BBF4FF5
:100680008D919C91119728173907D1F3E05CFF4FAA
:1006900080819181E054F040E80FF91F6083EE857E
:1006A000FF85E05CFF4F31832083EE89FF89208145
:1006B00081E090E00F8C02C0880F991F0A94E2F746
:1006C000282B208381E089A3EC89FD8980818064C7
:1006D000808381E090E0DF91CF9108951092BE0178
:1006E0001092BD0188EE93E0A0E0B0E08093BF01DE
:1006F0009093C001A093C101B093C20187E191E042
:100700009093BC018093BB0183E391E09093C80177
:100710008093C70187E791E09093CA018093C90154
:1007200085EC90E09093CC018093CB0184EC90E039
:100730009093CE018093CD0180EC90E09093D00116
:100740008093CF0181EC90E09093D2018093D1010E
:1007500082EC90E09093D4018093D30186EC90E0FA
:100760009093D6018093D50184E08093D70183E0F4
:100770008093D80187E08093D90185E08093DA01E6
:1007800081E08093DB010895CF92DF92EF92FF9298
:100790000F931F93CF93DF937C016B018A01C0E01D
:1007A000D0E00FC0D6016D916D01D701ED91FC91A4
:1007B0000190F081E02DC7010995C80FD91F0150A4
:1007C00010400115110571F7CE01DF91CF911F91F6
:1007D0000F91FF90EF90DF90CF900895EF92FF92EE
:1007E0000F931F938C01DC01ED91FC910190F0813E
:1007F000E02D6DE009957C01D801ED91FC9101900F
:10080000F081E02DC8016AE009959C012E0D3F1D85
:10081000C9011F910F91FF90EF900895CF93DF933F
:10082000EC016115710519F420E030E00FC0DB0127
:100830000D900020E9F71197A61BB70BE881F9810D
:100840000280F381E02DAD0109959C01C901DF9182
:10085000CF9108954F925F927F928F929F92AF9225
:10086000BF92CF92DF92EF92FF920F931F93DF938D
:10087000CF93CDB7DEB7A1970FB6F894DEBF0FBE0A
:10088000CDBF2C01742ECB01223008F42AE019A22E
:1008900031E2C32ED12CCC0EDD1E822E9924AA2447
:1008A000BB24672D752FA50194010E9415087901BD
:1008B0008A01C801B701A50194010E94F607472DDE
:1008C000461B0894C108D1084A3014F4405D01C0A9
:1008D000495CF6014083E114F1040105110521F0A2
:1008E0007E2C5F2DC801DDCFC201B6010E940E042F
:1008F000A1960FB6F894DEBF0FBECDBFCF91DF91AA
:100900001F910F91FF90EF90DF90CF90BF90AF902D
:100910009F908F907F905F904F900895DC012115FC
:10092000310541F4ED91FC910190F081E02D642FAF
:10093000099508950E942A040895CF92DF92EF92BC
:10094000FF920F931F93CF93DF93EC016A017B011A
:100950002115310541F4E881F9810190F081E02D04
:10096000642F09951FC02A303105D1F477FF17C0D5
:10097000E881F9810190F081E02D6DE209958C010B
:1009800044275527BA014C195D096E097F09CE012C
:100990002AE00E942A049801280F391F04C02AE087
:1009A0000E942A049C01C901DF91CF911F910F91F0
:1009B000FF90EF90DF90CF9008957F928F929F925B
:1009C000AF92BF92CF92DF92EF92FF920F931F935D
:1009D000CF93DF934C017A018B01722ECB01BA01C8
:1009E000A80197010E94F207882321F0C40164E066
:1009F00071E021C0C0E0D0E057016801E894D7F869
:100A0000C601B5012FEF3FEF4FE75FE70E94F20706
:100A1000882351F4C601B5012FEF3FEF4FE75FE7A1
:100A20000E943C06181614F0C1E0D0E0219739F07E
:100A3000C40168E071E00E940E04EC0193C0C8019B
:100A4000B7012FEF3FEF4FE75FE40E948B071816C7
:100A500054F0C801B7012FEF3FEF4FE75FEC0E9462
:100A60003C06882324F4C4016CE071E0E4CFC801A3
:100A7000B70120E030E040E050E00E943C0687FDF6
:100A800003C0C0E0D0E00EC0D401ED91FC91019014
:100A9000F081E02DC4016DE20995EC0117FB109582
:100AA00017F9109520E030E040E05FE3DD240BC053
:100AB000CA01B90120E030E040E251E40E94400662
:100AC0009B01AC01D394D71498F3C801B7010E94DD
:100AD000D8055B016C010E94AD067B018C01C4014D
:100AE000B801A7012AE030E00E948E04C80FD91F88
:100AF000772039F0C40160E171E00E940E04C80F54
:100B0000D91FC801B7010E94D9069B01AC01C601DB
:100B1000B5010E94D70524C020E030E040E251E456
:100B20000E948F077B018C010E94A8065B016C016B
:100B3000CC24B7FCC094DC2CC401B601A5012AE08A
:100B400030E00E949D04C80FD91FC601B5010E9464
:100B5000DB069B01AC01C801B7010E94D7057A945E
:100B60007720D1F6CE01DF91CF911F910F91FF90A9
:100B7000EF90DF90CF90BF90AF909F908F907F903D
:100B800008950E94DD040895EF92FF920F931F9342
:100B90007C010E940E048C01C7010E94EE03080F25
:100BA000191FC8011F910F91FF90EF9008955058A1
:100BB000BB27AA270ED075C166D130F06BD120F0CB
:100BC00031F49F3F11F41EF45BC10EF4E095E7FB96
:100BD00051C1E92F77D180F3BA17620773078407F1
:100BE000950718F071F49EF58FC10EF4E0950B2E69
:100BF000BA2FA02D0B01B90190010C01CA01A0016F
:100C00001124FF27591B99F0593F50F4503E68F1C9
:100C10001A16F040A22F232F342F4427585FF3CF0A
:100C2000469537952795A795F0405395C9F77EF4DB
:100C30001F16BA0B620B730B840BBAF09150A1F024
:100C4000FF0FBB1F661F771F881FC2F70EC0BA0FAA
:100C5000621F731F841F48F4879577956795B79532
:100C6000F7959E3F08F0B3CF9395880F08F099272A
:100C7000EE0F979587950895D9D008F481E00895EF
:100C80000CD00FC107D140F0FED030F021F45F3F0F
:100C900019F0F0C0511139C1F3C014D198F3992360
:100CA000C9F35523B1F3951B550BBB27AA27621730
:100CB0007307840738F09F5F5F4F220F331F441F75
:100CC000AA1FA9F333D00E2E3AF0E0E830D09150AD
:100CD0005040E695001CCAF729D0FE2F27D0660F9A
:100CE000771F881FBB1F261737074807AB07B0E8D9
:100CF00009F0BB0B802DBF01FF2793585F4F2AF0EF
:100D00009E3F510568F0B6C000C15F3FECF3983ECE
:100D1000DCF3869577956795B795F7959F5FC9F74B
:100D2000880F911D9695879597F90895E1E0660FD4
:100D3000771F881FBB1F621773078407BA0720F04D
:100D4000621B730B840BBA0BEE1F88F7E0950895B6
:100D500004D06894B111D9C00895BCD088F09F57D1
:100D600090F0B92F9927B751A0F0D1F0660F771FF7
:100D7000881F991F1AF0BA95C9F712C0B13081F0D7
:100D8000C3D0B1E00895C0C0672F782F8827B85F1F
:100D900039F0B93FCCF3869577956795B395D9F738
:100DA0003EF490958095709561957F4F8F4F9F4F42
:100DB0000895E89409C097FB3EF49095809570954E
:100DC00061957F4F8F4F9F4F9923A9F0F92F96E997
:100DD000BB279395F695879577956795B795F1110C
:100DE000F8CFFAF4BB0F11F460FF1BC06F5F7F4FA9
:100DF0008F4F9F4F16C0882311F096E911C07723BB
:100E000021F09EE8872F762F05C0662371F096E8C3
:100E1000862F70E060E02AF09A95660F771F881F92
:100E2000DAF7880F9695879597F90895990F000836
:100E3000550FAA0BE0E8FEEF16161706E807F907AC
:100E4000C0F012161306E407F50798F0621B730B47
:100E5000840B950B39F40A2661F0232B242B252BC8
:100E600021F408950A2609F4A140A6958FEF811D6B
:100E7000811D089597F99F6780E870E060E008950C
:100E80009FEF80EC089500240A94161617061806A2
:100E90000906089500240A9412161306140605067E
:100EA0000895092E0394000C11F4882352F0BB0F0F
:100EB00040F4BF2B11F460FF04C06F5F7F4F8F4F72
:100EC0009F4F089557FD9058440F551F59F05F3FAD
:100ED00071F04795880F97FB991F61F09F3F79F05C
:100EE00087950895121613061406551FF2CF4695DE
:100EF000F1DF08C0161617061806991FF1CF869560
:100F00007105610508940895E894BB276627772743
:100F1000CB0197F908958ADF08F48FEF08950BD07D
:100F2000C0CFB1DF28F0B6DF18F0952309F0A2CFCB
:100F3000A7CF1124EACFC6DFA0F3959FD1F3950F79
:100F400050E0551F629FF001729FBB27F00DB11D4D
:100F5000639FAA27F00DB11DAA1F649F6627B00DDD
:100F6000A11D661F829F2227B00DA11D621F739FC6
:100F7000B00DA11D621F839FA00D611D221F749FD4
:100F80003327A00D611D231F849F600D211D822F1B
:100F9000762F6A2F11249F5750408AF0E1F0882362
:100FA0004AF0EE0FFF1FBB1F661F771F881F91506F
:100FB0005040A9F79E3F510570F05CCFA6CF5F3F30
:100FC000ECF3983EDCF3869577956795B795F795A2
:100FD000E7959F5FC1F7FE2B880F911D969587952A
:100FE00097F9089523DF880B990B0895629FD0012C
:100FF000739FF001829FE00DF11D649FE00DF11DD4
:10100000929FF00D839FF00D749FF00D659FF00D82
:101010009927729FB00DE11DF91F639FB00DE11D6F
:10102000F91FBD01CF0111240895A1E21A2EAA1BB8
:10103000BB1BFD010DC0AA1FBB1FEE1FFF1FA21788
:10104000B307E407F50720F0A21BB30BE40BF50B85
:10105000661F771F881F991F1A9469F7609570950E
:10106000809590959B01AC01BD01CF010895EE0FD5
:0E107000FF1F0590F491E02D0994F894FFCF36
:10107E005B565D006E616E00696E66006F7666008F
:10108E002E0001000000002E03C403C402F502D599
:04109E00021E03002B
:00000001FF
