:100000000C9435000C945D000C945D000C945D0024
:100010000C945D000C945D000C945D000C945D00EC
:100020000C945D000C945D000C945D000C948E00AB
:100030000C945D000C945D000C945D000C945D00CC
:100040000C94FF020C945D000C94C5000C941301F9
:100050000C945D000C945D000C945D000C945D00AC
:100060000C945D000C945D007F0211241FBECFEF45
:10007000D8E0DEBFCDBF11E0A0E0B1E0E8E5F7E0F9
:1000800002C005900D92A031B107D9F711E0A0E1AF
:10009000B1E001C01D92A33CB107E1F710E0CAE650
:1000A000D0E004C02297FE010E94A603C836D10703
:1000B000C9F70E94B5000C94AA030C940000CF93DA
:1000C000DF938FB78F778FBFE0E8F0E01082A1E871
:1000D000B0E01C92109287001092860028E830E071
:1000E000E901198218828081816080838C9180610E
:1000F0008C9386EB93E199838883808180688083E9
:10010000EFE6F0E08081826080838C9183608C9345
:100110008FB780688FBFDF91CF9108951F920F92A4
:100120000FB60F9211248F939F9385B190E2892788
:1001300085B99F918F910F900FBE0F901F901895CA
:10014000089588E991E040E855E260E070E00E949F
:100150004E01259A60E070E080EA91E420E030E012
:1001600048E452E40E945F000895CF93DF930E9419
:1001700047030E94A100C0E0D1E00E94A0002097A8
:10018000E1F30E940001F9CF08951F920F920FB67C
:100190000F9211242F933F934F938F939F93EF933D
:1001A000FF938091C00082FD1DC04091C600209148
:1001B0005001309151012F5F3F4F2F73307080916C
:1001C0005201909153012817390771F0E0915001C5
:1001D000F0915101E05FFE4F408330935101209335
:1001E000500102C08091C600FF91EF919F918F91C5
:1001F0004F913F912F910F900FBE0F901F90189528
:10020000E091A401F091A501E05CFF4F81919191F3
:1002100020813181821B930B8F739070892B11F099
:100220000E94C40008951F920F920FB60F921124DE
:100230002F933F938F939F93EF93FF93209194017C
:100240003091950180919601909197012817390777
:1002500031F48091C1008F7D8093C10014C0E09182
:100260009601F0919701EC5AFE4F20818091960102
:100270009091970101968F7390709093970180935E
:1002800096012093C600FF91EF919F918F913F912E
:100290002F910F900FBE0F901F901895AF92BF92A5
:1002A000DF92EF92FF920F931F93CF93DF93EC01B6
:1002B0007A018B01DD24403081EE580780E0680729
:1002C00080E0780711F0DD24D39491E0A92EB12CC1
:1002D000EC89FD89DD2069F0C50108A002C0880F06
:1002E000991F0A94E2F7808360E079E08DE390E063
:1002F00005C0108260E874E88EE190E0A8019701E3
:100300000E9482032150304040405040569547950E
:100310003795279580E12030380720F0DD2011F057
:10032000DD24D6CFE889F9893083EA89FB892083E7
:1003300019A2EE89FF89408121E030E0C9010C8CCF
:1003400002C0880F991F0A94E2F7482B4083EE8978
:10035000FF894081C9010D8C02C0880F991F0A9442
:10036000E2F7482B4083EE89FF894081C9010E8C5A
:1003700002C0880F991F0A94E2F7482B4083EE8948
:10038000FF8980810F8C02C0220F331F0A94E2F78D
:10039000209528232083DF91CF911F910F91FF900B
:1003A000EF90DF90BF90AF900895DC011C96ED9127
:1003B000FC911D97E05CFF4F2191319180819181EB
:1003C000281B390B2F733070C9010895DC011C966E
:1003D000ED91FC911D97E05CFF4F20813181E0544D
:1003E000F040DF01AE5BBF4F8D919C9111972817B4
:1003F000390719F42FEF3FEF07C08D919C91E80F5B
:10040000F91F8081282F30E0C9010895DC011C9676
:10041000ED91FC911D97E05CFF4F20813181E0540C
:10042000F040DF01AE5BBF4F8D919C911197281773
:10043000390719F42FEF3FEF10C08D919C91119760
:10044000E80FF91F20818D919C91119701968F7370
:10045000907011969C938E9330E0C9010895DC0151
:1004600091968C919197882339F05496ED91FC9157
:100470005597808186FFF9CF91961C920895CF936E
:10048000DF93EC01EE85FF85E05CFF4F2081318139
:10049000E054F0402F5F3F4F2F733070DF01AE5BB1
:1004A000BF4F8D919C91119728173907D1F3E05CCC
:1004B000FF4F80819181E054F040E80FF91F608385
:1004C000EE85FF85E05CFF4F31832083EE89FF8955
:1004D000208181E090E00F8C02C0880F991F0A9460
:1004E000E2F7282B208381E089A3EC89FD898081B4
:1004F0008064808381E090E0DF91CF910895109235
:100500009B0110929A0188EE93E0A0E0B0E0809306
:100510009C0190939D01A0939E01B0939F0184E064
:1005200091E0909399018093980180E191E09093FC
:10053000A5018093A40184E591E09093A7018093A5
:10054000A60185EC90E09093A9018093A80184EC2A
:1005500090E09093AB018093AA0180EC90E090939F
:10056000AD018093AC0181EC90E09093AF0180935A
:10057000AE0182EC90E09093B1018093B00186ECE3
:1005800090E09093B3018093B20184E08093B40132
:1005900083E08093B50187E08093B60185E0809386
:1005A000B70181E08093B8010895CF92DF92EF9276
:1005B000FF920F931F93CF93DF937C016B018A010E
:1005C000C0E0D0E00FC0D6016D916D01D701ED9173
:1005D000FC910190F081E02DC7010995C80FD91F4A
:1005E000015010400115110571F7CE01DF91CF9137
:1005F0001F910F91FF90EF90DF90CF9008951F9281
:100600000F920FB60F9211242F933F938F939F93C6
:10061000AF93BF938091BE019091BF01A091C001A3
:10062000B091C1013091C2010196A11DB11D232FCE
:100630002D5F2D3720F02D570196A11DB11D209360
:10064000C2018093BE019093BF01A093C001B093FB
:10065000C1018091BA019091BB01A091BC01B09100
:10066000BD010196A11DB11D8093BA019093BB01FC
:10067000A093BC01B093BD01BF91AF919F918F91A9
:100680003F912F910F900FBE0F901F901895789467
:1006900084B5826084BD84B5816084BD85B5826087
:1006A00085BD85B5816085BDEEE6F0E08081816025
:1006B0008083E1E8F0E01082808182608083808125
:1006C00081608083E0E8F0E0808181608083E1EBFD
:1006D000F0E0808184608083E0EBF0E080818160E5
:1006E0008083EAE7F0E0808184608083808182609B
:1006F0008083808181608083808180688083109284
:10070000C1000895A1E21A2EAA1BBB1BFD010DC05A
:10071000AA1FBB1FEE1FFF1FA217B307E407F507B1
:1007200020F0A21BB30BE40BF50B661F771F881F8D
:10073000991F1A9469F760957095809590959B0123
:10074000AC01BD01CF010895EE0FFF1F0590F4919C
:08075000E02D0994F894FFCF9D
:10075800000000003F02D502D5010602E6012F0283
:00000001FF
