:100000000C9462000C948A000C948A000C948A0070
:100010000C948A000C948A000C948A000C948A0038
:100020000C948A000C948A000C948A000C948A0028
:100030000C948A000C948A000C948A000C948A0018
:100040000C94B2010C948A000C94F4030C944204B6
:100050000C948A000C948A000C948A000C948A00F8
:100060000C948A000C948A000000000024002700F1
:100070002A0000000000250028002B0000000000DE
:1000800023002600290004040404040404040202DA
:100090000202020203030303030301020408102007
:1000A0004080010204081020010204081020000012
:1000B0000007000201000003040600000000000029
:1000C0000000AE0511241FBECFEFD8E0DEBFCDBFCC
:1000D00011E0A0E0B1E0E2E1FFE002C005900D9286
:1000E000AE37B107D9F712E0AEE7B1E001C01D921B
:1000F000A734B107E1F710E0C4ECD0E004C02297C8
:10010000FE010E948307C23CD107C9F70E94290360
:100110000C9487070C9400008CE00E94D602892B77
:1001200021F48CE061E00E9482028CE00E94D60201
:10013000019721F48CE060E00E9482020E94FA01A3
:100140006093900170939101809392019093930139
:1001500008958DE00E94D602892B21F48DE061E0A4
:100160000E9482028DE00E94D602019721F48DE068
:1001700060E00E9482020E94FA0160938C017093F9
:100180008D0180938E0190938F0108950E94FA0152
:1001900020918C0130918D0140918E0150918F0101
:1001A000621B730B840B950B2091840130918501A8
:1001B0004091860150918701621773078407950764
:1001C00010F00E94A9000E94FA0120919001309144
:1001D00091014091920150919301621B730B840B2A
:1001E000950B209188013091890140918A015091AD
:1001F0008B01621773078407950710F00E948C002B
:1002000008950F931F9385E292E040E855E260E085
:1002100070E00E947D048DE061E00E9443028CE06A
:1002200061E00E94430285E292E00E943505182FAA
:1002300080918201882309F071C080918301882315
:1002400009F06CC085E292E060E071E00E942D0749
:1002500001E027C085E292E00E94EF039B01AC0120
:1002600070937F0160937E0185E292E0B9014AE0DC
:1002700050E00E940E0780917E0190917F01AA2795
:1002800097FDA095BA2F8093840190938501A09348
:100290008601B09387010093820185E292E00E947B
:1002A0005E0585E292E00E940405892B09F44DC0A9
:1002B00080918201882309F048C01D3091F7CACF90
:1002C00080918301882351F580918201882331F147
:1002D0001D3021F585E292E00E94EF039B01AC0105
:1002E000709381016093800185E292E0B9014AE058
:1002F00050E00E940E078091800190918101AA2711
:1003000097FDA095BA2F8093880190938901A093BF
:100310008A01B0938B0181E0809383010E94FA01EE
:1003200060938C0170938D0180938E0190938F0167
:100330000E94FA0160939001709391018093920161
:10034000909393011F910F91089585E292E067E3E6
:1003500071E00E942D0785E292E00E940405892B3E
:10036000E9F2AECF1F920F920FB60F9211242F9386
:100370003F938F939F93AF93BF93809198019091F8
:100380009901A0919A01B0919B0130919C01019635
:10039000A11DB11D232F2D5F2D3720F02D57019664
:1003A000A11DB11D20939C01809398019093990108
:1003B000A0939A01B0939B01809194019091950133
:1003C000A0919601B09197010196A11DB11D809356
:1003D000940190939501A0939601B0939701BF91DA
:1003E000AF919F918F913F912F910F900FBE0F90E2
:1003F0001F9018958FB7F89420919801309199012A
:1004000040919A0150919B018FBFB901CA01089593
:10041000789484B5826084BD84B5816084BD85B5DF
:10042000826085BD85B5816085BDEEE6F0E08081A6
:1004300081608083E1E8F0E01082808182608083C7
:10044000808181608083E0E8F0E08081816080834A
:10045000E1EBF0E0808184608083E0EBF0E080817C
:1004600081608083EAE7F0E080818460808380811E
:1004700082608083808181608083808180688083C6
:100480001092C1000895CF93DF93482F50E0CA0126
:1004900086569F4FFC0134914A575F4FFA01849171
:1004A000882369F190E0880F991FFC01E859FF4FFC
:1004B000A591B491FC01EE58FF4FC591D4916623EC
:1004C00051F42FB7F8948C91932F909589238C93A6
:1004D000888189230BC0623061F42FB7F8948C9126
:1004E000932F909589238C938881832B88832FBFAA
:1004F00006C09FB7F8948C91832B8C939FBFDF919C
:10050000CF910895482F50E0CA0182559F4FFC01BA
:100510002491CA0186569F4FFC0194914A575F4F20
:10052000FA013491332309F440C0222351F12330DE
:1005300071F0243028F42130A1F0223011F514C0DC
:100540002630B1F02730C1F02430D9F404C08091B6
:1005500080008F7703C0809180008F7D8093800022
:1005600010C084B58F7702C084B58F7D84BD09C06B
:100570008091B0008F7703C08091B0008F7D809311
:10058000B000E32FF0E0EE0FFF1FEE58FF4FA591F4
:10059000B4912FB7F894662321F48C919095892318
:1005A00002C08C91892B8C932FBF0895682F70E027
:1005B000CB0182559F4FFC012491CB0186569F4F62
:1005C000FC0144916A577F4FFB019491992319F4E0
:1005D00020E030E03CC0222351F1233071F0243080
:1005E00028F42130A1F0223011F514C02630B1F0EA
:1005F0002730C1F02430D9F404C0809180008F7777
:1006000003C0809180008F7D8093800010C084B5EE
:100610008F7702C084B58F7D84BD09C08091B00002
:100620008F7703C08091B0008F7D8093B000892FB9
:1006300090E0880F991F84589F4FFC01A591B491B9
:100640008C9120E030E0842311F021E030E0C901FA
:100650000895CF93DF930E9408020E940101CFE228
:10066000D4E00E94C6002097E1F30E942F04F9CF46
:10067000CF93DF93EC010E94FA01688779878A871C
:100680009B87E881F9810084F185E02DCE010995F1
:100690009C0197FF15C00E94FA01288539854A857B
:1006A0005B85621B730B840B950B2C813D814E8106
:1006B0005F81621773078407950718F32FEF3FEFE9
:1006C000C901DF91CF910895CF93DF93EC01CE0163
:1006D0000E9438039C0197FD0EC08D32910559F0A0
:1006E000C0970A9740F0E881F9810680F781E02DF4
:1006F000CE010995ECCFC901DF91CF9108959F926A
:10070000AF92BF92CF92DF92EF92FF920F931F931F
:10071000CF93DF936C01B62E0E946403EC0197FF28
:1007200004C0EE24FF2487014CC09924EE24FF244A
:100730008701AB2CBB24A7FCB094CA15DB0529F1BB
:10074000CD32D10519F4992493941FC0CE01C097DE
:100750000A97D8F4C801B7012AE030E040E050E041
:100760000E9440077B018C01CE01AA2797FDA0952E
:10077000BA2FE80EF91E0A1F1B1F80ED9FEFAFEF87
:10078000BFEFE80EF91E0A1F1B1FD601ED91FC9169
:100790000680F781E02DC6010995C6010E94380345
:1007A000EC01C0970A9748F2CA15DB0531F299208F
:1007B00041F010950095F094E094E11CF11C011DAE
:1007C000111DB701C801DF91CF911F910F91FF90CB
:1007D000EF90DF90CF90BF90AF909F90089561E031
:1007E0000E947F03089508951F920F920FB60F92F3
:1007F00011242F933F934F938F939F93EF93FF93E6
:100800008091C00082FD1DC04091C6002091DD0195
:100810003091DE012F5F3F4F2F7330708091DF01E9
:100820009091E0012817390771F0E091DD01F09116
:10083000DE01E356FE4F40833093DE012093DD015D
:1008400002C08091C600FF91EF919F918F914F91CF
:100850003F912F910F900FBE0F901F901895E09130
:100860003102F0913202E05CFF4F81919191208141
:100870003181821B930B8F739070892B11F00E9432
:10088000F30308951F920F920FB60F9211242F9326
:100890003F938F939F93EF93FF9320912102309189
:1008A000220280912302909124022817390731F403
:1008B0008091C1008F7D8093C10014C0E09123021C
:1008C000F0912402EF51FE4F2081809123029091FC
:1008D000240201968F7390709093240280932302D8
:1008E0002093C600FF91EF919F918F913F912F919F
:1008F0000F900FBE0F901F901895AF92BF92DF928E
:10090000EF92FF920F931F93CF93DF93EC017A0145
:100910008B01DD24403081EE580780E0680780E0DD
:10092000780711F0DD24D39491E0A92EB12CEC8945
:10093000FD89DD2069F0C50108A002C0880F991F5C
:100940000A94E2F7808360E079E08DE390E005C0EF
:10095000108260E874E88EE190E0A80197010E949F
:100960005F0721503040404050405695479537959D
:10097000279580E12030380720F0DD2011F0DD24BC
:10098000D6CFE889F9893083EA89FB89208319A2C7
:10099000EE89FF89408121E030E0C9010C8C02C062
:1009A000880F991F0A94E2F7482B4083EE89FF894C
:1009B0004081C9010D8C02C0880F991F0A94E2F78B
:1009C000482B4083EE89FF894081C9010E8C02C00B
:1009D000880F991F0A94E2F7482B4083EE89FF891C
:1009E00080810F8C02C0220F331F0A94E2F72095FA
:1009F00028232083DF91CF911F910F91FF90EF90DB
:100A0000DF90BF90AF900895DC011C96ED91FC91B2
:100A10001D97E05CFF4F2191319180819181281BCE
:100A2000390B2F733070C9010895DC011C96ED91CC
:100A3000FC911D97E05CFF4F20813181E054F04034
:100A4000DF01AE5BBF4F8D919C911197281739073D
:100A500019F42FEF3FEF07C08D919C91E80FF91F1C
:100A60008081282F30E0C9010895DC011C96ED91AA
:100A7000FC911D97E05CFF4F20813181E054F040F4
:100A8000DF01AE5BBF4F8D919C91119728173907FD
:100A900019F42FEF3FEF10C08D919C911197E80F43
:100AA000F91F20818D919C91119701968F73907001
:100AB00011969C938E9330E0C9010895DC019196C4
:100AC0008C919197882339F05496ED91FC9155972C
:100AD000808186FFF9CF91961C920895CF93DF9382
:100AE000EC01EE85FF85E05CFF4F20813181E05411
:100AF000F0402F5F3F4F2F733070DF01AE5BBF4F71
:100B00008D919C91119728173907D1F3E05CFF4F25
:100B100080819181E054F040E80FF91F6083EE85F9
:100B2000FF85E05CFF4F31832083EE89FF892081C0
:100B300081E090E00F8C02C0880F991F0A94E2F7C1
:100B4000282B208381E089A3EC89FD898081806442
:100B5000808381E090E0DF91CF9108951092280288
:100B60001092270288EE93E0A0E0B0E08093290283
:100B700090932A02A0932B02B0932C0282E791E07B
:100B800090932602809325028DE991E090933202A2
:100B90008093310281EE91E090933402809333028E
:100BA00085EC90E0909336028093350284EC90E0DF
:100BB000909338028093370280EC90E090933A0251
:100BC0008093390281EC90E090933C0280933B0249
:100BD00082EC90E090933E0280933D0286EC90E0A0
:100BE0009093400280933F0284E08093410283E02F
:100BF0008093420287E08093430285E08093440221
:100C000081E0809345020895CF92DF92EF92FF92A8
:100C10000F931F93CF93DF937C016B018A01C0E098
:100C2000D0E00FC0D6016D916D01D701ED91FC911F
:100C30000190F081E02DC7010995C80FD91F01501F
:100C400010400115110571F7CE01DF91CF911F9171
:100C50000F91FF90EF90DF90CF900895EF92FF9269
:100C60000F931F938C01DC01ED91FC910190F081B9
:100C7000E02D6DE009957C01D801ED91FC9101908A
:100C8000F081E02DC8016AE009959C012E0D3F1D01
:100C9000C9011F910F91FF90EF900895CF93DF93BB
:100CA000EC016115710519F420E030E00FC0DB01A3
:100CB0000D900020E9F71197A61BB70BE881F98189
:100CC0000280F381E02DAD0109959C01C901DF91FE
:100CD000CF9108954F925F927F928F929F92AF92A1
:100CE000BF92CF92DF92EF92FF920F931F93DF9309
:100CF000CF93CDB7DEB7A1970FB6F894DEBF0FBE86
:100D0000CDBF2C01742ECB01223008F42AE019A2A9
:100D100031E2C32ED12CCC0EDD1E822E9924AA24C2
:100D2000BB24672D752FA50194010E945F077901EF
:100D30008A01C801B701A50194010E944007472D0F
:100D4000461B0894C108D1084A3014F4405D01C024
:100D5000495CF6014083E114F1040105110521F01D
:100D60007E2C5F2DC801DDCFC201B6010E944E0668
:100D7000A1960FB6F894DEBF0FBECDBFCF91DF9125
:100D80001F910F91FF90EF90DF90CF90BF90AF90A9
:100D90009F908F907F905F904F900895CF92DF92B9
:100DA000EF92FF920F931F93CF93DF93EC016A01B1
:100DB0007B012115310541F4E881F9810190F08131
:100DC000E02D642F09951FC02A303105D1F477FF3B
:100DD00017C0E881F9810190F081E02D6DE209955D
:100DE0008C0144275527BA014C195D096E097F090A
:100DF000CE012AE00E946A069801280F391F04C01C
:100E00002AE00E946A069C01C901DF91CF911F91DF
:100E10000F91FF90EF90DF90CF900895CF92DF92E7
:100E2000EF92FF920F931F936C017B019A010027B1
:100E3000F7FC0095102FB801A7010E94CE068C0187
:100E4000C6010E942E06080F191FC8011F910F919D
:100E5000FF90EF90DF90CF900895EF92FF920F9365
:100E60001F937C010E944E068C01C7010E942E0632
:100E7000080F191FC8011F910F91FF90EF9008955F
:100E8000629FD001739FF001829FE00DF11D649F6E
:100E9000E00DF11D929FF00D839FF00D749FF00DFA
:100EA000659FF00D9927729FB00DE11DF91F639F9B
:100EB000B00DE11DF91FBD01CF0111240895A1E27C
:100EC0001A2EAA1BBB1BFD010DC0AA1FBB1FEE1FC4
:100ED000FF1FA217B307E407F50720F0A21BB30B0F
:100EE000E40BF50B661F771F881F991F1A9469F78B
:100EF00060957095809590959B01AC01BD01CF01E7
:100F00000895EE0FFF1F0590F491E02D0994F894D9
:020F1000FFCF11
:100F1200456E746572207468652064656C61792021
:100F2200796F75207769736820746865204C454431
:100F32002061742070696E20313320746F20626CDE
:100F4200696E6B20617400456E7465722074686509
:100F52002064656C617920796F75207769736820E8
:100F6200746865204C45442061742070696E20319C
:100F72003220746F20626C696E6B20617400000015
:0E0F820000006E0504060405350515055E0524
:00000001FF
