:100000000C9435000C945D000C945D000C945D0024
:100010000C945D000C945D000C945D000C94AC009D
:100020000C945D000C945D000C945D000C945F00DA
:100030000C945D000C945D000C945D000C945D00CC
:100040000C94F7030C945D000C94BD010C940B020E
:100050000C945D000C945D000C945D000C945D00AC
:100060000C945D000C945D00770311241FBECFEF4C
:10007000D8E0DEBFCDBF13E0A0E0B1E0EEE7F9E0ED
:1000800002C005900D92A83AB107D9F714E0A8EA8A
:10009000B3E001C01D92A336B107E1F710E0CAE654
:1000A000D0E004C02297FE010E94B904C836D107EF
:1000B000C9F70E94AD010C94BD040C9400001F927E
:1000C0000F920FB60F9211248F939F93EF93FF938C
:1000D00080910101803411F410920101E091A80394
:1000E000809101019091AB03F0E0F695FE2FEE2791
:1000F000F795E795E80FF11DE95FFE4F8081869542
:10010000890F8093AA038091AA03803418F08FE3AB
:100110008093AA0380910301909104019093890038
:10012000809388008091AA03880F880F8093AA0388
:10013000809100018AB98091AA038BB98091010155
:100140008F5F80930101FF91EF919F918F910F90AD
:100150000FBE0F901F9018951F920F920FB60F921F
:1001600011242F933F934F935F938F939F93EF931C
:10017000FF9380910201803210F010920201E09111
:10018000A903909101018091AC032091AD03F0E0AF
:10019000F695FE2FEE27F795E795E95FFE4FE80FFE
:1001A000F11DE90FF11D808190E09595879530E074
:1001B000AC01429FC001439F900D529F900D1124AE
:1001C0008093AB03809102018F5F80930201FF91C6
:1001D000EF919F918F915F914F913F912F910F9050
:1001E0000FBE0F901F90189588E394E00E94FE02C6
:1001F0008093AE038091AE03089580E00E948B014E
:1002000095958795959587958093000181E00E944B
:100210008B01892F990F990B8093A80382E00E948C
:100220008B01892F990F990B8093A9030E94F400E9
:10023000E091AF03F0E0EE0FFF1FE852FD4F808129
:100240009181909304018093030183E00E948B01CC
:1002500065E0959587956A95E1F78093AC0384E016
:100260000E948B0155E0959587955A95E1F780930B
:10027000AD0308950F931F938FB78F778FBF1092A1
:100280008000E1E8F0E0108201E000831092850038
:100290001092840080818860808312E010936F0048
:1002A000209103013091040140E050E060E970EDDD
:1002B00083E090E00E949C043093890020938800A2
:1002C0001092B000E1EBF0E0108200831092B200D7
:1002D00080818860808310937000209105013091A7
:1002E000060140E050E060E970ED83E090E00E949C
:1002F0009C042093B300259A2D988FB780688FBFF8
:1003000088E394E042E15AE760E070E00E94460230
:100310001F910F910895982F8E3008F09E5097707E
:10032000809107038295880F880F807C892B8093AA
:100330007C0080917A00806480937A0080917A00BA
:1003400086FDFCCF2091780040917900942F80E0C9
:1003500030E0282B392BC9010895CF93DF930E94F9
:100360003F040E943A01C8EFD1E00E94FD002097AF
:10037000E1F30E94F801F9CF08951F920F920FB692
:100380000F9211242F933F934F938F939F93EF934B
:10039000FF938091C00082FD1DC04091C600209156
:1003A000F0033091F1032F5F3F4F2F733070809136
:1003B000F2039091F3032817390771F0E091F003ED
:1003C000F091F103E055FC4F40833093F10320930B
:1003D000F00302C08091C600FF91EF919F918F9131
:1003E0004F913F912F910F900FBE0F901F90189536
:1003F000E0914404F0914504E05CFF4F81919191BC
:1004000020813181821B930B8F739070892B11F0A7
:100410000E94BC0108951F920F920FB60F921124F3
:100420002F933F938F939F93EF93FF9320913404E7
:10043000309135048091360490913704281739079C
:1004400031F48091C1008F7D8093C10014C0E09190
:100450003604F0913704EC50FC4F20818091360433
:100460009091370401968F73907090933704809326
:1004700036042093C600FF91EF919F918F913F9199
:100480002F910F900FBE0F901F901895AF92BF92B3
:10049000DF92EF92FF920F931F93CF93DF93EC01C4
:1004A0007A018B01DD24403081EE580780E0680737
:1004B00080E0780711F0DD24D39491E0A92EB12CCF
:1004C000EC89FD89DD2069F0C50108A002C0880F14
:1004D000991F0A94E2F7808360E079E08DE390E071
:1004E00005C0108260E874E88EE190E0A8019701F1
:1004F0000E947A0421503040404050405695479524
:100500003795279580E12030380720F0DD2011F065
:10051000DD24D6CFE889F9893083EA89FB892083F5
:1005200019A2EE89FF89408121E030E0C9010C8CDD
:1005300002C0880F991F0A94E2F7482B4083EE8986
:10054000FF894081C9010D8C02C0880F991F0A9450
:10055000E2F7482B4083EE89FF894081C9010E8C68
:1005600002C0880F991F0A94E2F7482B4083EE8956
:10057000FF8980810F8C02C0220F331F0A94E2F79B
:10058000209528232083DF91CF911F910F91FF9019
:10059000EF90DF90BF90AF900895DC011C96ED9135
:1005A000FC911D97E05CFF4F2191319180819181F9
:1005B000281B390B2F733070C9010895DC011C967C
:1005C000ED91FC911D97E05CFF4F20813181E0545B
:1005D000F040DF01AE5BBF4F8D919C9111972817C2
:1005E000390719F42FEF3FEF07C08D919C91E80F69
:1005F000F91F8081282F30E0C9010895DC011C9685
:10060000ED91FC911D97E05CFF4F20813181E0541A
:10061000F040DF01AE5BBF4F8D919C911197281781
:10062000390719F42FEF3FEF10C08D919C9111976E
:10063000E80FF91F20818D919C91119701968F737E
:10064000907011969C938E9330E0C9010895DC015F
:1006500091968C919197882339F05496ED91FC9165
:100660005597808186FFF9CF91961C920895CF937C
:10067000DF93EC01EE85FF85E05CFF4F2081318147
:10068000E054F0402F5F3F4F2F733070DF01AE5BBF
:10069000BF4F8D919C91119728173907D1F3E05CDA
:1006A000FF4F80819181E054F040E80FF91F608393
:1006B000EE85FF85E05CFF4F31832083EE89FF8963
:1006C000208181E090E00F8C02C0880F991F0A946E
:1006D000E2F7282B208381E089A3EC89FD898081C2
:1006E0008064808381E090E0DF91CF910895109243
:1006F0003B0410923A0488EE93E0A0E0B0E08093CF
:100700003C0490933D04A0933E04B0933F048CE9D5
:1007100093E0909339048093380480EB93E09093B6
:1007200045048093440484EF93E0909347048093BE
:10073000460485EC90E0909349048093480484EC4F
:1007400090E090934B0480934A0480EC90E0909367
:100750004D0480934C0481EC90E090934F0480937F
:100760004E0482EC90E0909351048093500486EC08
:1007700090E0909353048093520484E08093540457
:1007800083E08093550487E08093560485E080934E
:10079000570481E0809358040895CF92DF92EF923E
:1007A000FF920F931F93CF93DF937C016B018A011C
:1007B000C0E0D0E00FC0D6016D916D01D701ED9181
:1007C000FC910190F081E02DC7010995C80FD91F58
:1007D000015010400115110571F7CE01DF91CF9145
:1007E0001F910F91FF90EF90DF90CF9008951F928F
:1007F0000F920FB60F9211242F933F938F939F93D5
:10080000AF93BF9380915E0490915F04A0916004C8
:10081000B0916104309162040196A11DB11D232F96
:100820002D5F2D3720F02D570196A11DB11D20936E
:10083000620480935E0490935F04A0936004B0937D
:10084000610480915A0490915B04A0915C04B09182
:100850005D040196A11DB11D80935A0490935B0421
:10086000A0935C04B0935D04BF91AF919F918F9171
:100870003F912F910F900FBE0F901F901895789475
:1008800084B5826084BD84B5816084BD85B5826095
:1008900085BD85B5816085BDEEE6F0E08081816033
:1008A0008083E1E8F0E01082808182608083808133
:1008B00081608083E0E8F0E0808181608083E1EB0B
:1008C000F0E0808184608083E0EBF0E080818160F3
:1008D0008083EAE7F0E080818460808380818260A9
:1008E0008083808181608083808180688083109292
:1008F000C1000895A1E21A2EAA1BBB1BFD010DC069
:10090000AA1FBB1FEE1FFF1FA217B307E407F507BF
:1009100020F0A21BB30BE40BF50B661F771F881F9B
:10092000991F1A9469F760957095809590959B0131
:10093000AC01BD01CF01089597FB092E05260ED00D
:1009400057FD04D0D7DF0AD0001C38F450954095ED
:10095000309521953F4F4F4F5F4F0895F6F7909593
:100960008095709561957F4F8F4F9F4F0895EE0F43
:0E097000FF1F0590F491E02D0994F894FFCF3D
:10097E00800101BA03BA03202326292C2F313436E5
:10098E00383A3C3D3E3F3F3F3F3F3E3D3C3A383696
:10099E0034312F2C292623201D1A1714110F0C0A5F
:1009AE000806040302010100010102030406080AFD
:1009BE000C0F1114171A1D202326292C2F31343613
:1009CE00383A3C3D3E3F3F3F3F3F3E3D3C3A383656
:1009DE0034312F2C292623201D1A1714110F0C0A1F
:1009EE000806040302010100010102030406080ABD
:1009FE000C0F1114171A1D00010203040506070837
:100A0E00090A0B0C0D0E0F101112131415161718D0
:100A1E00191A1B1C1D1E1F202122232425262728C0
:100A2E00292A2B2C2D2E2F303132333435363738B0
:100A3E00393A3B3C3D3E3F000102030405060708E0
:100A4E00090A0B0C0D0E0F10111213141516171890
:100A5E00191A1B1C1D1E1F20212223242526272880
:100A6E00292A2B2C2D2E2F30313233343536373870
:100A7E00393A3B3C3D3E3F00020406080A0C0E107C
:100A8E00121416181A1C1E20222426282A2C2E3048
:100A9E00323436383A3C3E3E3C3A38363432302EDA
:100AAE002C2A28262422201E1C1A18161412100E68
:100ABE000C0A080604020000020406080A0C0E10B6
:100ACE00121416181A1C1E20222426282A2C2E3008
:100ADE00323436383A3C3E3E3C3A38363432302E9A
:100AEE002C2A28262422201E1C1A18161412100E28
:100AFE000C0A0806040200000000000000000000BE
:100B0E0000000000000000000000000000000000D7
:100B1E00000000000000003F3F3F3F3F3F3F3F3F90
:100B2E003F3F3F3F3F3F3F3F3F3F3F3F3F3F3F3FC7
:100B3E003F3F3F3F3F3F000000000000000000002D
:100B4E000000000000000000000000000000000097
:100B5E000000000000003F3F3F3F3F3F3F3F3F3F11
:100B6E003F3F3F3F3F3F3F3F3F3F3F3F3F3F3F3F87
:100B7E003F3F3F3F3F000001DC1D2E1C991A1B1901
:100B8E00B2175E161C15ED13CF12C011C110D10F86
:100B9E00ED0E170E4C0D8D0CD90B2E0B8E0AF60981
:100BAE006709DF086008E80776070B07A606460602
:100BBE00EC0597054605FB04B3046F042F04F203FE
:100BCE00BA03850352032203F502CB02A2027D0271
:100BDE00590237021702F901DC01C201A801900186
:100BEE007A01650150013D012C011B010B01FC0036
:100BFE00EE00E000D400C800BC00B200A8009E00C9
:100C0E0095008C0084007B00000000003703CD03AC
:080C1E00CD02FE02DE022703F5
:00000001FF
