:100000000C9435000C945D000C945D000C945D0024
:100010000C945D000C945D000C945D000C94C10088
:100020000C945D000C945D000C945D000C945F00DA
:100030000C945D000C945D000C945D000C945D00CC
:100040000C94A2040C945D000C949B010C94E901A7
:100050000C945D000C945D000C945D000C945D00AC
:100060000C945D000C945D00550311241FBECFEF6E
:10007000D8E0DEBFCDBF12E0A0E0B1E0E2E1FBE0FE
:1000800002C005900D92AA31B107D9F712E0AAE19A
:10009000B2E001C01D92A23DB107E1F710E0CAE64F
:1000A000D0E004C02297FE010E948305C836D10724
:1000B000C9F70E948B010C9487050C9400001F92D5
:1000C0000F920FB60F9211242F933F938F939F930C
:1000D000EF93FF93809101012091030190E0820F43
:1000E000911D803491053CF08091010190910301B4
:1000F000891B80930101209101018091030130E06F
:1001000090E0805C9F4F2817390711F410926F0020
:10011000E0911A029091010180910301F0E026E044
:10012000EE0FFF1F2A95E1F7E85FFE4FE80FF11D84
:10013000E90FF11D808180931C0280910401909150
:100140000501909389008093880080911C02880F9C
:10015000880F80931C02809100018AB980911C0253
:100160008BB9809101018F5F80930101FF91EF9125
:100170009F918F913F912F910F900FBE0F901F90E5
:1001800018951F920F920FB60F9211248F93EF9331
:10019000FF9380910201803410F010920201E091EF
:1001A0001B0280910101F0E0689415F8EE0FFF1F2B
:1001B0001694E1F7E80FF11DE85FFE4F8081809310
:1001C0001D02809102018F5F80930201FF91EF91E8
:1001D0008F910F900FBE0F901F90189580E00E9496
:1001E000690195958795959587958093000181E0A4
:1001F0000E946901892F990F990B80931A0282E05E
:100200000E946901892F990F990B80931B0290918D
:10021000010180910301890F80931E026091030107
:1002200087EA92E04AE050E00E94840408951F9318
:100230008FB78F778FBF10928000E1E8F0E01082D7
:1002400011E01083109285001092840080818860F4
:10025000808382E080936F0020910401309105013A
:1002600040E050E060E970ED83E090E00E946605B8
:1002700030938900209388001092B000E1EBF0E009
:10028000108210831092B200808188608083209158
:1002900006013091070140E050E060E970ED83E035
:1002A00090E00E9466052093B3008FB780688FBFEF
:1002B0008CEF8AB98BB183708BB9249A2C9887EA1A
:1002C00092E040E855E260E070E00E9424021F9155
:1002D0000895982F8E3008F09E50977080910802F4
:1002E0008295880F880F807C892B80937C00809179
:1002F0007A00806480937A0080917A0086FDFCCF3A
:100300002091780040917900942F80E030E0282BF4
:10031000392BC9010895CF93DF930E94EA040E940C
:100320001701C6EDD1E00E94EE002097E1F30E9494
:10033000D601F9CF08951F920F920FB60F92112494
:100340002F933F934F938F939F93EF93FF938091BE
:10035000C00082FD1DC04091C60020915F02309117
:1003600060022F5F3F4F2F73307080916102909138
:1003700062022817390771F0E0915F02F091600284
:10038000E15EFD4F40833093600220935F0202C024
:100390008091C600FF91EF919F918F914F913F9176
:1003A0002F910F900FBE0F901F901895E091B30200
:1003B000F091B402E05CFF4F8191919120813181F5
:1003C000821B930B8F739070892B11F00E949A01FE
:1003D00008951F920F920FB60F9211242F933F93FF
:1003E0008F939F93EF93FF932091A3023091A402E8
:1003F0008091A5029091A6022817390731F48091C7
:10040000C1008F7D8093C10014C0E091A502F091DE
:10041000A602ED59FD4F20818091A5029091A60280
:1004200001968F7390709093A6028093A5022093FB
:10043000C600FF91EF919F918F913F912F910F9067
:100440000FBE0F901F901895AF92BF92DF92EF9260
:10045000FF920F931F93CF93DF93EC017A018B01EF
:10046000DD24403081EE580780E0680780E078079F
:1004700011F0DD24D39491E0A92EB12CEC89FD89F3
:10048000DD2069F0C50108A002C0880F991F0A94F9
:10049000E2F7808360E079E08DE390E005C01082B0
:1004A00060E874E88EE190E0A80197010E9444059D
:1004B00021503040404050405695479537952795FC
:1004C00080E12030380720F0DD2011F0DD24D6CF88
:1004D000E889F9893083EA89FB89208319A2EE89AA
:1004E000FF89408121E030E0C9010C8C02C0880FF7
:1004F000991F0A94E2F7482B4083EE89FF894081D7
:10050000C9010D8C02C0880F991F0A94E2F7482B8D
:100510004083EE89FF894081C9010E8C02C0880F9B
:10052000991F0A94E2F7482B4083EE89FF89808166
:100530000F8C02C0220F331F0A94E2F72095282364
:100540002083DF91CF911F910F91FF90EF90DF906B
:10055000BF90AF900895DC011C96ED91FC911D9722
:10056000E05CFF4F2191319180819181281B390BF3
:100570002F733070C9010895DC011C96ED91FC9138
:100580001D97E05CFF4F20813181E054F040DF0196
:10059000AE5BBF4F8D919C9111972817390719F4C5
:1005A0002FEF3FEF07C08D919C91E80FF91F8081DD
:1005B000282F30E0C9010895DC011C96ED91FC91D3
:1005C0001D97E05CFF4F20813181E054F040DF0156
:1005D000AE5BBF4F8D919C9111972817390719F485
:1005E0002FEF3FEF10C08D919C911197E80FF91FED
:1005F00020818D919C91119701968F739070119627
:100600009C938E9330E0C9010895DC0191968C9102
:100610009197882339F05496ED91FC9155978081FC
:1006200086FFF9CF91961C920895CF93DF93EC014A
:10063000EE85FF85E05CFF4F20813181E054F04082
:100640002F5F3F4F2F733070DF01AE5BBF4F8D9137
:100650009C91119728173907D1F3E05CFF4F8081F7
:100660009181E054F040E80FF91F6083EE85FF852B
:10067000E05CFF4F31832083EE89FF89208181E098
:1006800090E00F8C02C0880F991F0A94E2F7282B84
:10069000208381E089A3EC89FD8980818064808347
:1006A00081E090E0DF91CF9108951092AA0210921C
:1006B000A90288EE93E0A0E0B0E08093AB029093B3
:1006C000AC02A093AD02B093AE028DE092E09093A5
:1006D000A8028093A7028FE192E09093B4028093E6
:1006E000B30283E692E09093B6028093B50285EC64
:1006F00090E09093B8028093B70284EC90E09093DE
:10070000BA028093B90280EC90E09093BC0280938F
:10071000BB0281EC90E09093BE028093BD0282EC1C
:1007200090E09093C0028093BF0286EC90E090939B
:10073000C2028093C10284E08093C30283E080936D
:10074000C40287E08093C50285E08093C60281E001
:100750008093C7020895CF92DF92EF92FF920F939A
:100760001F93CF93DF937C016B018A01C0E0D0E03F
:100770000FC0D6016D916D01D701ED91FC910190F3
:10078000F081E02DC7010995C80FD91F0150104015
:100790000115110571F7CE01DF91CF911F910F91D6
:1007A000FF90EF90DF90CF900895EF92FF920F931C
:1007B0001F938C01DC01ED91FC910190F081E02D03
:1007C0006DE009957C01D801ED91FC910190F081DB
:1007D000E02DC8016AE009959C012E0D3F1DC9015D
:1007E0001F910F91FF90EF900895CF93DF93EC014D
:1007F0006115710519F420E030E00FC0DB010D90A8
:100800000020E9F71197A61BB70BE881F981028058
:10081000F381E02DAD0109959C01C901DF91CF91D4
:1008200008954F925F927F928F929F92AF92BF9264
:10083000CF92DF92EF92FF920F931F93DF93CF93AC
:10084000CDB7DEB7A1970FB6F894DEBF0FBECDBF10
:100850002C01742ECB01223008F42AE019A231E2D7
:10086000C32ED12CCC0EDD1E822E9924AA24BB24AB
:10087000672D752FA50194010E94440579018A0115
:10088000C801B701A50194010E942505472D461B0B
:100890000894C108D1084A3014F4405D01C0495C95
:1008A000F6014083E114F1040105110521F07E2CCD
:1008B0005F2DC801DDCFC201B6010E94F503A196EC
:1008C0000FB6F894DEBF0FBECDBFCF91DF911F9161
:1008D0000F91FF90EF90DF90CF90BF90AF909F90DF
:1008E0008F907F905F904F900895DC012115310526
:1008F00041F4ED91FC910190F081E02D642F099578
:1009000008950E9411040895CF92DF92EF92FF9212
:100910000F931F936C01E62E9A01FF2400E010E074
:10092000B801A7010E9475048C01C6010E94D5037D
:10093000080F191FC8011F910F91FF90EF90DF90D2
:10094000CF9008951F920F920FB60F9211242F93FC
:100950003F938F939F93AF93BF938091CD029091DC
:10096000CE02A091CF02B091D0023091D102019677
:10097000A11DB11D232F2D5F2D3720F02D5701967E
:10098000A11DB11D2093D1028093CD029093CE0280
:10099000A093CF02B093D0028091C9029091CA0275
:1009A000A091CB02B091CC020196A11DB11D809304
:1009B000C9029093CA02A093CB02B093CC02BF911C
:1009C000AF919F918F913F912F910F900FBE0F90FC
:1009D0001F901895789484B5826084BD84B5816039
:1009E00084BD85B5826085BD85B5816085BDEEE637
:1009F000F0E0808181608083E1E8F0E01082808116
:100A000082608083808181608083E0E8F0E0808183
:100A100081608083E1EBF0E0808184608083E0EBA3
:100A2000F0E0808181608083EAE7F0E0808184608B
:100A300080838081826080838081816080838081E7
:100A4000806880831092C1000895629FD001739FD7
:100A5000F001829FE00DF11D649FE00DF11D929F5A
:100A6000F00D839FF00D749FF00D659FF00D992799
:100A7000729FB00DE11DF91F639FB00DE11DF91FBD
:100A8000BD01CF0111240895A1E21A2EAA1BBB1BA0
:100A9000FD010DC0AA1FBB1FEE1FFF1FA217B3074A
:100AA000E407F50720F0A21BB30BE40BF50B661F60
:100AB000771F881F991F1A9469F760957095809524
:100AC00090959B01AC01BD01CF01089597FB092EC4
:100AD00005260ED057FD04D0D7DF0AD0001C38F40D
:100AE00050954095309521953F4F4F4F5F4F08955A
:100AF000F6F790958095709561957F4F8F4F9F4F3A
:100B00000895EE0FFF1F0590F491E02D0994F894DD
:020B1000FFCF15
:100B120040010110DC1DDC1D202326292C2F31343D
:100B220036383A3C3D3E3F3F3F3F3F3E3D3C3A3800
:100B32003634312F2C292623201D1A1714110F0C9D
:100B42000A08060403020101000101020304060867
:100B52000A0C0F1114171A1D0001020304050607DF
:100B620008090A0B0C0D0E0F10111213141516178B
:100B720018191A1B1C1D1E1F20212223242526277B
:100B820028292A2B2C2D2E2F30313233343536376B
:100B920038393A3B3C3D3E3F00020406080A0C0E3F
:100BA20010121416181A1C1E20222426282A2C2E53
:100BB20030323436383A3C3E3E3C3A3836343230C3
:100BC2002E2C2A28262422201E1C1A181614121033
:100BD2000E0C0A08060402000000000000000000DB
:100BE2000000000000000000000000000000000003
:100BF20000000000000000003F3F3F3F3F3F3F3FFB
:100C02003F3F3F3F3F3F3F3F3F3F3F3F3F3F3F3FF2
:100C12003F3F3F3F3F3F3F0001000000001503AB55
:0A0C220003AB02DC02BC0205030074
:00000001FF
