:100000000C9471000C9499000C9499000C94990034
:100010000C9499000C9499000C9499000C949900FC
:100020000C9499000C9499000C9499000C949900EC
:100030000C9499000C9499000C9499000C949900DC
:100040000C949D010C9499000C94D2020C94200302
:100050000C9499000C9499000C9499000C949900BC
:100060000C9499000C94990005A84CCDB2D44EB9CB
:100070003836A9020C50B9918688083CA6AAAA2A4B
:10008000BE000000803F00000000240027002A007E
:1000900000000000250028002B00000000002300C5
:1000A00026002900040404040404040402020202D9
:1000B000020203030303030301020408102040802B
:1000C00001020408102001020408102000000007AB
:1000D0000002010000030406000000000000000010
:1000E0008C0411241FBECFEFD8E0DEBFCDBF11E0DE
:1000F000A0E0B1E0E4ECF4E102C005900D92A23A78
:10010000B107D9F712E0A2EAB1E001C01D92A5350E
:10011000B107E1F710E0C2EED0E004C02297FE0183
:100120000E945C0AC03ED107C9F70E94C2020C942B
:10013000600A0C940000CF92DF92EF92FF920F932F
:100140001F9320E030E040EA5DE30E94AE070E948A
:1001500016087B018C0183E3C82E82E0D82EC601ED
:1001600060E071E00E943806C601B7014AE050E045
:100170000E941906C60165E171E00E943806C601B9
:100180006E2D42E050E00E94BB058E2D1F910F9115
:10019000FF90EF90DF90CF900895AF92BF92CF92F3
:1001A000DF92EF92FF920F931F93DF93CF93CDB720
:1001B000DEB7CF57D0400FB6F894DEBF0FBECDBF2D
:1001C0006C0183E392E060E471E00E943207B601C3
:1001D00026E0660F771F2A95E1F781E090E00E9404
:1001E000110A882777FD8095982F20E432E44FE0AC
:1001F00050E00E94F2099B01AC0183E392E0B90157
:100200004AE050E00E9419067E010894E11CF11CAE
:1002100000E010E091E8A92EB12CAC0EBD1EB80193
:10022000882777FD8095982F0E94490823EC35EFA9
:1002300048EC5DE30E94FD080E94600920E030E088
:1002400040E250E40E94FD0820E030E040E250E44B
:100250000E9446070E949B00880F880FF701819338
:100260007F010C0D1D1DEA15FB05C9F600E010E02D
:100270007E010894E11CF11C02C000E010E0F701CF
:10028000E00FF11F80818BB983E290E00E943E0273
:100290000F5F1F4F0F37110581F3003811057CF3F5
:1002A00083E392E062E571E00E943207C158DF4FBC
:1002B0000FB6F894DEBF0FBECDBFCF91DF911F9177
:1002C0000F91FF90EF90DF90CF90BF90AF90089587
:1002D00088EB91E00E94CD0008951F9383E392E0A4
:1002E00040E855E260E070E00E945B0312E0812F7D
:1002F00061E00E9483021F5F1830C9F783E392E038
:1003000065E671E00E9432076AB183E392E042E061
:1003100050E00E94BB0568EE73E080E090E00E9430
:10032000E50183E392E040E050E060E171E422E027
:1003300030E00E941F071F9108951F920F920FB681
:100340000F9211242F933F938F939F93AF93BF935B
:100350008091A6019091A701A091A801B091A90157
:100360003091AA010196A11DB11D232F2D5F2D37BC
:1003700020F02D570196A11DB11D2093AA01809355
:10038000A6019093A701A093A801B093A901809121
:10039000A2019091A301A091A401B091A5010196A1
:1003A000A11DB11D8093A2019093A301A093A4016C
:1003B000B093A501BF91AF919F918F913F912F91E4
:1003C0000F900FBE0F901F9018959B01AC017FB747
:1003D000F8948091A2019091A301A091A401B09101
:1003E000A50166B5A89B05C06F3F19F00196A11D38
:1003F000B11D7FBFBA2FA92F982F8827860F911D77
:10040000A11DB11D62E0880F991FAA1FBB1F6A952D
:10041000D1F7BC012DC0FFB7F8948091A201909153
:10042000A301A091A401B091A501E6B5A89B05C0C8
:10043000EF3F19F00196A11DB11DFFBFBA2FA92FE3
:10044000982F88278E0F911DA11DB11DE2E0880F06
:10045000991FAA1FBB1FEA95D1F7861B970B885ED1
:100460009340C8F2215030404040504068517C4F8A
:10047000211531054105510571F60895019739F0AF
:10048000880F991F880F991F02970197F1F7089518
:10049000789484B5826084BD84B5816084BD85B55F
:1004A000826085BD85B5816085BDEEE6F0E0808126
:1004B00081608083E1E8F0E0108280818260808347
:1004C000808181608083E0E8F0E0808181608083CA
:1004D000E1EBF0E0808184608083E0EBF0E08081FC
:1004E00081608083EAE7F0E080818460808380819E
:1004F0008260808380818160808380818068808346
:100500001092C1000895CF93DF93482F50E0CA01A5
:1005100088549F4FFC0134914C555F4FFA018491F0
:10052000882369F190E0880F991FFC01EA57FF4F7B
:10053000A591B491FC01E057FF4FC591D49166237A
:1005400051F42FB7F8948C91932F909589238C9325
:10055000888189230BC0623061F42FB7F8948C91A5
:10056000932F909589238C938881832B88832FBF29
:1005700006C09FB7F8948C91832B8C939FBFDF911B
:10058000CF910895CF93DF930E9448020E946D019E
:10059000CDE0D3E00E9468012097E1F30E940D03B3
:1005A000F9CF08951F920F920FB60F9211242F9337
:1005B0003F934F938F939F93EF93FF938091C0004E
:1005C00082FD1DC04091C6002091EB013091EC01ED
:1005D0002F5F3F4F2F7330708091ED019091EE01AE
:1005E0002817390771F0E091EB01F091EC01E55526
:1005F000FE4F40833093EC012093EB0102C08091C9
:10060000C600FF91EF919F918F914F913F912F9154
:100610000F900FBE0F901F901895E0913F02F09140
:100620004002E05CFF4F8191919120813181821BDA
:10063000930B8F739070892B11F00E94D102089553
:100640001F920F920FB60F9211242F933F938F9307
:100650009F93EF93FF9320912F023091300280916E
:100660003102909132022817390731F48091C1008C
:100670008F7D8093C10014C0E0913102F09132026D
:10068000E151FE4F2081809131029091320201961A
:100690008F73907090933202809331022093C60042
:1006A000FF91EF919F918F913F912F910F900FBEEE
:1006B0000F901F901895AF92BF92DF92EF92FF922A
:1006C0000F931F93CF93DF93EC017A018B01DD240D
:1006D000403081EE580780E0680780E0780711F02D
:1006E000DD24D39491E0A92EB12CEC89FD89DD2085
:1006F00069F0C50108A002C0880F991F0A94E2F7AB
:10070000808360E079E08DE390E005C0108260E8CE
:1007100074E88EE190E0A80197010E94240A21501C
:10072000304040405040569547953795279580E199
:100730002030380720F0DD2011F0DD24D6CFE88905
:10074000F9893083EA89FB89208319A2EE89FF8920
:10075000408121E030E0C9010C8C02C0880F991F54
:100760000A94E2F7482B4083EE89FF894081C90152
:100770000D8C02C0880F991F0A94E2F7482B408322
:10078000EE89FF894081C9010E8C02C0880F991F34
:100790000A94E2F7482B4083EE89FF8980810F8C11
:1007A00002C0220F331F0A94E2F7209528232083EA
:1007B000DF91CF911F910F91FF90EF90DF90BF904D
:1007C000AF900895DC011C96ED91FC911D97E05CC3
:1007D000FF4F2191319180819181281B390B2F731B
:1007E0003070C9010895DC011C96ED91FC911D97B4
:1007F000E05CFF4F20813181E054F040DF01AE5BCF
:10080000BF4F8D919C9111972817390719F42FEF3D
:100810003FEF07C08D919C91E80FF91F8081282F31
:1008200030E0C9010895DC011C96ED91FC911D9703
:10083000E05CFF4F20813181E054F040DF01AE5B8E
:10084000BF4F8D919C9111972817390719F42FEFFD
:100850003FEF10C08D919C911197E80FF91F2081F7
:100860008D919C91119701968F73907011969C9326
:100870008E9330E0C9010895DC0191968C91919797
:10088000882339F05496ED91FC915597808186FF2D
:10089000F9CF91961C920895CF93DF93EC01EE85EA
:1008A000FF85E05CFF4F20813181E054F0402F5FF5
:1008B0003F4F2F733070DF01AE5BBF4F8D919C9126
:1008C000119728173907D1F3E05CFF4F80819181A0
:1008D000E054F040E80FF91F6083EE85FF85E05C8F
:1008E000FF4F31832083EE89FF89208181E090E0F2
:1008F0000F8C02C0880F991F0A94E2F7282B2083DF
:1009000081E089A3EC89FD8980818064808381E016
:1009100090E0DF91CF910895109236021092350247
:1009200088EE93E0A0E0B0E0809337029093380225
:10093000A0933902B0933A0285E991E09093340292
:10094000809333028BEA91E09093400280933F02C0
:100950008FEE91E0909342028093410285EC90E00B
:10096000909344028093430284EC90E0909346027B
:100970008093450280EC90E0909348028093470278
:1009800081EC90E090934A028093490282EC90E0DF
:1009900090934C0280934B0286EC90E090934E0231
:1009A00080934D0284E080934F0283E08093500255
:1009B00087E08093510285E08093520281E080932A
:1009C00053020895CF92DF92EF92FF920F931F93FD
:1009D000CF93DF937C016B018A01C0E0D0E00FC0B0
:1009E000D6016D916D01D701ED91FC910190F081DF
:1009F000E02DC7010995C80FD91F015010400115FE
:100A0000110571F7CE01DF91CF911F910F91FF90EA
:100A1000EF90DF90CF900895EF92FF920F931F9386
:100A20008C01DC01ED91FC910190F081E02D6DE0F5
:100A300009957C01D801ED91FC910190F081E02DA8
:100A4000C8016AE009959C012E0D3F1DC9011F9147
:100A50000F91FF90EF900895CF93DF93EC01611514
:100A6000710519F420E030E00FC0DB010D9000208B
:100A7000E9F71197A61BB70BE881F9810280F38192
:100A8000E02DAD0109959C01C901DF91CF91089539
:100A90004F925F927F928F929F92AF92BF92CF922E
:100AA000DF92EF92FF920F931F93DF93CF93CDB717
:100AB000DEB7A1970FB6F894DEBF0FBECDBF2C01F5
:100AC000742ECB01223008F42AE019A231E2C32EA1
:100AD000D12CCC0EDD1E822E9924AA24BB24672D96
:100AE000752FA50194010E94240A79018A01C80189
:100AF000B701A50194010E94F209472D461B0894F5
:100B0000C108D1084A3014F4405D01C0495CF601C7
:100B10004083E114F1040105110521F07E2C5F2DC5
:100B2000C801DDCFC201B6010E942C05A1960FB607
:100B3000F894DEBF0FBECDBFCF91DF911F910F9113
:100B4000FF90EF90DF90CF90BF90AF909F908F90ED
:100B50007F905F904F900895DC012115310541F49D
:100B6000ED91FC910190F081E02D642F099508959D
:100B70000E9448050895CF92DF92EF92FF920F9363
:100B80001F936C01E62E9A01FF2400E010E0B801EB
:100B9000A7010E94AC058C01C6010E940C05080F3C
:100BA000191FC8011F910F91FF90EF90DF90CF9018
:100BB0000895CF92DF92EF92FF920F931F93CF93FE
:100BC000DF93EC016A017B012115310541F4E881D5
:100BD000F9810190F081E02D642F09951FC02A3022
:100BE0003105D1F477FF17C0E881F9810190F081D8
:100BF000E02D6DE209958C0144275527BA014C1967
:100C00005D096E097F09CE012AE00E94480598011E
:100C1000280F391F04C02AE00E9448059C01C90121
:100C2000DF91CF911F910F91FF90EF90DF90CF90C8
:100C30000895CF92DF92EF92FF920F931F936C0172
:100C40007B019A010027F7FC0095102FB801A7013E
:100C50000E94D9058C01C6010E940C05080F191FBE
:100C6000C8011F910F91FF90EF90DF90CF900895F2
:100C70000E942C0508957F928F929F92AF92BF920F
:100C8000CF92DF92EF92FF920F931F93CF93DF9358
:100C90004C017A018B01722ECB01BA01A801970198
:100CA0000E946609882321F0C40163E871E021C035
:100CB000C0E0D0E057016801E894D7F8C601B5015B
:100CC0002FEF3FEF4FE75FE70E946609882351F45B
:100CD000C601B5012FEF3FEF4FE75FE70E94AA077C
:100CE000181614F0C1E0D0E0219739F0C40167E88C
:100CF00071E00E942C05EC0193C0C801B7012FEFF1
:100D00003FEF4FE75FE40E94F908181654F0C8015E
:100D1000B7012FEF3FEF4FE75FEC0E94AA07882350
:100D200024F4C4016BE871E0E4CFC801B70120E00E
:100D300030E040E050E00E94AA0787FD03C0C0E019
:100D4000D0E00EC0D401ED91FC910190F081E02D36
:100D5000C4016DE20995EC0117FB109517F9109588
:100D600020E030E040E05FE3DD240BC0CA01B901C0
:100D700020E030E040E251E40E94AE079B01AC016C
:100D8000D394D71498F3C801B7010E9446075B01BA
:100D90006C010E941B087B018C01C401B801A701F2
:100DA0002AE030E00E94AC05C80FD91F772039F047
:100DB000C4016FE871E00E942C05C80FD91FC8015B
:100DC000B7010E9447089B01AC01C601B5010E9412
:100DD000450724C020E030E040E251E40E94FD08D5
:100DE0007B018C010E9416085B016C01CC24B7FCCE
:100DF000C094DC2CC401B601A5012AE030E00E94B9
:100E0000D905C80FD91FC601B5010E9449089B0129
:100E1000AC01C801B7010E9445077A947720D1F64A
:100E2000CE01DF91CF911F910F91FF90EF90DF9056
:100E3000CF90BF90AF909F908F907F900895EF924A
:100E4000FF920F931F937C010E943B068C01C70108
:100E50000E940C05080F191FC8011F910F91FF90E8
:100E6000EF900895EF92FF920F931F937C010E94E1
:100E70002C058C01C7010E940C05080F191FC80121
:100E80001F910F91FF90EF9008955058BB27AA270C
:100E90000ED075C166D130F06BD120F031F49F3F98
:100EA00011F41EF45BC10EF4E095E7FB51C1E92F8C
:100EB00077D180F3BA17620773078407950718F094
:100EC00071F49EF58FC10EF4E0950B2EBA2FA02D74
:100ED0000B01B90190010C01CA01A0011124FF27E7
:100EE000591B99F0593F50F4503E68F11A16F040E2
:100EF000A22F232F342F4427585FF3CF46953795E1
:100F00002795A795F0405395C9F77EF41F16BA0BA5
:100F1000620B730B840BBAF09150A1F0FF0FBB1F53
:100F2000661F771F881FC2F70EC0BA0F621F731F9C
:100F3000841F48F4879577956795B795F7959E3FF9
:100F400008F0B3CF9395880F08F09927EE0F979587
:100F500087950895D9D008F481E008950CD00FC189
:100F600007D140F0FED030F021F45F3F19F0F0C01F
:100F7000511139C1F3C014D198F39923C9F3552302
:100F8000B1F3951B550BBB27AA276217730784077C
:100F900038F09F5F5F4F220F331F441FAA1FA9F332
:100FA00033D00E2E3AF0E0E830D091505040E69524
:100FB000001CCAF729D0FE2F27D0660F771F881F85
:100FC000BB1F261737074807AB07B0E809F0BB0B74
:100FD000802DBF01FF2793585F4F2AF09E3F510598
:100FE00068F0B6C000C15F3FECF3983EDCF3869535
:100FF00077956795B795F7959F5FC9F7880F911D0E
:101000009695879597F90895E1E0660F771F881FF9
:10101000BB1F621773078407BA0720F0621B730BAC
:10102000840BBA0BEE1F88F7E095089504D06894FE
:10103000B111D9C00895BCD088F09F5790F0B92F56
:101040009927B751A0F0D1F0660F771F881F991F1D
:101050001AF0BA95C9F712C0B13081F0C3D0B1E02F
:101060000895C0C0672F782F8827B85F39F0B93F3F
:10107000CCF3869577956795B395D9F73EF490951F
:101080008095709561957F4F8F4F9F4F0895E8949D
:1010900009C097FB3EF490958095709561957F4FC0
:1010A0008F4F9F4F9923A9F0F92F96E9BB2793956E
:1010B000F695879577956795B795F111F8CFFAF47E
:1010C000BB0F11F460FF1BC06F5F7F4F8F4F9F4FAF
:1010D00016C0882311F096E911C0772321F09EE80D
:1010E000872F762F05C0662371F096E8862F70E073
:1010F00060E02AF09A95660F771F881FDAF7880F4D
:101100009695879597F90895990F0008550FAA0BA2
:10111000E0E8FEEF16161706E807F907C0F012160A
:101120001306E407F50798F0621B730B840B950B0D
:1011300039F40A2661F0232B242B252B21F4089562
:101140000A2609F4A140A6958FEF811D811D0895FF
:1011500097F99F6780E870E060E008959FEF80EC6A
:10116000089500240A94161617061806090608950D
:1011700000240A9412161306140605060895092E73
:101180000394000C11F4882352F0BB0F40F4BF2BE2
:1011900011F460FF04C06F5F7F4F8F4F9F4F089522
:1011A00057FD9058440F551F59F05F3F71F0479518
:1011B000880F97FB991F61F09F3F79F087950895FD
:1011C000121613061406551FF2CF4695F1DF08C01C
:1011D000161617061806991FF1CF86957105610539
:1011E00008940895E894BB2766277727CB0197F9E1
:1011F00008958ADF08F48FEF08950BD0C0CFB1DFD8
:1012000028F0B6DF18F0952309F0A2CFA7CF11245C
:10121000EACFC6DFA0F3959FD1F3950F50E0551F9D
:10122000629FF001729FBB27F00DB11D639FAA273B
:10123000F00DB11DAA1F649F6627B00DA11D661F8A
:10124000829F2227B00DA11D621F739FB00DA11DAB
:10125000621F839FA00D611D221F749F3327A00D65
:10126000611D231F849F600D211D822F762F6A2F01
:1012700011249F5750408AF0E1F088234AF0EE0F86
:10128000FF1FBB1F661F771F881F91505040A9F793
:101290009E3F510570F05CCFA6CF5F3FECF3983EC8
:1012A000DCF3869577956795B795F795E7959F5FFA
:1012B000C1F7FE2B880F911D9695879597F9089594
:1012C0009F9309D00F9007FCEE5F35C01DDF880BA0
:1012D000990B089543CF6CDFE8F3E894EFEFBB2759
:1012E0003FE048EC5FE76B3D73078407950708F123
:1012F000FF279F57B25A6A4D7F40894CF04032F425
:10130000BE556542704F8643FF4F0894EE1F9150C3
:1013100030F0BB0F661F771F881FFF1FEBCF9EE7C4
:10132000882332F0BB0F661F771F881F9A95C1F77D
:101330009395E09511C0EF93E0FF06C0A2EA2AED75
:101340003FE049EC5FEBB3DD1ADF0F90039401FC43
:101350009058E8E6F0E010C09F3F49F0915028F423
:10136000869577956795B7959F5F80389F4F880FD3
:101370009695879597F908959F938F937F936F9391
:10138000FF93EF939B01AC0138DFEF91FF9105D004
:101390002F913F914F915F9130CFDF93CF931F9368
:1013A0000F93FF92EF92DF927B018C01689405C04E
:1013B000DA2EEF012EDFFE01E894A59125913591FB
:1013C00045915591AEF3EF0172DDFE019701A80141
:1013D000DA9479F7DF90EF90FF900F911F91CF9102
:1013E000DF910895629FD001739FF001829FE00D0D
:1013F000F11D649FE00DF11D929FF00D839FF00D94
:10140000749FF00D659FF00D9927729FB00DE11D3F
:10141000F91F639FB00DE11DF91FBD01CF0111241C
:10142000089597FB092E07260AD077FD04D02ED009
:1014300006D000201AF4709561957F4F0895F6F755
:10144000909581959F4F0895A1E21A2EAA1BBB1B70
:10145000FD010DC0AA1FBB1FEE1FFF1FA217B30780
:10146000E407F50720F0A21BB30BE40BF50B661F96
:10147000771F881F991F1A9469F76095709580955A
:1014800090959B01AC01BD01CF010895AA1BBB1B28
:1014900051E107C0AA1FBB1FA617B70710F0A61B74
:1014A000B70B881F991F5A95A9F780959095BC0195
:1014B000CD010895EE0FFF1F0590F491E02D0994E2
:0414C000F894FFCFCE
:1014C4005468652073746570206E756D6265722052
:1014D40069733A200054686973206E756D62657291
:1014E40020636F6E76657274656420746F20362095
:1014F4006269742062696E6172792069733A2000AE
:101504005468652064656C617974696D65206973DC
:101514003A004C656674206C617374207768696C5A
:10152400652E2E2E00546865204444524220726574
:101534006769737465722076616C75657320617276
:10154400653A006E616E00696E66006F7666002E05
:1015540000000000004C04E204E2031304F3033C23
:02156400040081
:00000001FF
