:100000000C9435000C945D000C945D000C945D0024
:100010000C945D000C945D000C945D000C945D00EC
:100020000C945D000C945D000C945D000C945D00DC
:100030000C945D000C945D000C945D000C945D00CC
:100040000C9475000C945D000C9461010C94AF014C
:100050000C945D000C945D000C945D000C945D00AC
:100060000C945D000C945D001B0311241FBECFEFA8
:10007000D8E0DEBFCDBF11E0A0E0B1E0E8E2F8E0FB
:1000800002C005900D92A632B107D9F711E0A6E2A1
:10009000B1E001C01D92A93DB107E1F710E0CAE649
:1000A000D0E004C02297FE010E940E04C836D1079A
:1000B000C9F70E9451010C9412040C94000087EBC4
:1000C00091E060E071E00E94D70368EE73E080E0A9
:1000D00090E00E94BD00089587EB91E040E855E272
:1000E00060E070E00E94EA0108951F920F920FB63F
:1000F0000F9211242F933F938F939F93AF93BF93AE
:1001000080912A0190912B01A0912C01B0912D0199
:1001100030912E010196A11DB11D232F2D5F2D378A
:1001200020F02D570196A11DB11D20932E01809323
:100130002A0190932B01A0932C01B0932D01809163
:10014000260190912701A0912801B09129010196E3
:10015000A11DB11D8093260190932701A093280132
:10016000B0932901BF91AF919F918F913F912F91B2
:100170000F900FBE0F901F9018959B01AC017FB799
:10018000F8948091260190912701A0912801B091C7
:10019000290166B5A89B05C06F3F19F00196A11D06
:1001A000B11D7FBFBA2FA92F982F8827860F911DC9
:1001B000A11DB11D62E0880F991FAA1FBB1F6A9580
:1001C000D1F7BC012DC0FFB7F89480912601909122
:1001D0002701A0912801B0912901E6B5A89B05C08F
:1001E000EF3F19F00196A11DB11DFFBFBA2FA92F36
:1001F000982F88278E0F911DA11DB11DE2E0880F59
:10020000991FAA1FBB1FEA95D1F7861B970B885E23
:100210009340C8F2215030404040504068517C4FDC
:10022000211531054105510571F60895789484B57D
:10023000826084BD84B5816084BD85B5826085BDE2
:1002400085B5816085BDEEE6F0E0808181608083C8
:10025000E1E8F0E0108280818260808380818160AB
:100260008083E0E8F0E0808181608083E1EBF0E072
:10027000808184608083E0EBF0E080818160808316
:10028000EAE7F0E0808184608083808182608083FF
:100290008081816080838081806880831092C1002A
:1002A0000895CF93DF930E9416010E946C00CCE961
:1002B000D1E00E945F002097E1F30E949C01F9CFFA
:1002C00008951F920F920FB60F9211242F933F9310
:1002D0004F938F939F93EF93FF938091C00082FD84
:1002E0001DC04091C60020916F01309170012F5FB9
:1002F0003F4F2F73307080917101909172012817D8
:10030000390771F0E0916F01F0917001E15DFE4FEE
:1003100040833093700120936F0102C08091C6002A
:10032000FF91EF919F918F914F913F912F910F905E
:100330000FBE0F901F901895E091C301F091C4017A
:10034000E05CFF4F8191919120813181821B930B61
:100350008F739070892B11F00E94600108951F9295
:100360000F920FB60F9211242F933F938F939F9369
:10037000EF93FF932091B3013091B4018091B501C7
:100380009091B6012817390731F48091C1008F7D13
:100390008093C10014C0E091B501F091B601ED5811
:1003A000FE4F20818091B5019091B60101968F7327
:1003B00090709093B6018093B5012093C600FF9191
:1003C000EF919F918F913F912F910F900FBE0F90C2
:1003D0001F901895AF92BF92DF92EF92FF920F930A
:1003E0001F93CF93DF93EC017A018B01DD24403022
:1003F00081EE580780E0680780E0780711F0DD247F
:10040000D39491E0A92EB12CEC89FD89DD2069F00F
:10041000C50108A002C0880F991F0A94E2F78083E3
:1004200060E079E08DE390E005C0108260E874E858
:100430008EE190E0A80197010E94EA03215030402C
:1004400040405040569547953795279580E120309C
:10045000380720F0DD2011F0DD24D6CFE889F989B6
:100460003083EA89FB89208319A2EE89FF894081C4
:1004700021E030E0C9010C8C02C0880F991F0A945A
:10048000E2F7482B4083EE89FF894081C9010D8C3A
:1004900002C0880F991F0A94E2F7482B4083EE8927
:1004A000FF894081C9010E8C02C0880F991F0A94F0
:1004B000E2F7482B4083EE89FF8980810F8C02C0D0
:1004C000220F331F0A94E2F7209528232083DF911F
:1004D000CF911F910F91FF90EF90DF90BF90AF9061
:1004E0000895DC011C96ED91FC911D97E05CFF4F97
:1004F0002191319180819181281B390B2F733070AC
:10050000C9010895DC011C96ED91FC911D97E05CFA
:10051000FF4F20813181E054F040DF01AE5BBF4FDF
:100520008D919C9111972817390719F42FEF3FEF00
:1005300007C08D919C91E80FF91F8081282F30E032
:10054000C9010895DC011C96ED91FC911D97E05CBA
:10055000FF4F20813181E054F040DF01AE5BBF4F9F
:100560008D919C9111972817390719F42FEF3FEFC0
:1005700010C08D919C911197E80FF91F20818D91EA
:100580009C91119701968F73907011969C938E9306
:1005900030E0C9010895DC0191968C9191978823F0
:1005A00039F05496ED91FC915597808186FFF9CFF3
:1005B00091961C920895CF93DF93EC01EE85FF8511
:1005C000E05CFF4F20813181E054F0402F5F3F4FCE
:1005D0002F733070DF01AE5BBF4F8D919C911197EF
:1005E00028173907D1F3E05CFF4F80819181E054F7
:1005F000F040E80FF91F6083EE85FF85E05CFF4F58
:1006000031832083EE89FF89208181E090E00F8C87
:1006100002C0880F991F0A94E2F7282B208381E0FB
:1006200089A3EC89FD8980818064808381E090E0EA
:10063000DF91CF9108951092BA011092B90188EE1E
:1006400093E0A0E0B0E08093BB019093BC01A09345
:10065000BD01B093BE0189E191E09093B801809310
:10066000B7018FE291E09093C4018093C30183E7C7
:1006700091E09093C6018093C50185EC90E0909342
:10068000C8018093C70184EC90E09093CA018093E5
:10069000C90180EC90E09093CC018093CB0181EC78
:1006A00090E09093CE018093CD0182EC90E0909306
:1006B000D0018093CF0186EC90E09093D20180939B
:1006C000D10184E08093D30183E08093D40187E05B
:1006D0008093D50185E08093D60181E08093D70196
:1006E0000895CF92DF92EF92FF920F931F93CF93D3
:1006F000DF937C016B018A01C0E0D0E00FC0D6011E
:100700006D916D01D701ED91FC910190F081E02D8B
:10071000C7010995C80FD91F0150104001151105D7
:1007200071F7CE01DF91CF911F910F91FF90EF9064
:10073000DF90CF900895EF92FF920F931F938C015B
:10074000DC01ED91FC910190F081E02D6DE00995C7
:100750007C01D801ED91FC910190F081E02DC80160
:100760006AE009959C012E0D3F1DC9011F910F9153
:10077000FF90EF900895CF93DF93EC016115710521
:1007800019F420E030E00FC0DB010D900020E9F704
:100790001197A61BB70BE881F9810280F381E02D48
:1007A000AD0109959C01C901DF91CF910895EF92A8
:1007B000FF920F931F937C010E94BB038C01C70122
:1007C0000E949B03080F191FC8011F910F91FF90F2
:1007D000EF900895A1E21A2EAA1BBB1BFD010DC0CC
:1007E000AA1FBB1FEE1FFF1FA217B307E407F507E1
:1007F00020F0A21BB30BE40BF50B661F771F881FBD
:10080000991F1A9469F760957095809590959B0152
:10081000AC01BD01CF010895EE0FFF1F0590F491CB
:08082000E02D0994F894FFCFCC
:10082800414D2049204245494E4720414E4E4F599F
:10083800494E473F0000000000DB0271037102A22D
:06084800028202CB020057
:00000001FF
