:100000000C9461000C947E000C947E000C947E0095
:100010000C947E000C947E000C947E000C947E0068
:100020000C947E000C947E000C947E000C947E0058
:100030000C947E000C947E000C947E000C947E0048
:100040000C949B000C947E000C947E000C947E001B
:100050000C947E000C947E000C947E000C947E0028
:100060000C947E000C947E00000000002400270009
:100070002A0000000000250028002B0000000000DE
:1000800023002600290004040404040404040202DA
:100090000202020203030303030301020408102007
:1000A0004080010204081020010204081020000012
:1000B0000007000201000003040600000000000029
:1000C000000011241FBECFEFD8E0DEBFCDBF11E08E
:1000D000A0E0B1E0EEE8F3E002C005900D92A030A0
:1000E000B107D9F711E0A0E0B1E001C01D92A9303D
:1000F000B107E1F70E94B6010C94C5010C94000011
:100100002D9A64E670E080E090E00E94E30085B103
:1001100085B964E873E080E090E00E94E300089510
:100120008FEF84B98CE061E00E9477018DE061E09F
:100130000E94770108951F920F920FB60F9211241B
:100140002F933F938F939F93AF93BF93809104011D
:1001500090910501A0910601B0910701309108012D
:100160000196A11DB11D232F2D5F2D3720F02D5796
:100170000196A11DB11D2093080180930401909365
:100180000501A0930601B0930701809100019091B1
:100190000101A0910201B09103010196A11DB11DC1
:1001A0008093000190930101A0930201B093030199
:1001B000BF91AF919F918F913F912F910F900FBE63
:1001C0000F901F9018959B01AC017FB7F894809118
:1001D000000190910101A0910201B091030166B567
:1001E000A89B05C06F3F19F00196A11DB11D7FBFEF
:1001F000BA2FA92F982F8827860F911DA11DB11DF9
:1002000062E0880F991FAA1FBB1F6A95D1F7BC0136
:100210002DC0FFB7F8948091000190910101A09149
:100220000201B0910301E6B5A89B05C0EF3F19F0AC
:100230000196A11DB11DFFBFBA2FA92F982F8827A6
:100240008E0F911DA11DB11DE2E0880F991FAA1FFD
:10025000BB1FEA95D1F7861B970B885E9340C8F2C7
:10026000215030404040504068517C4F21153105AD
:100270004105510571F60895789484B5826084BD76
:1002800084B5816084BD85B5826085BD85B581609A
:1002900085BDEEE6F0E0808181608083E1E8F0E0FA
:1002A0001082808182608083808181608083E0E829
:1002B000F0E0808181608083E1EBF0E08081846008
:1002C0008083E0EBF0E0808181608083EAE7F0E00A
:1002D000808184608083808182608083808181606E
:1002E00080838081806880831092C1000895CF93BD
:1002F000DF93482F50E0CA0186569F4FFC0134918E
:100300004A575F4FFA018491882369F190E0880F82
:10031000991FFC01E859FF4FA591B491FC01EE58DB
:10032000FF4FC591D491662351F42FB7F8948C9167
:10033000932F909589238C93888189230BC06230F9
:1003400061F42FB7F8948C91932F909589238C9317
:100350008881832B88832FBF06C09FB7F8948C9128
:10036000832B8C939FBFDF91CF910895CF93DF9321
:100370000E943C010E949000C0E0D0E00E948000FA
:0E0380002097E1F30E940000F9CFF894FFCF20
:00000001FF
