:100000000C9462000C9417020C9444020C948A0025
:100010000C948A000C948A000C948A000C948A0038
:100020000C948A000C948A000C948A000C948A0028
:100030000C948A000C948A000C948A000C948A0018
:100040000C94D9000C948A000C9481020C94CF0279
:100050000C948A000C948A000C948A000C948A00F8
:100060000C948A000C948A000000000024002700F1
:100070002A0000000000250028002B0000000000DE
:1000800023002600290004040404040404040202DA
:100090000202020203030303030301020408102007
:1000A0004080010204081020010204081020000012
:1000B0000007000201000003040600000000000029
:1000C00000003B0411241FBECFEFD8E0DEBFCDBF40
:1000D00011E0A0E0B1E0E0EAFBE002C005900D9283
:1000E000A231B107D9F711E0A2E1B1E001C01D9240
:1000F000AD3CB107E1F710E0C4ECD0E004C02297BA
:10010000FE010E94CA05C23CD107C9F70E947102D4
:100110000C94CE050C940000809100019091010197
:10012000892B69F0809112019091130101969093AF
:1001300013018093120110920101109200010895A1
:100140008091000190910101892BF1F480911201BD
:100150009091130190931501809314016091140103
:10016000709115018BEA91E04AE050E00E946A0527
:1001700064E670E080E090E00E94210181E090E080
:10018000909301018093000108958BEA91E040E88B
:1001900055E260E070E00E940A0382E062E00E94A3
:1001A000B50180E06CE870E042E050E00E94F401AC
:1001B00008951F920F920FB60F9211242F933F9321
:1001C0008F939F93AF93BF9380911A0190911B01DE
:1001D000A0911C01B0911D0130911E010196A11D3D
:1001E000B11D232F2D5F2D3720F02D570196A11D16
:1001F000B11D20931E0180931A0190931B01A093BF
:100200001C01B0931D018091160190911701A091DE
:100210001801B09119010196A11DB11D809316011D
:1002200090931701A0931801B0931901BF91AF915A
:100230009F918F913F912F910F900FBE0F901F9024
:1002400018959B01AC017FB7F894809116019091AD
:100250001701A0911801B091190166B5A89B05C0BE
:100260006F3F19F00196A11DB11D7FBFBA2FA92FB5
:10027000982F8827860F911DA11DB11D62E0880F60
:10028000991FAA1FBB1F6A95D1F7BC012DC0FFB7EC
:10029000F8948091160190911701A0911801B091E6
:1002A0001901E6B5A89B05C0EF3F19F00196A11D05
:1002B000B11DFFBFBA2FA92F982F88278E0F911D30
:1002C000A11DB11DE2E0880F991FAA1FBB1FEA956F
:1002D000D1F7861B970B885E9340C8F221503040BF
:1002E0004040504068517C4F211531054105510572
:1002F00071F60895789484B5826084BD84B5816078
:1003000084BD85B5826085BD85B5816085BDEEE61D
:10031000F0E0808181608083E1E8F0E010828081FC
:1003200082608083808181608083E0E8F0E080816A
:1003300081608083E1EBF0E0808184608083E0EB8A
:10034000F0E0808181608083EAE7F0E08081846072
:1003500080838081826080838081816080838081CE
:10036000806880831092C1000895CF93DF93482F57
:1003700050E0CA0186569F4FFC0134914A575F4FA7
:10038000FA018491882369F190E0880F991FFC019C
:10039000E859FF4FA591B491FC01EE58FF4FC5916C
:1003A000D491662351F42FB7F8948C91932F9095A4
:1003B00089238C93888189230BC0623061F42FB725
:1003C000F8948C91932F909589238C938881832B1B
:1003D00088832FBF06C09FB7F8948C91832B8C9392
:1003E0009FBFDF91CF910895823000F5E82FF0E0B4
:1003F000EE0FFF1FE15EFE4F71836083882319F0CB
:100400008130A1F408C0809169008C7F842B809397
:100410006900E89A089580916900440F551F440FC0
:10042000551F837F842B80936900E99A08951F925A
:100430000F920FB60F9211242F933F934F935F9318
:100440006F937F938F939F93AF93BF93EF93FF939C
:1004500080911F0190912001892B29F0E0911F01CB
:10046000F09120010995FF91EF91BF91AF919F917C
:100470008F917F916F915F914F913F912F910F904D
:100480000FBE0F901F9018951F920F920FB60F92EC
:1004900011242F933F934F935F936F937F938F9389
:1004A0009F93AF93BF93EF93FF938091210190911E
:1004B0002201892B29F0E0912101F0912201099577
:1004C000FF91EF91BF91AF919F918F917F916F912C
:1004D0005F914F913F912F910F900FBE0F901F9002
:1004E0001895CF93DF930E947A010E94C500CCEB50
:1004F000D2E00E94A0002097E1F30E94BC02F9CF55
:1005000008951F920F920FB60F9211242F933F93CD
:100510004F938F939F93EF93FF938091C00082FD41
:100520001DC04091C60020916301309164012F5F8E
:100530003F4F2F73307080916501909166012817AD
:10054000390771F0E0916301F0916401ED5DFE4FB8
:100550004083309364012093630102C08091C60000
:10056000FF91EF919F918F914F913F912F910F901C
:100570000FBE0F901F901895E091B701F091B80150
:10058000E05CFF4F8191919120813181821B930B1F
:100590008F739070892B11F00E94800208951F9232
:1005A0000F920FB60F9211242F933F938F939F9327
:1005B000EF93FF932091A7013091A8018091A901A9
:1005C0009091AA012817390731F48091C1008F7DDD
:1005D0008093C10014C0E091A901F091AA01E959EA
:1005E000FE4F20818091A9019091AA0101968F73FD
:1005F00090709093AA018093A9012093C600FF9167
:10060000EF919F918F913F912F910F900FBE0F907F
:100610001F901895AF92BF92DF92EF92FF920F93C7
:100620001F93CF93DF93EC017A018B01DD244030DF
:1006300081EE580780E0680780E0780711F0DD243C
:10064000D39491E0A92EB12CEC89FD89DD2069F0CD
:10065000C50108A002C0880F991F0A94E2F78083A1
:1006600060E079E08DE390E005C0108260E874E816
:100670008EE190E0A80197010E94A605215030402C
:1006800040405040569547953795279580E120305A
:10069000380720F0DD2011F0DD24D6CFE889F98974
:1006A0003083EA89FB89208319A2EE89FF89408182
:1006B00021E030E0C9010C8C02C0880F991F0A9418
:1006C000E2F7482B4083EE89FF894081C9010D8CF8
:1006D00002C0880F991F0A94E2F7482B4083EE89E5
:1006E000FF894081C9010E8C02C0880F991F0A94AE
:1006F000E2F7482B4083EE89FF8980810F8C02C08E
:10070000220F331F0A94E2F7209528232083DF91DC
:10071000CF911F910F91FF90EF90DF90BF90AF901E
:100720000895DC011C96ED91FC911D97E05CFF4F54
:100730002191319180819181281B390B2F73307069
:10074000C9010895DC011C96ED91FC911D97E05CB8
:10075000FF4F20813181E054F040DF01AE5BBF4F9D
:100760008D919C9111972817390719F42FEF3FEFBE
:1007700007C08D919C91E80FF91F8081282F30E0F0
:10078000C9010895DC011C96ED91FC911D97E05C78
:10079000FF4F20813181E054F040DF01AE5BBF4F5D
:1007A0008D919C9111972817390719F42FEF3FEF7E
:1007B00010C08D919C911197E80FF91F20818D91A8
:1007C0009C91119701968F73907011969C938E93C4
:1007D00030E0C9010895DC0191968C9191978823AE
:1007E00039F05496ED91FC915597808186FFF9CFB1
:1007F00091961C920895CF93DF93EC01EE85FF85CF
:10080000E05CFF4F20813181E054F0402F5F3F4F8B
:100810002F733070DF01AE5BBF4F8D919C911197AC
:1008200028173907D1F3E05CFF4F80819181E054B4
:10083000F040E80FF91F6083EE85FF85E05CFF4F15
:1008400031832083EE89FF89208181E090E00F8C45
:1008500002C0880F991F0A94E2F7282B208381E0B9
:1008600089A3EC89FD8980818064808381E090E0A8
:10087000DF91CF9108951092AE011092AD0188EEF4
:1008800093E0A0E0B0E08093AF019093B001A0931B
:10089000B101B093B20186E091E09093AC018093F6
:1008A000AB0183E291E09093B8018093B70187E6B2
:1008B00091E09093BA018093B90185EC90E0909318
:1008C000BC018093BB0184EC90E09093BE018093C7
:1008D000BD0180EC90E09093C0018093BF0181EC5A
:1008E00090E09093C2018093C10182EC90E09093DC
:1008F000C4018093C30186EC90E09093C60180937D
:10090000C50184E08093C70183E08093C80187E03C
:100910008093C90185E08093CA0181E08093CB0177
:100920000895CF92DF92EF92FF920F931F93CF9390
:10093000DF937C016B018A01C0E0D0E00FC0D601DB
:100940006D916D01D701ED91FC910190F081E02D49
:10095000C7010995C80FD91F015010400115110595
:1009600071F7CE01DF91CF911F910F91FF90EF9022
:10097000DF90CF900895EF92FF920F931F938C0119
:10098000DC01ED91FC910190F081E02D6DE0099585
:100990007C01D801ED91FC910190F081E02DC8011E
:1009A0006AE009959C012E0D3F1DC9011F910F9111
:1009B000FF90EF900895CF93DF93EC0161157105DF
:1009C00019F420E030E00FC0DB010D900020E9F7C2
:1009D0001197A61BB70BE881F9810280F381E02D06
:1009E000AD0109959C01C901DF91CF9108954F9206
:1009F0005F927F928F929F92AF92BF92CF92DF923F
:100A0000EF92FF920F931F93DF93CF93CDB7DEB793
:100A1000A1970FB6F894DEBF0FBECDBF2C01742E88
:100A2000CB01223008F42AE019A231E2C32ED12CE6
:100A3000CC0EDD1E822E9924AA24BB24672D752F8F
:100A4000A50194010E94A60579018A01C801B70198
:100A5000A50194010E948705472D461B0894C108F3
:100A6000D1084A3014F4405D01C0495CF60140836E
:100A7000E114F1040105110521F07E2C5F2DC80160
:100A8000DDCFC201B6010E94DB04A1960FB6F89437
:100A9000DEBF0FBECDBFCF91DF911F910F91FF90B1
:100AA000EF90DF90CF90BF90AF909F908F907F900E
:100AB0005F904F900895DC012115310541F4ED91CF
:100AC000FC910190F081E02D642F099508950E941A
:100AD000F7040895CF92DF92EF92FF920F931F9346
:100AE0006C017B019A0100E010E0B801A7010E94AF
:100AF0005B058C01C6010E94BB04080F191FC801C9
:100B00001F910F91FF90EF90DF90CF900895629F1B
:100B1000D001739FF001829FE00DF11D649FE00DF5
:100B2000F11D929FF00D839FF00D749FF00D659F56
:100B3000F00D9927729FB00DE11DF91F639FB00D55
:100B4000E11DF91FBD01CF0111240895A1E21A2E64
:100B5000AA1BBB1BFD010DC0AA1FBB1FEE1FFF1F61
:100B6000A217B307E407F50720F0A21BB30BE40BB1
:100B7000F50B661F771F881F991F1A9469F76095F8
:100B80007095809590959B01AC01BD01CF010895B2
:100B9000EE0FFF1F0590F491E02D0994F894FFCF1C
:100BA000010000000000FB0391049103C203A203B3
:020BB000EB0355
:00000001FF
