:100000000C9464000C948C000C948C000C948C0068
:100010000C948C000C948C000C948C000C948C0030
:100020000C948C000C948C000C948C000C948C0020
:100030000C948C000C948C000C948C000C948C0010
:100040000C9469010C948C000C94E8020C94360317
:100050000C948C000C948C000C948C000C948C00F0
:100060000C948C000C948C000000000024002700ED
:100070002A0000000000250028002B0000000000DE
:1000800023002600290004040404040404040202DA
:100090000202020203030303030301020408102007
:1000A0004080010204081020010204081020000012
:1000B0000007000201000003040600000000000029
:1000C0000000F800A204F10011241FBECFEFD8E019
:1000D000DEBFCDBF11E0A0E0B1E0ECE2F1E102C093
:1000E00005900D92A234B107D9F712E0A2E4B1E075
:1000F00001C01D92A530B107E1F710E0C6ECD0E0D9
:1001000004C02297FE010E948508C23CD107C9F7AE
:100110000E94D8020C9489080C9400001F93FC01E3
:1001200099278827BC01E89411911032E9F319301E
:1001300010F01E30C8F31B3251F01D3249F46894A0
:1001400006C00E94C500610F711D811D911D119196
:1001500010531A30B0F33EF49095809570956195E8
:100160007F4F8F4F9F4F1F910895FB01DC0102C00D
:1001700001900D9241505040D8F70895FB01DC01E9
:1001800001900D920020E1F70895592F482F372F45
:10019000262F660F771F881F991F660F771F881FEE
:1001A000991F620F731F841F951F660F771F881F8B
:1001B000991F08958130910551F46F5F7F4F81F44D
:1001C00083E491E060E071E00E942B060895892BA2
:1001D00039F46F5F7F4F21F483E491E00E9445067C
:1001E000089580E090E06FEF7FEF0E94DA000895BD
:1001F00081E090E06FEF7FEF0E94DA0008950F93A7
:100200001F9380914201882301F126C08FED91E078
:100210000E942904182F8D3031F4009342018FED94
:1002200091E00E94520483E491E0612F0E94E50571
:1002300083E491E00E94710560934A0170934B0141
:1002400080934C0190934D0101C001E08FED91E04E
:100250000E94F803892BD1F6809142018823F1F0A6
:1002600080912A0161E00E94840260914A017091AC
:100270004B0180914C0190914D010E94B101809100
:100280002A0160E00E94840260914A0170914B0152
:1002900080914C0190914D010E94B1011F910F91ED
:1002A00008950F931F930FED11E0C80140E855E248
:1002B00060E070E00E94710380912A0161E00E9479
:1002C0004502C80161E071E00E945E051F910F9137
:1002D00008951F920F920FB60F9211242F933F9300
:1002E0008F939F93AF93BF9380915201909153014D
:1002F000A0915401B0915501309156010196A11D74
:10030000B11D232F2D5F2D3720F02D570196A11DF4
:10031000B11D209356018093520190935301A093F5
:100320005401B093550180914E0190914F01A091DD
:100330005001B09151010196A11DB11D80934E0154
:1003400090934F01A0935001B0935101BF91AF9191
:100350009F918F913F912F910F900FBE0F901F9003
:1003600018959B01AC017FB7F89480914E01909154
:100370004F01A0915001B091510166B5A89B05C0F5
:100380006F3F19F00196A11DB11D7FBFBA2FA92F94
:10039000982F8827860F911DA11DB11D62E0880F3F
:1003A000991FAA1FBB1F6A95D1F7BC012DC0FFB7CB
:1003B000F89480914E0190914F01A0915001B0911D
:1003C0005101E6B5A89B05C0EF3F19F00196A11DAC
:1003D000B11DFFBFBA2FA92F982F88278E0F911D0F
:1003E000A11DB11DE2E0880F991FAA1FBB1FEA954E
:1003F000D1F7861B970B885E9340C8F2215030409E
:100400004040504068517C4F211531054105510550
:1004100071F60895789484B5826084BD84B5816056
:1004200084BD85B5826085BD85B5816085BDEEE6FC
:10043000F0E0808181608083E1E8F0E010828081DB
:1004400082608083808181608083E0E8F0E0808149
:1004500081608083E1EBF0E0808184608083E0EB69
:10046000F0E0808181608083EAE7F0E08081846051
:1004700080838081826080838081816080838081AD
:10048000806880831092C1000895CF93DF93482F36
:1004900050E0CA0186569F4FFC0134914A575F4F86
:1004A000FA018491882369F190E0880F991FFC017B
:1004B000E859FF4FA591B491FC01EE58FF4FC5914B
:1004C000D491662351F42FB7F8948C91932F909583
:1004D00089238C93888189230BC0623061F42FB704
:1004E000F8948C91932F909589238C938881832BFA
:1004F00088832FBF06C09FB7F8948C91832B8C9371
:100500009FBFDF91CF910895482F50E0CA018255D7
:100510009F4FFC012491CA0186569F4FFC01949184
:100520004A575F4FFA013491332309F440C0222324
:1005300051F1233071F0243028F42130A1F0223021
:1005400011F514C02630B1F02730C1F02430D9F4B1
:1005500004C0809180008F7703C0809180008F7DE0
:100560008093800010C084B58F7702C084B58F7DE2
:1005700084BD09C08091B0008F7703C08091B00026
:100580008F7D8093B000E32FF0E0EE0FFF1FEE5859
:10059000FF4FA591B4912FB7F894662321F48C9165
:1005A0009095892302C08C91892B8C932FBF08953D
:1005B000CF93DF930E940A020E945101C3E2D3E06D
:1005C0000E94FF002097E1F30E942303F9CF0895D2
:1005D0001F920F920FB60F9211242F933F934F93B8
:1005E0008F939F93EF93FF938091C00082FD1DC076
:1005F0004091C60020919701309198012F5F3F4FA5
:100600002F7330708091990190919A0128173907C2
:1006100071F0E0919701F0919801E95AFE4F408303
:10062000309398012093970102C08091C600FF91FA
:10063000EF919F918F914F913F912F910F900FBE0E
:100640000F901F901895E091EB01F091EC01E05CA8
:10065000FF4F8191919120813181821B930B8F7388
:100660009070892B11F00E94E70208951F920F925B
:100670000FB60F9211242F933F938F939F93EF9375
:10068000FF932091DB013091DC018091DD0190919D
:10069000DE012817390731F48091C1008F7D8093E6
:1006A000C10014C0E091DD01F091DE01E556FE4F7E
:1006B00020818091DD019091DE0101968F73907011
:1006C0009093DE018093DD012093C600FF91EF91AE
:1006D0009F918F913F912F910F900FBE0F901F9080
:1006E0001895AF92BF92DF92EF92FF920F931F93F4
:1006F000CF93DF93EC017A018B01DD24403081EE52
:10070000580780E0680780E0780711F0DD24D39473
:1007100091E0A92EB12CEC89FD89DD2069F0C5019D
:1007200008A002C0880F991F0A94E2F7808360E056
:1007300079E08DE390E005C0108260E874E88EE116
:1007400090E0A80197010E9461082150304040408C
:100750005040569547953795279580E120303807CA
:1007600020F0DD2011F0DD24D6CFE889F98930832F
:10077000EA89FB89208319A2EE89FF89408121E063
:1007800030E0C9010C8C02C0880F991F0A94E2F76F
:10079000482B4083EE89FF894081C9010D8C02C03E
:1007A000880F991F0A94E2F7482B4083EE89FF894E
:1007B0004081C9010E8C02C0880F991F0A94E2F78C
:1007C000482B4083EE89FF8980810F8C02C0220F65
:1007D000331F0A94E2F7209528232083DF91CF91DD
:1007E0001F910F91FF90EF90DF90BF90AF90089511
:1007F000DC011C96ED91FC911D97E05CFF4F21916F
:10080000319180819181281B390B2F733070C90180
:100810000895DC011C96ED91FC911D97E05CFF4F63
:1008200020813181E054F040DF01AE5BBF4F8D91FC
:100830009C9111972817390719F42FEF3FEF07C044
:100840008D919C91E80FF91F8081282F30E0C9011C
:100850000895DC011C96ED91FC911D97E05CFF4F23
:1008600020813181E054F040DF01AE5BBF4F8D91BC
:100870009C9111972817390719F42FEF3FEF10C0FB
:100880008D919C911197E80FF91F20818D919C917A
:10089000119701968F73907011969C938E9330E010
:1008A000C9010895DC0191968C919197882339F0C4
:1008B0005496ED91FC915597808186FFF9CF9196E2
:1008C0001C920895CF93DF93EC01EE85FF85E05CE9
:1008D000FF4F20813181E054F0402F5F3F4F2F7355
:1008E0003070DF01AE5BBF4F8D919C91119728173F
:1008F0003907D1F3E05CFF4F80819181E054F040F3
:10090000E80FF91F6083EE85FF85E05CFF4F3183C0
:100910002083EE89FF89208181E090E00F8C02C066
:10092000880F991F0A94E2F7282B208381E089A37E
:10093000EC89FD8980818064808381E090E0DF9193
:10094000CF9108951092E2011092E10188EE93E0B8
:10095000A0E0B0E08093E3019093E401A093E5016F
:10096000B093E60186E391E09093E0018093DF018C
:1009700087E591E09093EC018093EB018BE991E0A6
:100980009093EE018093ED0185EC90E09093F0015F
:100990008093EF0184EC90E09093F2018093F10159
:1009A00080EC90E09093F4018093F30181EC90E06F
:1009B0009093F6018093F50182EC90E09093F8011A
:1009C0008093F70186EC90E09093FA018093F9010F
:1009D00084E08093FB0183E08093FC0187E08093B7
:1009E000FD0185E08093FE0181E08093FF01089581
:1009F000CF92DF92EF92FF920F931F93CF93DF93EB
:100A00007C016B018A01C0E0D0E00FC0D6016D917E
:100A10006D01D701ED91FC910190F081E02DC701AE
:100A20000995C80FD91F015010400115110571F724
:100A3000CE01DF91CF911F910F91FF90EF90DF904A
:100A4000CF900895EF92FF920F931F938C01DC01DA
:100A5000ED91FC910190F081E02D6DE009957C0114
:100A6000D801ED91FC910190F081E02DC8016AE080
:100A700009959C012E0D3F1DC9011F910F91FF90FB
:100A8000EF900895CF93DF93EC016115710519F490
:100A900020E030E00FC0DB010D900020E9F7119756
:100AA000A61BB70BE881F9810280F381E02DAD012F
:100AB00009959C01C901DF91CF910895EF92FF92B2
:100AC0000F931F937C010E9442058C01C7010E9475
:100AD0002205080F191FC8011F910F91FF90EF9079
:100AE0000895FC0180819181009729F420E030E095
:100AF00040E050E004C00E948E009B01AC01B901AF
:100B0000CA0108950F931F93CF93DF93EC018B01DC
:100B10006F5F7F4F888199810E948007009711F451
:100B200080E005C0998388831B830A8381E0DF917D
:100B3000CF911F910F910895CF93DF93EC0188819E
:100B40009981892B29F08A819B818617970760F408
:100B5000CE010E948205882341F08C819D81892BE2
:100B600019F4E881F981108281E0DF91CF91089535
:100B7000EF92FF920F931F93CF93DF93EC017B01D2
:100B80006C817D81E114F104C1F04115510599F0AA
:100B90008A01060F171FB8010E949C05882369F07F
:100BA000888199812C813D81820F931FB7010E941A
:100BB000BE001D830C8381E001C080E0DF91CF91F6
:100BC0001F910F91FF90EF900895DF93CF9300D086
:100BD000CDB7DEB769831A82BE016F5F7F4F41E0F8
:100BE00050E00E94B8050F900F90CF91DF910895CB
:100BF000CF93DF93EC0188819981009711F00E94D7
:100C0000E806198218821D821C821B821A82DF91DB
:100C1000CF910895EF92FF920F931F93CF93DF939D
:100C2000EC017B018A01BA010E949C05882321F412
:100C3000CE010E94F80507C01D830C83888199812D
:100C4000B7010E94BE00CE01DF91CF911F910F919D
:100C5000FF90EF900895CF93DF93EC0119821882F3
:100C60001B821A821D821C821E826115710551F041
:100C7000DB010D900020E9F71197A61BB70BAD0122
:100C80000E940A06DF91CF910895FC018081918135
:100C90000E94E80608950F931F93CF93DF93BC0142
:100CA0008230910510F462E070E0E0910302F0916F
:100CB0000402A0E0B0E040E050E024C080819181D7
:100CC00086179707D0F08617970771F48281938172
:100CD000109729F013969C938E9312972CC09093A3
:100CE00004028093030227C04115510519F08417AF
:100CF000950718F4EF018D01AC01DF01828193812A
:100D00009C01F9013097D1F641155105F9F0CA015E
:100D1000861B970B8430910580F48A819B81011595
:100D2000110521F0F8019383828304C0909304029B
:100D300080930302FE01329645C0FE01E80FF91FC1
:100D4000619371930297998388833CC080910102DB
:100D500090910202892B41F480912E0190912F01F4
:100D60009093020280930102409130015091310131
:100D70004115510541F44DB75EB780912C0190911A
:100D80002D01481B590B20910102309102022417BA
:100D90003507B0F4CA01821B930B8617970780F0C2
:100DA000AB014E5F5F4F8417950750F0420F531F02
:100DB0005093020240930102F9016193719302C0C2
:100DC000E0E0F0E0CF01DF91CF911F910F91089506
:100DD000CF93DF939C01009709F48FC0EC01229719
:100DE0001B821A82609103027091040261157105E1
:100DF00081F488819981820F931F209101023091A3
:100E000002022817390739F5D0930202C093010274
:100E100074C0DB0140E050E0AC17BD0708F1BB83B4
:100E2000AA83FE0121913191E20FF31FAE17BF0794
:100E300079F48D919C911197280F391F2E5F3F4FA8
:100E40003983288312968D919C9113979B838A8373
:100E50004115510571F4D0930402C09303024DC0B3
:100E600012968D919C911397AD01009711F0DC01C2
:100E7000D3CFDA011396DC93CE931297FA01219126
:100E80003191E20FF31FCE17DF0769F48881998152
:100E9000280F391F2E5F3F4FFA01318320838A814B
:100EA0009B8193838283E0E0F0E0DB0112968D91D9
:100EB0009C911397009719F0BC01FD01F6CFAB018F
:100EC0004E5F5F4FDB018D919C91840F951F2091A8
:100ED0000102309102022817390779F4309729F47A
:100EE000109204021092030202C013821282425036
:100EF00050405093020240930102DF91CF91089538
:100F00006F927F928F929F92AF92BF92CF92DF9219
:100F1000EF92FF920F931F93CF93DF938C01009773
:100F200029F4CB010E944B068C01BBC08EEFE82E4A
:100F30008FEFF82EE00EF11E4801860E971E8E14DC
:100F40009F0408F4ACC0D7014D915C9111974617EE
:100F50005707B8F04530510508F4A3C0CA010497FB
:100F60008617970708F49DC042505040461B570B08
:100F7000F401419351936D937C93CF010E94E80655
:100F800090C05B01A41AB50A3801640E751EA091C9
:100F90000302B0910402CC24DD24E0E0F0E047C07D
:100FA000A615B705A9F5CD91DC911197CE01029652
:100FB0008A159B0568F1CE018A199B090296129643
:100FC0002C91129713963C91059758F0F4012283C7
:100FD0003383CA19DB09D183C083D7016D937C9316
:100FE00009C04E5F5F4F4C0F5D1FF7015183408377
:100FF000C901FC01C114D10431F0D6011396FC9350
:10100000EE9312974EC0F0930402E093030249C09E
:101010008D919C911197E817F90708F4FC016D0177
:1010200012968C91129713969C919C01D90110975E
:1010300009F0B6CF809101029091020286159705C2
:10104000E9F4E617F707D0F420913001309131012F
:101050002115310541F42DB73EB780912C019091B7
:101060002D01281B390B82169306C8F490920202B8
:1010700080920102F7017183608313C0CB010E944B
:101080004B06EC01009759F0D7014D915C91B801E6
:101090000E94B500C8010E94E8068E0102C000E06F
:1010A00010E0C801DF91CF911F910F91FF90EF9059
:1010B000DF90CF90BF90AF909F908F907F906F9078
:1010C0000895A1E21A2EAA1BBB1BFD010DC0AA1F89
:1010D000BB1FEE1FFF1FA217B307E407F50720F0A1
:1010E000A21BB30BE40BF50B661F771F881F991F1C
:1010F0001A9469F760957095809590959B01AC0165
:10110000BD01CF010895EE0FFF1F0590F491E02D72
:10111000099410E0C6ECD0E004C0FE010E948508EE
:0C1120002296C83CD107C9F7F894FFCF15
:10112C0000454E544552204120504552494F4420D1
:10113C00464F5220544845204C4947485420544F60
:10114C0020424C494E4B204154000D0080000502BA
:10115C000000000000006204F804F80329040904EC
:02116C0052042B
:00000001FF
