:100000000C9437000C945F000C945F000C945F001C
:100010000C945F000C945F000C945F000C945F00E4
:100020000C945F000C945F000C945F000C945F00D4
:100030000C945F000C945F000C945F000C945F00C4
:100040000C948D010C945F000C9479020C94C702FF
:100050000C945F000C945F000C945F000C945F00A4
:100060000C945F000C945F009900330492001124FB
:100070001FBECFEFD8E0DEBFCDBF11E0A0E0B1E002
:10008000E2EBF1E102C005900D92AC3FB107D9F768
:1000900012E0ACEFB1E001C01D92A33CB107E1F763
:1000A00010E0CCE6D0E004C02297FE010E94C80810
:1000B000C836D107C9F70E9469020C94CC080C9489
:1000C0000000FB01DC0102C001900D924150504044
:1000D000D8F70895FB01DC0101900D920020E1F7B3
:1000E00008958130910581F46F5F7F4FD1F48CEFDB
:1000F00091E060E071E00E94350683E092E060E00C
:1001000071E00E9435060895892B59F46F5F7F4F87
:1001100041F483E092E00E9482068CEF91E00E941D
:100120008206089580E090E06FEF7FEF0E947100FB
:10013000089581E090E06FEF7FEF0E9471000895D5
:10014000FF920F931F93DF93CF93CDB7DEB76597E1
:100150000FB6F894DEBF0FBECDBF80910A02882390
:1001600061F136C08DE992E00E94BA03682F8D30AC
:10017000F9F4C80161E071E00E944F06C8016CEF1C
:1001800071E00E94FE05BC018DE992E00E9402052B
:10019000C8010E948806F0920A028DE992E069E0A7
:1001A00071E00E94EF048DE992E00E94E3030AC02F
:1001B0008CEF91E00E94BD0505C08E010F5F1F4FBF
:1001C000FF24F3948DE992E00E948903892B51F674
:1001D00080910A02813089F525C08DE992E00E9464
:1001E000BA03682F8D30C9F4C8016DE271E00E9436
:1001F0004F06C80163E072E00E94FE05BC018DE974
:1002000092E00E943505C8010E948806F0920B0218
:100210008DE992E00E94E3030AC083E092E00E942D
:10022000BD0505C08E01085F1F4FFF24F3948DE9C3
:1002300092E00E948903892B81F680910A0288232B
:1002400009F441C080910B028823E9F18E01015F1E
:100250001F4FC80166E471E00E944F06C80163E0C9
:1002600072E00E94FE0569E571E00E94E2056CEF14
:1002700071E00E94FE05BC018DE992E00E94350507
:10028000C8010E9488068CEF91E060E071E00E9456
:10029000690683E092E060E071E00E9469061092D6
:1002A0000A0210920B028DE992E00E94E30368EECD
:1002B00073E080E090E00E94D5018DE992E06CE56A
:1002C00071E00E94EF0465960FB6F894DEBF0FBE92
:1002D000CDBFCF91DF911F910F91FF9008950F93A4
:1002E0001F930DE912E0C80140E855E260E070E0BC
:1002F0000E940203C8016FE871E00E94EF04C80188
:1003000060EA71E00E94EF0461E070E080E090E05C
:100310000E94D5011F910F9108951F920F920FB661
:100320000F9211242F933F938F939F93AF93BF937B
:100330008091100290911102A0911202B0911302CB
:10034000309114020196A11DB11D232F2D5F2D3771
:1003500020F02D570196A11DB11D2093140280930A
:10036000100290931102A0931202B0931302809195
:100370000C0290910D02A0910E02B0910F02019615
:10038000A11DB11D80930C0290930D02A0930E024B
:10039000B0930F02BF91AF919F918F913F912F9199
:1003A0000F900FBE0F901F9018959B01AC017FB767
:1003B000F89480910C0290910D02A0910E02B091E0
:1003C0000F0266B5A89B05C06F3F19F00196A11DED
:1003D000B11D7FBFBA2FA92F982F8827860F911D97
:1003E000A11DB11D62E0880F991FAA1FBB1F6A954E
:1003F000D1F7BC012DC0FFB7F89480910C02909109
:100400000D02A0910E02B0910F02E6B5A89B05C0A7
:10041000EF3F19F00196A11DB11DFFBFBA2FA92F03
:10042000982F88278E0F911DA11DB11DE2E0880F26
:10043000991FAA1FBB1FEA95D1F7861B970B885EF1
:100440009340C8F2215030404040504068517C4FAA
:10045000211531054105510571F60895789484B54B
:10046000826084BD84B5816084BD85B5826085BDB0
:1004700085B5816085BDEEE6F0E080818160808396
:10048000E1E8F0E010828081826080838081816079
:100490008083E0E8F0E0808181608083E1EBF0E040
:1004A000808184608083E0EBF0E0808181608083E4
:1004B000EAE7F0E0808184608083808182608083CD
:1004C0008081816080838081806880831092C100F8
:1004D0000895CF93DF930E942E020E946F01C4EB18
:1004E000D2E00E94A0002097E1F30E94B402F9CF6D
:1004F00008951F920F920FB60F9211242F933F93DE
:100500004F938F939F93EF93FF938091C00082FD51
:100510001DC04091C60020915502309156022F5FB8
:100520003F4F2F73307080915702909158022817D7
:10053000390771F0E0915502F0915602EB5EFD4FE4
:100540004083309356022093550202C08091C6002A
:10055000FF91EF919F918F914F913F912F910F902C
:100560000FBE0F901F901895E091A902F091AA027A
:10057000E05CFF4F8191919120813181821B930B2F
:100580008F739070892B11F00E94780208951F924A
:100590000F920FB60F9211242F933F938F939F9337
:1005A000EF93FF932091990230919A0280919B02E0
:1005B00090919C022817390731F48091C1008F7DFA
:1005C0008093C10014C0E0919B02F0919C02E75A15
:1005D000FD4F208180919B0290919C0201968F7328
:1005E000907090939C0280939B022093C600FF9191
:1005F000EF919F918F913F912F910F900FBE0F9090
:100600001F901895AF92BF92DF92EF92FF920F93D7
:100610001F93CF93DF93EC017A018B01DD244030EF
:1006200081EE580780E0680780E0780711F0DD244C
:10063000D39491E0A92EB12CEC89FD89DD2069F0DD
:10064000C50108A002C0880F991F0A94E2F78083B1
:1006500060E079E08DE390E005C0108260E874E826
:100660008EE190E0A80197010E94A408215030403B
:1006700040405040569547953795279580E120306A
:10068000380720F0DD2011F0DD24D6CFE889F98984
:100690003083EA89FB89208319A2EE89FF89408192
:1006A00021E030E0C9010C8C02C0880F991F0A9428
:1006B000E2F7482B4083EE89FF894081C9010D8C08
:1006C00002C0880F991F0A94E2F7482B4083EE89F5
:1006D000FF894081C9010E8C02C0880F991F0A94BE
:1006E000E2F7482B4083EE89FF8980810F8C02C09E
:1006F000220F331F0A94E2F7209528232083DF91ED
:10070000CF911F910F91FF90EF90DF90BF90AF902E
:100710000895DC011C96ED91FC911D97E05CFF4F64
:100720002191319180819181281B390B2F73307079
:10073000C9010895DC011C96ED91FC911D97E05CC8
:10074000FF4F20813181E054F040DF01AE5BBF4FAD
:100750008D919C9111972817390719F42FEF3FEFCE
:1007600007C08D919C91E80FF91F8081282F30E000
:10077000C9010895DC011C96ED91FC911D97E05C88
:10078000FF4F20813181E054F040DF01AE5BBF4F6D
:100790008D919C9111972817390719F42FEF3FEF8E
:1007A00010C08D919C911197E80FF91F20818D91B8
:1007B0009C91119701968F73907011969C938E93D4
:1007C00030E0C9010895DC0191968C9191978823BE
:1007D00039F05496ED91FC915597808186FFF9CFC1
:1007E00091961C920895CF93DF93EC01EE85FF85DF
:1007F000E05CFF4F20813181E054F0402F5F3F4F9C
:100800002F733070DF01AE5BBF4F8D919C911197BC
:1008100028173907D1F3E05CFF4F80819181E054C4
:10082000F040E80FF91F6083EE85FF85E05CFF4F25
:1008300031832083EE89FF89208181E090E00F8C55
:1008400002C0880F991F0A94E2F7282B208381E0C9
:1008500089A3EC89FD8980818064808381E090E0B8
:10086000DF91CF9108951092A00210929F0288EE1E
:1008700093E0A0E0B0E08093A1029093A202A09345
:10088000A302B093A4028FEE91E090939E02809316
:100890009D0285E192E09093AA028093A90289E5E6
:1008A00092E09093AC028093AB0285EC90E0909341
:1008B000AE028093AD0284EC90E09093B0028093FE
:1008C000AF0280EC90E09093B2028093B10281EC91
:1008D00090E09093B4028093B30282EC90E0909306
:1008E000B6028093B50286EC90E09093B8028093B4
:1008F000B70284E08093B90283E08093BA0287E074
:100900008093BB0285E08093BC0281E08093BD02AE
:100910000895CF92DF92EF92FF920F931F93CF93A0
:10092000DF937C016B018A01C0E0D0E00FC0D601EB
:100930006D916D01D701ED91FC910190F081E02D59
:10094000C7010995C80FD91F0150104001151105A5
:1009500071F7CE01DF91CF911F910F91FF90EF9032
:10096000DF90CF900895EF92FF920F931F938C0129
:10097000DC01ED91FC910190F081E02D6DE0099595
:100980007C01D801ED91FC910190F081E02DC8012E
:100990006AE009959C012E0D3F1DC9011F910F9121
:1009A000FF90EF900895CF93DF93EC0161157105EF
:1009B00019F420E030E00FC0DB010D900020E9F7D2
:1009C0001197A61BB70BE881F9810280F381E02D16
:1009D000AD0109959C01C901DF91CF910895EF9276
:1009E000FF920F931F937C010E94D3048C01C701D7
:1009F0000E94B304080F191FC8011F910F91FF90A7
:100A0000EF900895AF92BF92CF92DF92EF92FF9254
:100A10000F931F93CF93DF935C016B01EE24FF24B0
:100A2000C0E0D0E010C0D501ED91FC9100811181B2
:100A3000C601BE010E944905682FC501F80109954C
:100A4000E80EF91E2196F60184819581C817D90711
:100A500050F3C701DF91CF911F910F91FF90EF905D
:100A6000DF90CF90BF90AF900895EF92FF920F93D9
:100A70001F937C010E9402058C01C7010E94B304F0
:100A80009C01200F311FC9011F910F91FF90EF9022
:100A90000895FC01848195816817790748F40190D5
:100AA000F081E02D309721F0E60FF71F8081089547
:100AB00080E008950F931F93CF93DF93EC018B0198
:100AC0006F5F7F4F888199810E94C307009711F45F
:100AD00080E005C0998388831B830A8381E0DF91CE
:100AE000CF911F910F910895CF93DF93EC018881EF
:100AF0009981892B29F08A819B818617970760F459
:100B0000CE010E945A05882341F08C819D81892B5A
:100B100019F4E881F981108281E0DF91CF91089585
:100B2000EF92FF920F931F93CF93DF93EC017B0122
:100B30006C817D81E114F104C1F04115510599F0FA
:100B40008A01060F171FB8010E947405882369F0F7
:100B5000888199812C813D81820F931FB7010E946A
:100B60006A001D830C8381E001C080E0DF91CF919A
:100B70001F910F91FF90EF900895DF93CF9300D0D6
:100B8000CDB7DEB769831A82BE016F5F7F4F41E048
:100B900050E00E9490050F900F90CF91DF91089543
:100BA000CF93DF93EC0188819981009711F00E9427
:100BB0002B07198218821D821C821B821A82DF91E8
:100BC000CF9108950F931F93182F092F6115710569
:100BD00061F0DB010D900020E9F71197A61BB70B20
:100BE000AD010E949005882321F4812F902F0E944F
:100BF000D005812F902F1F910F9108950F931F9370
:100C0000182F092FFB0160817181448155810E9459
:100C10009005882321F4812F902F0E94D005812FE9
:100C2000902F1F910F910895EF92FF920F931F93B2
:100C3000CF93DF93EC017B018A01BA010E94740516
:100C4000882321F4CE010E94D00507C01D830C83A8
:100C500088819981B7010E946A00CE01DF91CF910E
:100C60001F910F91FF90EF900895CF93DF93EC01C8
:100C7000198218821B821A821D821C821E826115B3
:100C8000710551F0DB010D900020E9F71197A61BCB
:100C9000B70BAD010E941406DF91CF910895CF9359
:100CA000DF93EC01198218821B821A821D821C823A
:100CB0001E826115710551F0DB010D900020E9F7EE
:100CC0001197A61BB70BAD010E941406DF91CF91BF
:100CD00008950F931F93182F092F6115710559F06F
:100CE000DB010D900020E9F71197A61BB70BAD01B2
:100CF0000E94140602C00E94D005812F902F1F91E0
:100D00000F910895FC01808191810E942B07089525
:100D1000FC01808191810E942B0708950F931F93FE
:100D2000CF93DF93BC018230910510F462E070E054
:100D3000E091C102F091C202A0E0B0E040E050E0DA
:100D400024C08081918186179707D0F08617970776
:100D500071F482819381109729F013969C938E935E
:100D600012972CC09093C2028093C10227C04115F4
:100D7000510519F08417950718F4EF018D01AC01A6
:100D8000DF01828193819C01F9013097D1F64115F1
:100D90005105F9F0CA01861B970B8430910580F448
:100DA0008A819B810115110521F0F80193838283CB
:100DB00004C09093C2028093C102FE01329645C0E6
:100DC000FE01E80FF91F619371930297998388835D
:100DD0003CC08091BF029091C002892B41F4809168
:100DE000E7019091E8019093C0028093BF02409187
:100DF000E9015091EA014115510541F44DB75EB743
:100E00008091E5019091E601481B590B2091BF02AA
:100E10003091C00224173507B0F4CA01821B930B2E
:100E20008617970780F0AB014E5F5F4F84179507D9
:100E300050F0420F531F5093C0024093BF02F9017C
:100E40006193719302C0E0E0F0E0CF01DF91CF91B8
:100E50001F910F910895CF93DF939C01009709F4A0
:100E60008FC0EC0122971B821A826091C10270919F
:100E7000C2026115710581F488819981820F931FE7
:100E80002091BF023091C0022817390739F5D0935D
:100E9000C002C093BF0274C0DB0140E050E0AC1759
:100EA000BD0708F1BB83AA83FE0121913191E20FB6
:100EB000F31FAE17BF0779F48D919C911197280FFE
:100EC000391F2E5F3F4F3983288312968D919C9155
:100ED00013979B838A834115510571F4D093C20205
:100EE000C093C1024DC012968D919C911397AD0194
:100EF000009711F0DC01D3CFDA011396DC93CE9387
:100F00001297FA0121913191E20FF31FCE17DF07FB
:100F100069F488819981280F391F2E5F3F4FFA01AC
:100F2000318320838A819B8193838283E0E0F0E098
:100F3000DB0112968D919C911397009719F0BC01DB
:100F4000FD01F6CFAB014E5F5F4FDB018D919C91B0
:100F5000840F951F2091BF023091C00228173907D6
:100F600079F4309729F41092C2021092C10202C0A3
:100F700013821282425050405093C0024093BF02ED
:100F8000DF91CF9108956F927F928F929F92AF924F
:100F9000BF92CF92DF92EF92FF920F931F93CF9366
:100FA000DF938C01009729F4CB010E948E068C01FF
:100FB000BBC08EEFE82E8FEFF82EE00EF11E480139
:100FC000860E971E8E149F0408F4ACC0D7014D9175
:100FD0005C91119746175707B8F04530510508F452
:100FE000A3C0CA0104978617970708F49DC0425012
:100FF0005040461B570BF401419351936D937C93E2
:10100000CF010E942B0790C05B01A41AB50A3801DA
:10101000640E751EA091C102B091C202CC24DD24E1
:10102000E0E0F0E047C0A615B705A9F5CD91DC9149
:101030001197CE0102968A159B0568F1CE018A1997
:101040009B09029612962C91129713963C91059744
:1010500058F0F40122833383CA19DB09D183C0839A
:10106000D7016D937C9309C04E5F5F4F4C0F5D1F9E
:10107000F70151834083C901FC01C114D10431F04F
:10108000D6011396FC93EE9312974EC0F093C202D2
:10109000E093C10249C08D919C911197E817F9071F
:1010A00008F4FC016D0112968C91129713969C9195
:1010B0009C01D901109709F0B6CF8091BF029091A1
:1010C000C00286159705E9F4E617F707D0F42091DA
:1010D000E9013091EA012115310541F42DB73EB700
:1010E0008091E5019091E601281B390B8216930649
:1010F000C8F49092C0028092BF02F70171836083AE
:1011000013C0CB010E948E06EC01009759F0D70165
:101110004D915C91B8010E946100C8010E942B07AB
:101120008E0102C000E010E0C801DF91CF911F9155
:101130000F91FF90EF90DF90CF90BF90AF909F9076
:101140008F907F906F900895A1E21A2EAA1BBB1B6F
:10115000FD010DC0AA1FBB1FEE1FFF1FA217B30783
:10116000E407F50720F0A21BB30BE40BF50B661F99
:10117000771F881F991F1A9469F76095709580955D
:1011800090959B01AC01BD01CF010895EE0FFF1FAB
:101190000590F491E02D099410E0CCE6D0E004C075
:1011A000FE010E94C8082296CE36D107C9F7F894EE
:0211B000FFCF6F
:1011B2000048656C6C6F2C20002C20636F756C648A
:1011C200204920616C736F206861766520796F75A4
:1011D20072204C415354206E616D653F004F6B612C
:1011E200792C20796F7572204C415354206E616DB9
:1011F2006520697320004E69636520746F206D65F8
:10120200657420796F752C20002C200053686F6F55
:10121200742C2049276D20736F20666F7267657486
:1012220066756C212057686174277320796F757217
:10123200206E616D6520616761696E3F2020004507
:101242006E74657220796F7572206E616D653A00F9
:10125200506C6561736520656E74657220796F7577
:1012620072204649525354206E616D652C20686984
:10127200742052657475726E2C207468656E2065D8
:101282006E74657220796F7572204C415354206ED2
:10129200616D652E008000C302000000000000F3B3
:0C12A2000389048903BA039A03E30300E4
:00000001FF
